S315080000003036002079010008350400082D04000860
S31508000010310400081D040008B104000800000000AF
S315080000200000000000000000000000003D04000879
S3150800003029040008000000003904000841040008EB
S315080000409301000893010008930100089301000832
S315080000509301000893010008930100089301000822
S3150800006000000000930100089301000893010008AE
S31508000070930100089301000893010008000000009E
S31508000080930100089301000800000000930100088E
S3150800009093010008930100089301000893010008E2
S315080000A093010008930100089301000893010008D2
S315080000B093010008000000009301000825040008C9
S315080000C0930100080000000093010008930100084E
S315080000D0210400089301000800F002F800F03CF83B
S315080000E00AA090E8000C82448344AAF10107DA4585
S315080000F001D100F031F8AFF2090EBAE80F0013F09B
S31508000100010F18BFFB1A43F0010318471C4D0000E6
S315080001103C4D0000103A24BF78C878C1FAD8520777
S3150800012024BF30C830C144BF04680C607047000063
S315080001300023002400250026103A28BF78C1FBD8E2
S31508000140520728BF30C148BF0B6070471FB504F07F
S3150800015050FD1FBD10B510BD00F025F91146FFF77B
S31508000160F5FF03F0C7FB00F043F903B4FFF7F2FF0E
S3150800017003BC00F04BF900000948804709480047CE
S31508000180FEE7FEE7FEE7FEE7FEE7FEE7FEE7FEE739
S31508000190FEE7FEE704480549054A064B7047000096
S315080001A045040008D9000008301400203036002025
S315080001B0301600203016002040EA010310B59B07D0
S315080001C00FD1042A0DD310C808C9121F9C42F8D0B3
S315080001D020BA19BA884201D9012010BD4FF0FF3064
S315080001E010BD1AB1D30703D0521C07E0002010BD7A
S315080001F010F8013B11F8014B1B1B07D110F8013B06
S3150800020011F8014B1B1B01D1921EF1D1184610BDE6
S31508000210032A40F2308010F0030C00F0158011F824
S31508000220013BBCF1020F624498BF11F801CB00F8FC
S31508000230013B38BF11F8013BA2F1040298BF00F850
S3150800024001CB38BF00F8013B11F0030300F025800D
S31508000250083AC0F0088051F8043B083A51F804CB34
S31508000260A0E80810F5E7121D5CBF51F8043B40F8FA
S31508000270043BAFF30080D20724BF11F8013B11F805
S3150800028001CB48BF11F8012B24BF00F8013B00F849
S3150800029001CB48BF00F8012B704710B5203AC0F0D3
S315080002A00B80B1E81850A0E81850B1E81850A0E83B
S315080002B01850203ABFF4F5AF5FEA027C24BFB1E8D4
S315080002C01850A0E8185044BF18C918C0BDE8104017
S315080002D05FEA827C24BF51F8043B40F8043B08BF20
S315080002E07047D20728BF31F8023B48BF11F8012BE7
S315080002F028BF20F8023B48BF00F8012B704702F0E0
S31508000300FF0343EA032242EA024200F002B84FF032
S3150800031000020429C0F0128010F0030C00F01B80C4
S31508000320CCF1040CBCF1020F18BF00F8012BA8BFD2
S3150800033020F8022BA1EB0C0100F00DB85FEAC17C96
S3150800034024BF00F8012B00F8012B48BF00F8012B49
S3150800035070474FF0000200B513469446964620397A
S3150800036022BFA0E80C50A0E80C50B1F12001BFF460
S31508000370F7AF090728BFA0E80C5048BF0CC05DF8C6
S3150800038004EB890028BF40F8042B08BF704748BF14
S3150800039020F8022B11F0804F18BF00F8012B704788
S315080003A0704770477047754600F02CF8AE46050052
S315080003B06946534620F00700854618B020B5FFF772
S315080003C0E9FEBDE820404FF000064FF000074FF069
S315080003D000084FF0000BAC46ACE8C009ACE8C00911
S315080003E0ACE8C009ACE8C00921F007018D467047A2
S315080003F010B50446AFF300802046BDE81040FFF76D
S31508000400B4BE0000004870471800002001491820B3
S31508000410ABBEFEE72600020070470000FEE70000BC
S3150800042000F0F2BA00F06CBC70470000FEE700006E
S31508000430FEE70000704700007047000070470000A4
S3150800044004F03EBA4EF68850CEF20000026841F239
S31508000450000142F47002C4F2020102600A6842F026
S3150800046001020A600A689207FCD54A6822F003026C
S315080004704A6000BF4A6812F00C0FFBD10A684FF6B3
S31508000480FF73CFF6F2631A400A60002241F6107332
S315080004904A60CB620A634FF41F028A608A6E42F092
S315080004A001028A664FF0006140F8801C7047000020
S315080004B0FEE700004EF60C50BFF34F8FCEF2000059
S315080004C00168042201F4E061C0F2FA5211430160A6
S315080004D0BFF34F8F00BFFDE7002904BF0020704718
S315080004E0B0B548F2203E4FF0000C4FF0FF33CEF681
S315080004F0B85E00BF10F80C20534008221C468EEA4E
S315080005005303E50708BF6308013AF7D10CF1010C5C
S315080005108C45EFD1D843B0BD70B582B001680446AA
S31508000520406801F16041B1F5A04F45D8A0F10060DF
S3150800053046F6FF61A0F5A240C0F2010188423BD809
S3150800054046F20040656872B6C4F2000000F0B8FDD5
S315080005501920C0F21C000021002600F0DFFF4EF231
S315080005601000CEF200004FF0FF310660466086604C
S31508000570C0F87011C0F87411C0F87012C0F874127F
S3150800058001960198C0087C2808D800BF00BF0198CA
S31508000590013001900198B0F57A7FF7D34EF60850EE
S315080005A0CEF200000460206845F0010180F3088857
S315080005B002B0BDE87040084702B070BD01684AF64F
S315080005C0FF724068CDF6FF7211446FF4A042914263
S315080005D0A0F1006049F200124FF000034FF000014D
S315080005E0A0F5E030CFF6FE7238BF0121904238BF41
S315080005F0012341EA03004042704700002DE9F0411B
S315080006004CF20005C0F601050446286844F24D1868
S31508000610C4F6547848F220364045CEF6B85624D16A
S315080006206868012821D1D5F80CC100214FF0FF32A6
S315080006306B5C5A40082300BF104686EA5202C70779
S3150800064008BF4208013BF7D10131B1F5867FEFD1EA
S31508000650D043844509D14CF20001C0F60101204679
S315080006604FF48872FFF7D4FD4FE0D5F800084045EF
S315080006704FD14CF60400C0F601000168012948D1A3
S31508000680D0F808C100214FF0FF3200BF6B1893F86D
S3150800069000385A40082300BF174686EA5202F80770
S315080006A008BF7A08013BF7D10131B1F5867FEDD154
S315080006B0D04384452DD14CF60001C0F601012046F1
S315080006C04FF48872FFF7A4FD00204FF0FF3100BFFA
S315080006D0225C5140082200BF0B4686EA5101DF071B
S315080006E008BF5908013AF7D10130B0F5867FEFD136
S315080006F0C843C4F80C0105F50060214603F060F90B
S3150800070018B92846214603F05BF9002040B2BDE837
S31508000710F08120464FF48871FFF7F9FD012040F279
S315080007200031C4E900804FF47E40C0F20A012081FE
S315080007300020C4F816104FF0FF31C4F80A00C4F8B8
S315080007400E00C4F81200C4F81E00C4F81A0000BF50
S31508000750225C5140082200BF0B4686EA5101DF079A
S3150800076008BF5908013AF7D10130B0F5867FEFD1B5
S31508000770C843C4F80C0100204FF0FF31225C5140F9
S31508000780082200BF0B4686EA5101DF0708BF590851
S31508000790013AF7D10130B0F5867FEFD1C843C4F8E6
S315080007A00C0105F50060214603F00AF918B9284638
S315080007B0214603F005F9FF2040B2BDE8F0810000AC
S315080007C070B548F22032064600204FF0FF31CEF6CB
S315080007D0B85200BF335C5940082300BF0D4682EA71
S315080007E05101EC0708BF6908013BF7D10130B0F5A4
S315080007F0867FEFD14CF20005C0F60105C843C6F85E
S315080008000C0105F50060314603F0DAF810B1FF2057
S3150800081040B270BD2846314603F0D2F8002818BF0A
S315080008204FF0FF3040B270BD45F200020021C0F61D
S315080008300002012808BF02F53841002804BF45F226
S315080008400001C0F600010846704700000021022892
S3150800085038BF4FF43841084670470000704700001B
S3150800086044F60C40C0F600007047000070B588B02A
S315080008700446006844F25812C4F6547290422FD1C6
S315080008800D466168A5F580704A1E824230D204F58D
S3150800089080763046FFF720FEA168884230D1D4F82A
S315080008A0040120F00100B04232D3291988422FD220
S315080008B061686D4630462A4603F0F8FA44F60C405D
S315080008C004F10C02C0F60000294604F04FF801288E
S315080008D026D140F21221C2F200010020087026E05B
S315080008E040F21220C2F2000001210170FF201EE032
S315080008F040F21220C2F2000002210170FF2016E029
S3150800090040F21220C2F2000003210170FF200EE01F
S3150800091040F21220C2F2000004210170FF2006E016
S3150800092040F21220C2F2000006210170FF2040B2F8
S3150800093008B070BD043800228B18DB69043A93FAB4
S3150800094083FC12F1200340F804CFF5D1704700006C
S3150800095040F20141C0F20C0101604FF4017181803F
S315080009600621C0F20271C0F8061070470A780369BA
S31508000970013A62F3040303614A88436802F5FF7289
S3150800098062F3080343600A794368013A02F07F027A
S3150800099023F4FE0343EA024242604A784368013A76
S315080009A002F07F0223F0FE4343EA02624260CA88ED
S315080009B08368FE3262F3070383600A7A8368013A22
S315080009C002F07F0223F4FE0343EA024282604A7978
S315080009D08368013A02F07F0223F0FE4343EA02628B
S315080009E08260497A026922F47F4242EA0121016162
S315080009F070470000806A00F001007047816A41F084
S31508000A00010181627047000010B546F20044C4F245
S31508000A1000042046022100F0F3FA50B12046FFF701
S31508000A20E9FF10B12046FFF7E9FF2046022100F052
S31508000A30E5FA20464FF4807100F0E2FA20B120462C
S31508000A404FF4807100F0DAFA20464FF4007100F096
S31508000A50D7FA20B120464FF4007100F0CFFA2046AD
S31508000A604FF4806100F0CCFA002808BF10BD20467C
S31508000A704FF48061BDE8104000F0C0BAF0B599B0F7
S31508000A801124C0F2140420460121012700F046FD76
S31508000A9004F10810012100F041FD00200121002683
S31508000AA000F09CFC14AC204600F002FF4FF40060F6
S31508000AB0149002254FF090402146CDE91567CDE9FF
S31508000AC0175700F0FFFE4FF090400B21042200F06C
S31508000AD033FF204600F0ECFE4FF48050CDE91406B3
S31508000AE04FF090402146CDE91665189700F0EAFECA
S31508000AF04FF090400C21042200F01EFF03F030FB5B
S31508000B00002808BF03F02CFB46F20044C4F2000498
S31508000B10204600F0D5FA2046012100F063FB204666
S31508000B20002100F07DFA11AD2846FFF711FF40F2CB
S31508000B300A40C0F23F00119009208DF8480020466F
S31508000B402946FFF713FF01AD284600F0A7F920460E
S31508000B5000212A46CDE9027600F0D6F92046002182
S31508000B60012200F0B3F92046002100F03BFB2046A5
S31508000B708021012200F04AFA20460221012200F0D3
S31508000B8045FA1F200121002203F058F824200221EB
S31508000B90002203F053F841F22930C2F20000067031
S31508000BA041F22A30C2F20000067041F22830C2F241
S31508000BB00000067040F21420C2F20000066019B068
S31508000BC0F0BD00002DE9F04784B041F22835C2F2A5
S31508000BD000052878002843D041F228246E4641F2C1
S31508000BE02A37C2F2000440F2142906F10408C2F2B8
S31508000BF00007C2F2000904F1030A01E0287878B375
S31508000C0072B63878000120580090387804EB001046
S31508000C10007B8DF80C0070B1032051463A783318E2
S31508000C2001EB0212527801315A709DF80C20831E8E
S31508000C3001309342F2D33878013000F00F00387053
S31508000C4028780138287062B6D9F800000028D5D06F
S31508000C50D9F8003000989DF80C2041469847CDE712
S31508000C6004B0BDE8F087000010B500284FF0FF0378
S31508000C7018BF002901D158B210BD002AFBD041F295
S31508000C80283C72B6C2F2000C9CF8003073B341F2ED
S31508000C902A34C2F20004237841F2282E1B01C2F23C
S31508000CA0000E5EF80330036020780EEB0010007B20
S31508000CB0107068B10EF10302013900BF23780138BC
S31508000CC002EB03135B7802F1010201F8013FF5D14B
S31508000CD020780023013000F00F0020709CF80000F7
S31508000CE001388CF8000062B658B210BDFF2362B610
S31508000CF058B210BD40F21421C2F2000108607047D4
S31508000D0070B59CB046F20046C4F200063046802113
S31508000D1000F076F9002857D001AD3046294600F094
S31508000D20E5F9012849D141F2283CC2F2000C9CF8A9
S31508000D3000100F2941D841F22931C2F20001019B66
S31508000D400A78100141F22822C2F2000213509DF8D7
S31508000D5010000B7800F00F0002EB031318730878E5
S31508000D6002EB0010007B092804D30878082302EB5D
S31508000D7000100373087802EB0010007B98B105F1A8
S31508000D801B034FF0FF3500BF13F8010F0C7805EB76
S31508000D900414144460710878AC1C02EB0010007B44
S31508000DA001358442F0D30878013000F00F0008704E
S31508000DB09CF8000001308CF80000304600F004FA78
S31508000DC03046802100F01AF93046402100F018F923
S31508000DD018B13046402100F011F91CB070BD000072
S31508000DE0B0B59CB04FF0FF03B9B3082A35D80490C4
S31508000DF001200590002006908DF86C001A90079245
S31508000E001AB104A81830FFF703FA46F20044C4F2F0
S31508000E1000046946204600F0EFF9019D00214DB116
S31508000E20032D07D0204600F0E3F9032801D1FF235C
S31508000E3013E0012104AA204600F018FA01280BD174
S31508000E400421002D08BF10212046032D08BF1021BC
S31508000E5000F0E0F9002300E0FF2358B21CB0B0BD53
S31508000E60F0B585B0044603F005FD46F20046054692
S31508000E70C4F2000601AF00BF3046394600F0BCF99F
S31508000E800299002039B1032905D003F0F3FC401B71
S31508000E90A042F1D3FF2040B205B0F0BD0021017396
S31508000EA0C0E9001181604FF0FF320123C0E9041147
S31508000EB0C0E906110F21C0E90823836280F82C10C7
S31508000EC0C0E90C33C0E90E337047000072B150F820
S31508000ED0442F4FF48033D0F800C003FA01F14FF6DF
S31508000EE0FF739A430A431FFA8CF109E0012202FABA
S31508000EF001F150F8442FC943036802EA01419AB246
S31508000F001143016070470000436C61F303034364B7
S31508000F105168012908D059B9D2F800C00023C1F692
S31508000F20FC7303EA8C4302E0136823F0604383648E
S31508000F30C36C61F31043C3649168C36C61F31453C3
S31508000F40C364117BC36C61F30303C364D169C36CC7
S31508000F5061F31C73C3645169C36C61F39243C36440
S31508000F601169C36C61F35143C3649169C36C61F33E
S31508000F70DB634FF0FF31C36481655168012909D0ED
S31508000F8071B9136A4FF6FF7CCEF2030C816D4CEAF9
S31508000F90834303E0116A836D41F06041194081651E
S31508000FA04FF0FF3CC0F85CC0536AC16D63F3104153
S31508000FB0C165916AC36D61F31453C36592F82C1029
S31508000FC0C36D61F30303C365D16BC36D61F31C7312
S31508000FD0C365516BC36D61F39243C365116BC36DF2
S31508000FE061F35143C365916BC26D61F3DB62C26500
S31508000FF0C0F860C0C0F864C070470000416170471F
S315080010004069084018BF012070470000002AD0F840
S3150800101040210CBF22EA01011143C0F84011704774
S31508001020062988BF7047DFE801F00408101C2D3137
S315080010303900816A21F0400102E0816A41F04001ED
S315080010408162816A21F0004106E0816A41F040012F
S315080010508162816A41F000418162816A21F0200142
S315080010600AE0816A21F040018162816A21F000412B
S315080010708162816A41F020018162816A21F480419E
S3150800108081627047816A21F0400102E0816A41F07D
S3150800109040018162816A21F0004106E0816A41F0DF
S315080010A040018162816A41F000418162816A21F0D2
S315080010B020018162816A41F48041816270470000A3
S315080010C046F20041C4F20001884218BF704710B5C5
S315080010D01924C0F210042046012100F033FA2046F4
S315080010E00021BDE8104000F02DBA0000B0B5D0F8D8
S315080010F074C0836A13F0407F64D0D0F874E0CEF3EE
S3150800110000424A60046F5FEACE3224F0604358BF5B
S31508001110C4F38A430B60426FC2F300528A60426F7F
S31508001120C2F340420A61426FC2F380424A61426F8B
S31508001130C2F3C0628A61426FC2F302620A66426FF4
S31508001140C2F30072CA65436F0CF00F0203F00F0377
S31508001150CB60E2B144F61863C0F6000313F802C088
S3150800116001F11C0E00F17C02002300BF52F8044F67
S315080011700EEB03050EF8034014680433240A6C705A
S315080011805488DBB2AC70D4786345EC70EED3426F0A
S315080011904FF6FC73C0F82421D0F8282103EB9242BD
S315080011A092B200EB8202D2F880304B66D2F88820E1
S315080011B0A1F8682090F82B1041F0100180F82B1048
S315080011C00120B0BD0020B0BD816A11F0407F0FBF7D
S315080011D0002090F82B1041F0100180F82B1018BF52
S315080011E001207047826A61F3C71282627047000065
S315080011F0806AC0F301407047C2690A70C269C2F3C7
S3150800120002224A60C269120C0A72C069C0F30260FF
S31508001210C8607047826A920425D4022918BF042937
S315080012200ED1826A12F4403F1DD0826A92051AD402
S31508001230826A52055CBF826A5FEAC25213D409E029
S31508001240102910D1826AD2040DD4826A120544BFCD
S315080012500020704790F8292002F0E002114380F838
S3150800126029100120704700207047000070B5D36828
S31508001270012906D0D9B9856AED0444BF002070BD9E
S3150800128002E0856A6D0212D490F8295005F06005CF
S3150800129045EAC11580F829505568012D09D035B998
S315080012A015680024C1F6FC7404EA854504E00020AC
S315080012B070BD156825F06045C0F8CC50956DD0F81E
S315080012C0CC404FF0000C44EAC575C0F8CC50C0F8C5
S315080012D0D0C05568D0F8D04065F31044C0F8D04067
S315080012E09568D0F8D04065F31454C0F8D040D56856
S315080012F0D0F8D04065F30304C0F8D0405569D0F85B
S31508001300D04065F39244C0F8D0401569D0F8D04073
S3150800131065F35144C0F8D0408BB144F61865C0F661
S31508001320000515F803E002F1180300F1D8040025BA
S315080013305E590435EDB2754544F8046FF8D3C0F824
S31508001340D4C092F85C20D0F8D430012923F07F432A
S3150800135043EA0262C0F8D420C0F8D8C01CBF0120F6
S3150800136070BD90F82A1041F0400180F82A1001203B
S3150800137070BD000041F20401C4F202010A6860F37C
S3150800138007120A607047000041F20401C4F2020124
S315080013900A6860F30A220A607047000041F20401F5
S315080013A0C4F202010A6860F3CD220A6070470000A1
S315080013B041F25401C4F202010A6860F30E320A606F
S315080013C07047000041F25401C4F202010A6801287C
S315080013D022F0300208BF30320A607047002818BF72
S315080013E0704741F26800C4F20200026861F31962AC
S315080013F002607047042888BF7047DFE800F0030CD6
S31508001400151E270041F20000C4F20200026861F3CB
S3150800141000020260704741F20000C4F2020002684E
S3150800142061F310420260704741F20000C4F2020004
S31508001430026861F318620260704741F20000C4F264
S315080014400200026A61F300020262704741F200007C
S31508001450C4F20200426A61F3000242627047000069
S31508001460A0F51011183907290ED801290CD041F218
S315080014702400C4F20200016841F08071016000BFD7
S315080014800168C901FCD47047A0F50021072988BF67
S3150800149070470FF20E0000EB81024FF48030DFE850
S315080014A001F01305080B0E040411ECE74FF40030A5
S315080014B00AE04FF4802007E04FF4002004E04FF4E0
S315080014C0801001E04FF4000041F22401C4F2020149
S315080014D051F81C2C104341F81C0C704741F20002CD
S315080014E0010CC4F20202895800F01F0021FA00F02C
S315080014F000F001007047000041F200010020C4F22C
S31508001500020100BF0A68920304D4B0F5405F00F1F7
S315080015100100F7D30868C0F34040704741F2000263
S3150800152000F01F034FF0010CC4F2020201290CFA65
S3150800153003F14FEA1040835814BF23EA0101194307
S315080015408150704741F2000200F01F034FF0010C72
S31508001550C4F2020201290CFA03F14FEA104083583B
S3150800156014BF23EA010119438150704741F204026E
S31508001570C4F20202136858B143F480331360136847
S3150800158001280ED123F4003010604FF000700CE0F3
S3150800159023F480301060D06A40F00070D0620020DA
S315080015A003E043F4003010600020136861F39543AC
S315080015B013601368090961F35E731360916A21F079
S315080015C0E06108439062704741F20000C4F20200ED
S315080015D0016841F00101016001688907FCD541688D
S315080015E021F00301416000BF416811F00C0FFBD1E7
S315080015F001684FF6FF72CFF6F262114001600021D2
S3150800160041F610724160C26201634FF41F018160A6
S31508001610816E41F0010181667047000041F20401C4
S31508001620C4F202010A6860F301020A6000BF00BF43
S3150800163000BF00BF00BF00BF00BF00BF00BF00BFA4
S3150800164000BF00BF00BF00BF00BF00BF00BF00BF94
S3150800165000BF00BF7047000041F20400C4F2020058
S315080016600068C0F381007047F0B581B01824C0F255
S315080016702404601DFFF732FF0546A01DFFF72EFF65
S315080016800646201DFFF72AFF0746E01CFFF726FF40
S3150800169045EA0600002F18BF01270028204618BF74
S315080016A00227FFF7DDFE384601B0F0BD40F200051F
S315080016B0C2F2000501202870FFF7E0F943F6DD5075
S315080016C0C0F60000FFF716FB41F6A110C0F60000B1
S315080016D000F048F903F0CEF840F2AC1940F20426BF
S315080016E040F2840B40F2880840F29C04C2F20009DA
S315080016F0C2F20006002741F2883AC2F2000BC2F293
S315080017000008C2F20004C9F80000376003F0B8F810
S31508001710FFF758FA01F01AF803F0ACF83168411AE5
S31508001720B1F5FA7F02D3306002F036FE2878012838
S31508001730ECD003F09FF8D9F80010401A5045E5D3CD
S315080017400120287040F2FC10C2F20000077040F237
S315080017507C00C2F200000770A07AE17A8BF800706C
S315080017600843C8F80070D1D0204684F82170FFF7E6
S3150800177027F8CBE742F21000C4F20200016841F0F4
S31508001780800101607047000042F20C01C4F20201B8
S315080017904A6842F002024A608860486840F04000A1
S315080017A048600868C0070AD1086840070AD408686C
S315080017B0C0064FF0020058BF032008BB04E0002013
S315080017C0F0B901E00120D8B94FF080420868C00797
S315080017D00AD10868400709D40868C0064FF0020015
S315080017E058BF032003E000BF002000E00120A2F15B
S315080017F0010310B9012A1A46E8D1002B08BF0420B4
S315080018004A6822F002024A607047000042F2040069
S3150800181040F22311C4F20200C4F26751016048F68F
S31508001820AB11CCF6EF5101607047000042F20C0292
S31508001830C4F20202536843F0010353600160106862
S31508001840C0070AD1106840070AD41068C0064FF0CE
S31508001850020058BF032008BB04E00020F0B901E0ED
S315080018600120D8B94FF480111068C0070AD1106852
S31508001870400709D41068C0064FF0020058BF03207D
S3150800188003E000BF002000E00120A1F1010310B928
S3150800189001291946E8D1002B08BF0420516821F018
S315080018A0010151607047000081627047816170478D
S315080018B04FF6FF7100220123C0E90012C0E9022297
S315080018C003617047F0B50A88002A08BFF0BD0023F7
S315080018D04FF0030C4FF0010E002405E0520804F106
S315080018E0010403F1020326D0D507F7D005680CFAE0
S315080018F003F6B5430560CD6807689D403D4305601E
S3150800190045680EFA04F7BD4345604D684768A5402B
S315080019103D4345608568B54385600D6987689D4088
S315080019203D438560C568B543C5608D68C6689D40FA
S315080019303543C560D2E7F0BD10B51C2303EA810E16
S3150800194024234FF00F0C082938BF2023C4580CFA5B
S315080019500EF124EA0101C150C15802FA0EF21143F0
S31508001960C15010BD40F21821C2F20001002241F216
S315080019700C03CA5041F204030A60CA5019440A719A
S3150800198040F27801C2F20001086040F29900C2F202
S315080019900000027040F21120C2F200000270704787
S315080019A02DE9F04F8DB0002800F02A810E46002957
S315080019B000F02681044602F05DFF40F2AC11C2F247
S315080019C0000108602578A5F110002E2800F208818C
S315080019D0DFE810F02F00E8000601060106010601FF
S315080019E006010601060106010601060106010601B1
S315080019F006010601060106017A000601060106012E
S31508001A00060119010601060106010601060106017D
S31508001A102801060106019900060106015101060181
S31508001A209201D70106010601060106010601060113
S31508001A306E02012E40F23E82667806F07F04201F71
S31508001A4010F1040F40F27A82012C21D140F2FC10E9
S31508001A50C2F200000021017040F27C00C2F20000D0
S31508001A60017040F29C00C2F2000040F28402837AC0
S31508001A70C77AC2F20002117053EA070240F28802DE
S31508001A80C2F20002116003D080F82110FEF798FE1A
S31508001A9040F20000C2F200000178012918BF012CAB
S31508001AA007D0A14205D040F2FC11C2F20001002283
S31508001AB00A7071B20029047000F1A28050208DF8D6
S31508001AC00C008DF80D40A2E2022E40F2F3816178F7
S31508001AD0A07842F2121340EA0122D31A042B00F22C
S31508001AE04282DFE813F00500C003C903E503EF03EC
S31508001AF08DF80D1040F29C01C2F2000191F82110F8
S31508001B00622200F0E7BB40F20000C2F20000007853
S31508001B10022840F0C58140F2FC10C2F200000078AD
S31508001B20002800F0CF81032E40F2C48161786088D6
S31508001B30012940BA08BFB0F57F4F00F0D2830129CA
S31508001B4040F0CC854FF60171884240F0C78540F2D7
S31508001B500D36C1F6DA0678207F278DF80E0003A920
S31508001B60304603228DF80C708DF80D5000F0FEFEFD
S31508001B7040F2040040F20801C2F20000C2F200017D
S31508001B8000680968FEF772FE002800F0B584722026
S31508001B908DF80C708DF80D508DF80E0003A930469F
S31508001BA000F0B4BD012E40F28581617801F07F0016
S31508001BB0012840F0C38149B200290CD451218DF87F
S31508001BC00D0040F20D308DF80C10C1F6DA0003A9AD
S31508001BD0022200F0CBFE1420FFF742F9FEF76AFC5A
S31508001BE07F208DF80C0011208DF80E0040F20D3084
S31508001BF0C1F6DA0003A903228DF80D5000F0B6FEEF
S31508001C000DB0BDE8F08F40F20D38012EC1F6DA08A6
S31508001C1000F260817F208DF80C0013208DF80D509E
S31508001C2000F0E7BC40F20000C2F20000007802288B
S31508001C3040F0368140F2FC10C2F20000007800281D
S31508001C4000F04081032E40F235816078A17842F297
S31508001C50100341EA00229A4240F04085E278012AC0
S31508001C6040F03C856E228DF80C208DF80D008DF81D
S31508001C700E1000F046BD40F20000C2F200000078E7
S31508001C80022840F00D8140F2FC10C2F200000078F4
S31508001C90002800F0178140F28400C2F200000078A4
S31508001CA0002800F052810020032E4FF00001C0F0FA
S31508001CB0E584A178A1F1500212F1400FC0F0FA8034
S31508001CC001F00F02531F13F1040FC0F0F38002EB6B
S31508001CD011130333B34200F2ED80002A00F0C584E5
S31508001CE004EB11118B1C002113F8017F013A47EA16
S31508001CF00121F9D100F0BABC40F20000C2F200009E
S31508001D000078022840F0CC8040F27C07C2F2000737
S31508001D103878002800F0198140F2FC10C2F2000061
S31508001D200078002800F0CE80022E40F2C38040F2F0
S31508001D307D00C2F20000017863780131CAB28A4296
S31508001D4018BF01229342027040F0D68240F2800901
S31508001D50C2F2000940F29001D9F80000C2F200016F
S31508001D6040F20808023E0978C2F2000810FA86F026
S31508001D70D8F800200844904240F2CA830020387000
S31508001D80EAE040F20000C2F200000078022840F0C3
S31508001D90878040F27C00C2F200000178002900F03A
S31508001DA0DB8040F2FC11C2F200010978002900F03C
S31508001DB0898000210170FFF729FD40F29008C2F2E0
S31508001DC0000898F8001071B340F28C00C2F20000C7
S31508001DD00138CA004FF0FF310023FF2710F8014FE2
S31508001DE007FA03F6B14304FA03F608339A4241EABE
S31508001DF00601F3D140F29406C2F200063068FFF7F6
S31508001E0015FD032840F0738440F28002C2F20002F6
S31508001E1098F80000316813680144184410600020DF
S31508001E20316088F80000FFF7A5FC40F28000C2F296
S31508001E3000000068FF2840F25C8440F28801C2F284
S31508001E4000010968002918BF884240F0528440F210
S31508001E50840040F20D34C2F200000021C1F6DA0413
S31508001E60017078207F268DF80E0003A920460322EC
S31508001E708DF80C608DF80D5000F078FD40F20407DF
S31508001E8040F20801C2F20007C2F200013868096888
S31508001E90FEF7ECFC002800F0B1838DF80C60DCE35B
S31508001EA07F208DF80C008DF80D50222000F027BCFD
S31508001EB0012E3FD87F208DF80C0013208DF80D5089
S31508001EC000F01DBC7F208DF80C008DF80D503320D6
S31508001ED000F015BC6778032F00F0A080022F00F0F1
S31508001EE00681012F40F0FC8002F0C4FC40F2F51197
S31508001EF0C2F200010A78032A0BD340F2F812C2F2A2
S31508001F0000021268801AB0F1FF3F40F304820020F5
S31508001F10087040F2FC10C2F200000078012840F078
S31508001F205A8167208DF80C0000208DF80D70CDF8C9
S31508001F300E0094E1617811F07F005FD07F208DF864
S31508001F400C008DF80D501220D9E37F208DF80C0077
S31508001F508DF80D502420D2E37F208DF80C008DF8E3
S31508001F600D507120CBE34FF28013D21A152A00F2D6
S31508001F70B583DFE812F01600B303B303B303B30364
S31508001F80B303B303B303B303B303B303B303B30393
S31508001F90B303B303B303B303B303B3031600B30323
S31508001FA0160062228DF80E004FF020308DF80C20B6
S31508001FB08DF80D10CDF80F00CDF81300CDF81700E9
S31508001FC0CDF81B00CDF81F00CDF82300CDF827006B
S31508001FD0CDF82B0031214FF0FF3003AA0FF26473BE
S31508001FE0171839711918897801300428F8D140F280
S31508001FF00D30C1F6DA0003A9232288E349B2002985
S315080020003FF5FEAD7E218DF80C108DF80D0040F2DF
S315080020100D30C1F6DA0003A9022278E340F2012066
S31508002020C2F20000007801285AD140F20220C2F21A
S3150800203000000078012853D1022E7FF6EBAD94F804
S315080020400290B9F1010F11D140F2B010C2F20000AE
S315080020500021017040F2F410C2F20000017040F253
S31508002060B410C2F200004021FEF773F940F2B01036
S31508002070C2F200000178013101700178002904BF1D
S31508002080012101700078814540F0A08240F2F410E9
S31508002090C2F200000278F11E52FA81F2412A24BFE8
S315080020A00178C1F140010A060FD040F2B413C2F21A
S315080020B00003CAB2013BA61C16F8015F0478013A70
S315080020C01C4403F101036570F6D1027811440170CE
S315080020D067208DF80C008DF80D708DF80E908AE249
S315080020E07F208DF80C008DF80D50122081E240F209
S315080020F00129C2F2000999F80000012864D140F2CA
S315080021000220C2F20000007801285DD140F2F41ADC
S31508002110C2F2000A9AF80000422E11D340280FD0C6
S3150800212040F2B410C2F200000138611C402211F8D6
S31508002130013F013A00F8013FF9D140208AF8000032
S315080021409AF80000402840F0E0807F208DF80C00C7
S3150800215078208DF80E0003A9404603228DF80D500D
S3150800216000F004FCFEF77CFB002800F0DB80044648
S3150800217040F2FD1003AEC2F200000421324601F01F
S3150800218095FE40F2B412C2F200022046314602F031
S31508002190EDFB012840F0C68040F2FC10C2F20000B8
S315080021A00121017040F2F510C2F200000021017011
S315080021B0672089F800108AF800108DF80C008DF851
S315080021C00D7003A9404627E77F208DF80C008DF88F
S315080021D00D5024200DE202F04DFB40F20C01C2F234
S315080021E000010A6801254240530D83EAD273534021
S315080021F083EA5203DB0743EA5202C30183EA5030FB
S31508002200504040F2FD120860010EC2F20002030CB3
S31508002210060A117053709670D07040F20122C2F20D
S315080022200002157040F20222C2F20002177040F254
S31508002230F412C2F200020025157040F2B012C2F282
S315080022400002157067228DF80C208DF80D708DF838
S315080022500E108DF80F308DF810608DF8110003A957
S315080022604046062253E28DF80D1040F29C01C2F258
S3150800227000016222097A2DE08DF80E0040F28400F2
S31508002280C2F2000062228DF80D10007840F291012A
S315080022908DF80C20C2F2000140F29C02C2F2000244
S315080022A0002808BF02F1090108788DF80F000EE230
S315080022B08DF80D1040F29C01C2F20001622291F8DD
S315080022C0201007E08DF80D1040F29C01C2F20001C3
S315080022D06222C9698DF80C208DF80E008DF80F1052
S315080022E0F5E140F29C02C2F20002907A117A0028C7
S315080022F03ED0E9BB012649E0002038707F208DF8E2
S315080023000C008DF80D507320F9E1002089F80000C3
S315080023108AF800007EE47F208DF80C008DF80D50B9
S31508002320372066E140F2F512C2F2000240F2FC10D4
S315080023301378C2F2000000210170581CC3B2032BA7
S31508002340107089F800108AF80010C0F04C8102F06D
S3150800235091FA47F23051084440F2F811C2F20001EE
S3150800236008607F208DF80C008DF80D50362040E16E
S31508002370D27A002818BF0120B2FA82F201394FEA50
S31508002380521218BF0121114301EA000640F2910BCF
S3150800239045F20009C2F2000B3046C0F600098BF878
S315080023A00060FEF741FA40F2040AC2F2000ACAF8CF
S315080023B000003046FEF74AFADAF8002040F2080133
S315080023C0C2F2000108603AB900208BF800004FF409
S315080023D03840CAF80090086040F20D307821C1F6FE
S315080023E0DA004FF07F088DF80E1003A903228DF846
S315080023F00C808DF80D5000F0B9FA9BF8007038463D
S31508002400FEF712FA06463846FEF720FA4E45C0F0A1
S315080024108C81002800F0898109F5C8318E424FF079
S31508002420000100EB060709F5C0304FF0000238BF7F
S315080024300121874288BF0122114240F0768109F5C1
S315080024406C30874200F27181FFF7E0F9BE4209D28B
S315080024503046FFF799F9032840F0658106F50066CE
S31508002460BE42F5D3FFF786F940F28400C2F20000B7
S31508002470012101709BF8000040F29C02C2F20002A2
S31508002480002850724FF0000082F8211014BFD07255
S31508002490907240F29C0040F20D35C2F20000C1F67F
S315080024A0DA05FEF78DF9DAF8000040F29401C2F277
S315080024B00001086040F28000C2F2000000210160BD
S315080024C040F27D00C2F20000017040F29000C2F2B4
S315080024D00000017040F27C00C2F200000121017088
S315080024E071208DF80C00607861888DF80D00ADF8C4
S315080024F00E1003A92846EFE071208DF80C006078CD
S3150800250061888DF80D00ADF80E1003A93046E3E09A
S315080025100193FFF77BF940F29003C2F200033004FF
S315080025204DD0D8F8000040F28C0B40F294080234E3
S31508002530C2F2000BC2F200084FF0000A02901978A6
S315080025400020042938BF0120032914D81FFA8AF06D
S31508002550205C03290BF801004FF000000AF1010A7C
S3150800256038BF0120022901F10101A6F1010601D8AF
S315080025703204EBD1197010BBD9F800000299043067
S31508002580884200F2B280DBF80010D8F80000FFF7A6
S315080025904DF9032840F0A980D8F80000D9F80010B2
S315080025A00430C8F80000081DC9F80000300440F2DD
S315080025B09003C2F200034FF000001870BFD1FFF776
S315080025C0D9F876208DF80C0001981EE540F2F41033
S315080025D0C2F20000002101707F208DF80C008DF8F2
S315080025E00D50712005E07F208DF80C008DF80D50F8
S315080025F035208DF80E0003A9404687E03868FEF7B7
S315080026002DF940F29101C2F200010978826840F280
S315080026109C0001230029C2F2000019BFC37200F111
S315080026201003837200F10C031A6001230375C37D3E
S31508002630002280F8212041724175002B827504BF63
S315080026400321C17540F29C00C2F20000FEF7B8F8FB
S31508002650002861D07F208DF80C0072208DF80D506F
S315080026608DF80E0003A9204650E00021B1B340F2D0
S315080026700802C2F20002126891422FD840F288027C
S31508002680C2F20002116040F20401C2F200010968B8
S3150800269040F29402C2F20002116040F28001C2F2D6
S315080026A00001086040F27D01C2F20001087040F2A4
S315080026B09001C2F20001087040F27C00C2F20000EC
S315080026C00121017042F27400C0F20100039040F249
S315080026D00D30C1F6DA0003A9042218E07F208DF830
S315080026E00C008DF80D50312009E000203870FFF7F6
S315080026F041F87F208DF80C008DF80D5072208DF86A
S315080027000E0040F20D30C1F6DA0003A9032200F0EC
S315080027102DF90DB0BDE8F08F77208DF80C0003A9D0
S3150800272020460122F3E7FFF725F872208DF80E0000
S3150800273040F20D308DF80C808DF80D5003A9C1F6C6
S31508002740DA00E3E7312E302E3000000010B540F2F3
S315080027501824C2F200042068012818BF10BD02F030
S3150800276089F841F20C016158401AB0F57A7F24BF06
S315080027700020206010BD00002DE9F04182B000283D
S3150800278000F0EC800D46002900F0E8800446007849
S315080027900109032900F2E280DFE801F0021B76C195
S315080027A000F00F01681E4A1EC0B2D2B2824280F003
S315080027B0D58040F27802C2F20002126840F2182070
S315080027C0C2F200000023002A036000F0C780601CE4
S315080027D0A1E0022DC0F0C280617800F00F0041EA46
S315080027E00026082EC0F0BA8040F21827C2F2000769
S315080027F041F204003E5241F206000021395241F2EC
S3150800280008004FF0010807F80080C7F8008002F0BA
S3150800281031F841F20C01032D785012D3A81E80B26C
S31508002820B04238BF06464EB1F81C611C324600BF9E
S3150800283011F8013F013A00F8013FF9D141F20600CB
S315080028403E523020ADF800004FF0CC30CDF80300F2
S315080028506FF033008DF802808DF8070002F00AF851
S3150800286040F20D350446C1F6DA056E4602F002F866
S31508002870001BC0087C2871D8284631460822FEF776
S31508002880AFFA0028F2D169E040F21826C2F2000633
S315080028903168012962D141F20801715C00F00F002C
S315080028A088425ED101F0E6FF41F2040C41F20602CD
S315080028B036F80C70B15A6B1E791A9FB2B94241F2BA
S315080028C00C07B8BF0B461904F0510CD098B2F71C88
S315080028D0651E00BFB15AAC7839440137013805F195
S315080028E001054C70F6D1B05A1844B05241F20802AC
S315080028F0B15C80B24B1C36F80C1003F00F0388420B
S31508002900B3542BD340F27800C2F2000002680020CC
S3150800291030601AB3301D02B0BDE8F041104740F2EE
S315080029209A0100F00F00C2F20001087040F2980107
S31508002930C2F20001022D2CBF60780020087040F218
S315080029409B01032D2CBFA0780020C2F2000108705D
S3150800295040F29900C2F200000121017002B0BDE800
S31508002960F0810020306002B0BDE8F0812DE9F04F1B
S3150800297087B000294FF0FF0573D00446A2F58050B2
S3150800298080B29246B0F5704F6BD98B46BAF1070FF5
S315080029902DD8BAF1000F8DF814A005D005A801307E
S315080029A059465246FDF734FC0AF1010081B207295F
S315080029B00AD805A911FA80F0CAF10601012212FA0D
S315080029C081F1CC22FDF79BFC01F054FF054605AECC
S315080029D001F050FF401BC0087C283DD820463146F0
S315080029E00822FEF7FDF90028F2D1002539E04FEA62
S315080029F01A20012161F31F108DF81400DBF800007E
S31508002A00BBF804108DF815A0CDF81600ADF81A100D
S31508002A1001F030FF06460DF1140800BF01F02AFF49
S31508002A20801BC5087C2D19D8204641460822FEF78A
S31508002A30D7F90028F2D17C2D12D800208DF8130082
S31508002A4001208DF812000DF113000DF1120100F0AE
S31508002A509FF850B1FF2504E0FF2502E0FF2500E0BE
S31508002A60FF2568B207B0BDE8F08F08F101000190B4
S31508002A70002003904FF006090120029005E000208F
S31508002A80B94600284FF0FF05EBD01FFA89F55545E2
S31508002A9067D29DF8130078B10399C9B281420BD366
S31508002AA00DF113000DF1120100F072F800284FF035
S31508002AB00000E6D1002003909DF912000127B0F12D
S31508002AC0FF3FC8BFC7B201F0D5FE37B1064600BF03
S31508002AD001F0D0FE801BB842FAD3AAEB09000726FC
S31508002AE010F0F80F08BFC6B20298022161F31F1052
S31508002AF08DF814002EB101980BEB05013246FDF74F
S31508002B0087FB701CC1B24F46072909D8C6F10601D2
S31508002B10012258FA80F052FA81F1CC22FDF7EFFB38
S31508002B2001F0A8FE814600BF01F0A4FEA0EB090053
S31508002B30C5087C2DA3D8204641460822FEF750F941
S31508002B400028F1D17C2D9AD80298B946013000F0B8
S31508002B500F000290039806EB070901300390012045
S31508002B608FE740F21120C2F2000001780025012902
S31508002B707FF477AF40F21021C2F2000109780570A0
S31508002B8040F20820C2F20000FFF7F6FD69E70000F0
S31508002B902DE9F04F87B00C46054601F06BFE40F272
S31508002BA099070646C2F200070020387001F062FE57
S31508002BB0801BC0087C2857D840F2112940F2102AF9
S31508002BC0CDE901540DF1180B04AC0DF10F05C2F255
S31508002BD00009C2F2000A4FF0010809E02046114632
S31508002BE0FFF7CAFD01F046FE801BB0F57A7F3DD29D
S31508002BF0387818BB584621462A46FEF735F8002885
S31508002C00F0D19DF80F202AB19DF8100000F0F000D1
S31508002C103028E3D099F800000028E3D1082A28BF15
S31508002C2008228AF8002032B140F20820C2F20000D9
S31508002C302146FDF732FB89F80080D3E7002038707B
S31508002C4040F29A00C2F200000078022813D0A0B120
S31508002C5001F010FE064601F00DFE801BB0F57A7FE6
S31508002C604FF0FF00C4D302E0FF2000E0FF2040B28F
S31508002C7007B0BDE8F08FFF20F9E740F29800C2F2EE
S31508002C80000000780199087040F29B00C2F200002B
S31508002C900078029908700020E9E700002DE9F04F56
S31508002CA0F3B016460F46824601F140050020102172
S31508002CB057F821200131182940EA0200F8D10028E6
S31508002CC000F0038206F140040020102156F8212066
S31508002CD00131182940EA0200F8D1002800F0F881ED
S31508002CE044F6F85944F6B858C0F60009C0F6000884
S31508002CF06BA829462A464B46CDF8008000F08CFE84
S31508002D000DF5C67B5846214622464B46CDF800802F
S31508002D1000F082FE5BA86BA92A464B460295CDF8C1
S31508002D200080454600F078FE53A8594622464B4691
S31508002D300194CDF8008000F06FFE0DF596784046B8
S31508002D4039465A464B46009500F066FE0DF5867BD9
S31508002D5007F12001584653AA4B464C46009500F009
S31508002D605BFE0DF1EC09484631466BAA23460095F1
S31508002D7000F052FE06F1200133AE30465BAA234628
S31508002D80009500F049FE00222BA8002159F82130B1
S31508002D9058F821409B1842F100021C1B62F10003FF
S31508002DA040F82140013108294FEAE372EED144F692
S31508002DB0B859B3F1FF3FC0F6000915DC002100221F
S31508002DC0002300BF50F8214059F82150121943F149
S31508002DD00003AD1840F8215001F1010143F100024A
S31508002DE008294FF00003EDD1002313A9002200BFE4
S31508002DF056F822505BF82240ED1843F100032D1BCC
S31508002E0063F1000441F822500132082A4FEAE473BC
S31508002E10EED1B4F1FF3F15DC00220023002600BFE7
S31508002E2051F8225059F822405B1946F100061D193F
S31508002E3041F8225002F1010246F10003082A4FF038
S31508002E400006EDD10022002350F822600132082A3C
S31508002E5043EA0603F8D1002B00F0428144F6F858FD
S31508002E60C0F6000823AE2BAF304639463A464346ED
S31508002E70CDF8009000F0D0FD1BAD284631463A4605
S31508002E804346CDF8009000F0C7FD0BAF4BA9384676
S31508002E9032464346CDF8009000F0BEFD03AE13A9B6
S31508002EA030460A464346CDF8009000F0B5FD0021AD
S31508002EB0002000BF56F8202055F82030521841F15E
S31508002EC00001D31A61F1000246F8203001300828C3
S31508002ED04FEAE271EED1DDE90184B2F1FF3F15DC7C
S31508002EE000200021002200BF56F8203059F8205053
S31508002EF0C91842F100024B1946F8203000F10100CA
S31508002F0042F1000108284FF00002EDD1002100200F
S31508002F1056F8202057F82030521841F10001D31AEC
S31508002F2061F1000246F82030013008284FEAE271C4
S31508002F30EED1B2F1FF3F15DC00200021002200BFD0
S31508002F4056F8203059F82050C91842F100024B199A
S31508002F5046F8203000F1010042F1000108284FF040
S31508002F600002EDD10021002056F8202057F8203025
S31508002F70521841F10001D31A61F100024AF82030D3
S31508002F80013008284FEAE271EED1B2F1FF3F15DCB5
S31508002F9000200021002200BF5AF8203059F820509E
S31508002FA0C91842F100024B194AF8203000F1010015
S31508002FB042F1000108284FF00002EDD1002100205F
S31508002FC057F820205AF82030521841F10001D31A38
S31508002FD061F1000247F82030013008284FEAE27113
S31508002FE0EED1B2F1FF3F15DC00200021002200BF20
S31508002FF057F8203059F82050C91842F100024B19E9
S3150800300047F8203000F1010042F1000108284FF08E
S315080030100002EDD144F6F855C0F6000513A9384666
S315080030203A462B46CDF8009000F0F6FC43A91BAAB9
S3150800303030462B46CDF8009000F0EEFC0AF1200051
S315080030400022002157F8213056F821509B1842F1EA
S3150800305000025D1B62F1000340F821500131082986
S315080030604FEAE372EED1B3F1FF3F15DC00210022EF
S31508003070002300BF50F8217059F82160D21943F196
S315080030800003971940F8217001F1010143F100028C
S3150800309008294FF00003EDD144F6F855C0F60005AF
S315080030A00BAE3046214642462B46CDF8009000F03E
S315080030B0B3FC0AF140002BAA31462B46CDF8009006
S315080030C000F0AAFC73B0BDE8F08F5046314601E027
S315080030D0504639466022FDF7E0F873B0BDE8F08F38
S315080030E00020002251F820300130082842EA030265
S315080030F0F8D150462AB16021FDF72BF973B0BDE827
S31508003100F08F394673B0BDE8F04F00F001B8000003
S315080031102DE9F04FBBB00C46824601F1400700206E
S31508003120102100BF54F821200131182940EA020075
S31508003130F8D1002800F01E8304F12001002008239E
S3150800314054F823200133102B40EA0200F8D1002856
S3150800315000F0108344F6F85544F6B858C0F6000552
S3150800316033AEC0F6000830460A462B460191CDF824
S31508003170008000F051FC0DF1AC0B584639463A4632
S315080031802B46CDF8008000F047FC0DF18C09484627
S31508003190214632462B46CDF8008000F03DFC002043
S315080031A00021002259F82030DE0F11EB430349F8BD
S315080031B0203000F1010046EB020108284FF000021A
S315080031C0F0D159B9072000BF59F8201058F8202027
S315080031D0914203D815D30138411CF5D100210020AE
S315080031E059F8202058F82030521841F10001D21A17
S315080031F061F1000149F82020013008284FEAE17101
S31508003200EED100200021002259F82030DE0F11EB04
S31508003210430349F8203000F1010046EB0201082873
S315080032204FF00002F0D159B9072000BF59F8201015
S3150800323058F82020914203D815D30138411CF5D1FE
S315080032400021002059F8202058F82030521841F162
S315080032500001D21A61F1000149F82020013008283E
S315080032604FEAE171EED144F6F8531BAE33A9C0F626
S31508003270000330460A46CDF8008000F0CDFB00205A
S315080032800021002256F82030DD0F11EB430346F8E3
S31508003290203000F1010045EB020108284FF000023A
S315080032A0F0D159B9072000BF56F8201058F8202049
S315080032B0914203D815D30138411CF5D100210020CD
S315080032C056F8202058F82030521841F10001D21A39
S315080032D061F1000146F82020013008284FEAE17123
S315080032E0EED100200021002256F82030DD0F11EB28
S315080032F0430346F8203000F1010045EB0201082897
S315080033004FF00002F0D159B9072000BF56F8201037
S3150800331058F82020914203D815D30138411CF5D11D
S315080033200021002056F8202058F82030521841F184
S315080033300001D21A61F1000146F820200130082860
S315080033404FEAE171EED100200021002256F8203024
S31508003350DD0F11EB430346F8203000F1010045EB81
S31508003360020108284FF00002F0D159B9072000BF22
S3150800337056F8201058F82020914203D815D3013862
S31508003380411CF5D10021002056F8202058F820309D
S31508003390521841F10001D21A61F1000146F82020C5
S315080033A0013008284FEAE171EED100200BAD00216B
S315080033B00022029754F820305BF82070C91842F1B1
S315080033C00002CB1945F8203000F1010042F1000156
S315080033D008284FF00002EDD151B9072055F8201002
S315080033E058F82020914203D815D30138411CF5D14D
S315080033F00021002055F8202058F82030521841F1B5
S315080034000001D21A61F1000145F820200130082890
S315080034104FEAE171EED1002203A8002154F82130C9
S315080034205BF821709B1842F10002DF1B62F1000372
S3150800343040F82170013108294FEAE372EED1B3F161
S31508003440FF3F15DC00210022002300BF50F8217041
S3150800345058F82140D21943F10003171940F8217092
S3150800346001F1010143F1000208294FF00003EDD1F3
S3150800347044F6F85313ACC0F6000303AA20462946BF
S31508003480CDF8008000F0C8FA00200021002200BF15
S3150800349054F82030DF0F11EB430345F8203000F1D4
S315080034A0010047EB020108284FF00002F0D159B994
S315080034B0072000BF55F8201058F82020914203D85D
S315080034C015D30138411CF5D10021002055F82020DC
S315080034D058F82030521841F10001D21A61F1000162
S315080034E045F82020013008284FEAE171EED1002086
S315080034F00021002255F8203054F82070C91842F1EE
S315080035000002CB1944F8203000F1010042F1000115
S3150800351008284FF00002EDD151B9072054F82010C1
S3150800352058F82020914203D815D30138411CF5D10B
S315080035300021002054F8202058F82030521841F174
S315080035400001D21A61F1000144F820200130082850
S315080035504FEAE171EED144F6F85313A9C0F6000319
S3150800356028460A46CDF8008000F056FA00210020C9
S3150800357055F8202059F82030521841F10001D31A85
S3150800358061F1000245F82030013008284FEAE2715F
S31508003590EED1B2F1FF3F15DC00200021002200BF6A
S315080035A055F8203058F82070C91842F10002CB1996
S315080035B045F8203000F1010042F1000108284FF0DB
S315080035C00002EDD10021002055F8202059F82030BE
S315080035D0521841F10001D31A61F100024AF820306D
S315080035E0013008284FEAE271EED1B2F1FF3F15DC4F
S315080035F000200021002200BF5AF8203058F8207019
S31508003600C91842F10002CB194AF8203000F101002E
S3150800361042F1000108284FF00002EDD100210020F8
S3150800362059F820205AF82030521841F10001D31ACF
S3150800363061F1000245F82030013008284FEAE271AE
S31508003640EED1B2F1FF3F15DC00200021002200BFB9
S3150800365055F8203058F82070C91842F10002CB19E5
S3150800366045F8203000F1010042F1000108284FF02A
S315080036700002EDD144F6F853C0F6000313A9284614
S315080036802A46CDF8008000F0C7F90AF1200000228A
S31508003690002100BF55F8213056F821709B1842F1D9
S315080036A00002DF1B62F1000340F82170013108298E
S315080036B04FEAE372EED1B3F1FF3F15DC0021002299
S315080036C0002300BF50F8217058F82160D21943F141
S315080036D00003971940F8217001F1010143F1000236
S315080036E008294FF00003EDD144F6F853DDE901123D
S315080036F0C0F600032846CDF8008000F08DF90AF1DF
S31508003700400000210022002355F82170FE0F12EB1D
S31508003710470740F8217001F1010146EB0302082929
S315080037204FF00003F0D17AB90AF15C01002200BF1C
S3150800373008EB820751F82230FF69BB4204D816D33A
S31508003740013A12F10803F3D10022002150F8213082
S3150800375058F821709B1842F10002DB1B62F1000247
S3150800376040F82130013108294FEAE272EED13BB028
S31508003770BDE8F08F50466021FCF7EBFD3BB0BDE895
S31508003780F08F00002DE9F04F9BB0934602F14004FC
S31508003790002710225BF822300132182A47EA03076D
S315080037A0F8D1002F00F08280CDE9010194E88E005F
S315080037B0D4E90465D4E906C00DF14C0E8EE88E00F6
S315080037C0CDE9176544F6B85644F6F857CDE919C059
S315080037D04FF0000A0120C0F60006C0F6000713AC39
S315080037E00BADCDE911AACDE90FAACDE90DAACDE910
S315080037F00BAA0B9005E000BF0AF1010ABAF1080FFF
S315080038001ED034A050F82A904FF000080CE000BFF4
S315080038102046214622463B46009600F0FDF808F170
S315080038200108B8F1200FE7D029FA08F0C007EFD051
S315080038302846294622463B46009600F0EDF8E7E77B
S315080038400BAB0FCB0DF10C0C8CE80F00DDE90F016B
S3150800385044F6F854CDE90701DDE91101C0F6000484
S3150800386013AD03AFCDE90901284639463A46234642
S31508003870009600F0D1F80DF12C0A504629463A4632
S315080038802346009600F0C8F8019859462A4623466A
S31508003890009600F0C1F802980BF120015246234623
S315080038A0009600F0B9F81BB0BDE8F08F0022C0E919
S315080038B00022C0E90222C0E90422C0E90622C1E9C1
S315080038C00022C1E90222C1E90422C1E906221BB08D
S315080038D0BDE8F08FFDFFFFFFFFFFFFFFFFFFFFFFC4
S315080038E000000000000000000000000001000000C9
S315080038F0FFFFFFFF82B000F0C1FE032000F0D8F9F9
S3150800390000F080FF40F29C04C2F200042046FCF757
S3150800391075FEFDF7A9FE94F8211084F82000012908
S3150800392008BFFDF7C3FE40F29C04C2F2000420461D
S3150800393000F016FA0DF10701204600F065FA002896
S3150800394018BFFDF7B3FE9DF8070040F29C01C2F2CE
S31508003950000100F0DBFF38B99DF80700FCF764FFAB
S3150800396000F58070FCF7D8FD9DF8070040F29C052D
S31508003970B0FA80F04409C2F200052046294600F054
S31508003980C5FFC0B9287D02280AD1FE216972E969F6
S3150800399000202875A875481CE861042085F82000D1
S315080039A028462C72FCF70CFF2046FCF73DFF00F575
S315080039B08070FCF7B1FDFDF779FE00BF00BFFDE79B
S315080039C070B50C460546FDF721FF2846FDF7DCFED7
S315080039D0032817D1002600BFA159A819FDF726FF0D
S315080039E0032811D10436B6F5887FF5D1002000BF2B
S315080039F029582258914209D10430B0F5887FF7D169
S31508003A00002404E0FF2402E0FF2400E0FF24FDF781
S31508003A10B1FE60B270BD00002DE9F04FBBB00DF1EC
S31508003A20480B0D468046584644219A469146FCF76F
S31508003A3090FC2BAC20464021FCF78BFCA6464FF0A9
S31508003A40000C214655F82C3000220020002600BF25
S31508003A5051F8264059F82670A41840F10002E7FBF1
S31508003A60034241F826400136082E4FF00000EFD1F8
S31508003A700EEB8C000CF1010CBCF1080F01F10401EE
S31508003A800262DFD12BAB0FCB0DF1480C8CE80F008F
S31508003A90DDE92F0133AFCDE91601DDE931010DF17D
S31508003AA0680CCDE91801CFCF0BF120098CE8CF00BF
S31508003AB0DDE939100023CDE920100EF120000DF1C3
S31508003AC08C0C0090082000215BF82020013011287A
S31508003AD041EA0201F8D1002900F07F80019399E8B4
S31508003AE08F00D9F814607446239028A86546D9F83B
S31508003AF018C0D9F81CE0249180E84050204640219F
S31508003B00259226932797FCF724FCAC46A646002068
S31508003B10214600BF5CF8203000220027002600BF9F
S31508003B2051F826405AF82650A41847F10002E5FB3A
S31508003B30034241F826400136082E4FF00007EFD120
S31508003B400EEB80030130082801F104011A62E1D165
S31508003B502BAB0FCB0AAC0FC4DDE92F01009CCDE9D6
S31508003B600E01DDE93101D4E90565CDE9100194E8D6
S31508003B708F00E469049203910290099400200021C1
S31508003B8000220AAC06970593CDE907655BF8223053
S31508003B9054F82270C01841F10001C3194BF82230BD
S31508003BA002F1010241F10000082A4FF00001EDD1AF
S31508003BB0002202AC54F822301B1849F8223002F1D0
S31508003BC0010241F10000082A4FF00001F2D1019BE1
S31508003BD022900133102B7FF475AF12AF8FCFDDE93A
S31508003BE01765199C88E88F00449F0720C8E9056572
S31508003BF0C8F81C4058F8201057F82020914204D8DD
S31508003C0019D30028A0F10100F4D10021002000BF3B
S31508003C1058F8202057F82030521841F10001D21ADE
S31508003C2061F1000148F82020013008284FEAE171C7
S31508003C30EED10720DEE73BB0BDE8F08FB0B54EF613
S31508003C400C5ECEF2000EDEF800304FF0FF35C3F3FF
S31508003C50022383F00704042C28BF0424033B05FA37
S31508003C6004F438BF0023A143994005FA03F39A43A5
S31508003C7000F00F03043B4EF2001C7344CEF2000C16
S31508003C8011430C33B0F1FF3F4FEA011100EB0C0270
S31508003C90C8BF02F540730028197048BFB0BD00F0D0
S31508003CA01F01012202FA01F140094CF82010B0BDAB
S31508003CB04EF60C51CEF200010A684FF6FF031A4081
S31508003CC060F30A2242F0806040F0FD700860704799
S31508003CD02DE9F04FB1B019AF8B46009038466021F8
S31508003CE09146FCF736FB4FF000084FF0070A01AC87
S31508003CF005E000BFBAF1000FAAF1010A28D059F869
S31508003D002A501F2609E000BF38466022FCF7C5FA8C
S31508003D104FF00108013E701CECD0B8F1000F08D036
S31508003D2020463946FFF7F4F9384621466022FCF763
S31508003D30B4FA25FA06F0C007ECD0B8F1000F5946D8
S31508003D40E2D0204639465A46FEF7A8FF2146DBE769
S31508003D50009819A96022FCF7A0FA31B0BDE8F08FE7
S31508003D60017D032904D8DFE801F002071132704704
S31508003D7000210175FCF724BD827D02210175511CC5
S31508003D808175032180F82010FCF71ABD817DC27D5C
S31508003D900131CBB29342817598BFFCF711BDC16959
S31508003DA0FE220131C161002101758175417D427292
S31508003DB00422002980F820200CBFC27A827A002AC1
S31508003DC0D8D0B1FA81F149090172FCF7F9BC002192
S31508003DD0FE22017542728175FCF7F2BC40F6035368
S31508003DE0C1F6DA0398420BD04FF60073C1F6FF739B
S31508003DF0184043F20033C1F6DB03984218BF7047F8
S31508003E0008461146FEF7B8BC027D013A022A4FF071
S31508003E10080238BF1522805C01288EBFFF20087073
S31508003E20002040B2704700002DE9F0410446D0E971
S31508003E300878806E04F12805421CA26680222A545E
S31508003E40A26E0E46392A0BD3A0182830C2F14001BB
S31508003E50FCF75DFA2046294600F076F80020A066B1
S31508003E60A16E60182830C1F13801FCF750FA38BA4B
S31508003E7098FA88F1C4E918102046294600F064F833
S31508003E80F01E002104EB8102D378C370528800F833
S31508003E90042F54F82120120A427054F821200131C7
S31508003EA008298270EED1BDE8F0810000F0B59DB01A
S31508003EB006464EF26760C6F6092000904AF6856007
S31508003EC0CBF6673001904FF27230C3F66E4002901F
S31508003ED04FF23A50CAF24F50039045F27F20C5F28E
S31508003EE00E10049046F68C00C9F6053005904DF67E
S31508003EF0AB10C1F6837006904CF61950C5F6E03043
S31508003F000D460790002014461A90C800490F402D08
S31508003F100991089009D36F463846314600F014F8DF
S31508003F20403D3F2D06F14006F6D835B168462830A3
S31508003F3031462A46FCF76CF91A9568462146FFF77A
S31508003F4073FF1DB0F0BD00002DE9F04FC9B004465F
S31508003F50C81E002209A900BFD0F8033004301BBAD6
S31508003F6041F822300132102AF6D100228818876BD0
S31508003F7043684FEA7745466A85EAF74585EA97270B
S31508003F8037444FEAF3168D5886EAB34686EAD303D2
S31508003F902F4404323B44C02A0364E7D1D4E900978E
S31508003FA0E5694846D4E9053C38462846604604F1A2
S31508003FB0080B18469BE840095846089400223C46D8
S31508003FC04046CDF81C9006970095CDF804C002939C
S31508003FD0CDF80CB0CDF810803046059618464FEA55
S31508003FE0BB13DE4683EAFB2383EA7B6B00EA0E01FA
S31508003FF044F69843C0F6000359443746E246264637
S315080040004C462CEA0E0C53F8229009AB294453F877
S3150800401022306144494419444FEAB40383EA7433AD
S3150800402086EA070583EAB45C254006EA07036B407F
S315080040306344013201EB080B03EB0109402A55469C
S3150800404084467346B846C9D1069A059B2244019C04
S315080040503344049E00EB040C009807993744039EEA
S31508004060029D0AEB0004089849445E44754480E8BA
S315080040708E00C0E90465C0E906C449B0BDE8F08F02
S315080040802DE9F04F93B0029091E88D00D1E90465CF
S31508004090D1E906410DF12C0CCDE90F65CDE91141A9
S315080040A044F6985444F6D8558CE88D004FF0000A2B
S315080040B001200FF28C09C0F60004C0F600050BAE0D
S315080040C00DF10C0BCDE909AACDE907AACDE905AA98
S315080040D0CDE903AA039004E00AF1010ABAF1080F30
S315080040E01CD059F82A704FF000080BE030463146CC
S315080040F032462B460094FFF78FFC08F10108B8F109
S31508004100200FE9D027FA08F0C007EFD058465946DD
S3150800411032462B460094FFF77FFCE7E704AF8ECFC5
S31508004120DDE9020CDDE908650A9CC0E900C100F179
S3150800413008018CC1C0E90565C46113B0BDE8F08FFC
S315080041404F2563FCC2CAB9F3849E17A7ADFAE6BC2D
S31508004150FFFFFFFFFFFFFFFF00000000FFFFFFFF5D
S315080041602DE9F0418EB01124C0F214042046012135
S315080041700127FDF7D3F9601C0121FDF7CFF90C20C3
S31508004180C0F218000121FDF7C9F908AC2046FDF771
S315080041908FFBA0200890022500264FF0904021466C
S315080041A00B95CDE909660C97FDF78CFB2046FDF7C4
S315080041B07FFB402008A9C1C14FF090402146CDE9B8
S315080041C00B57FDF77FFB4FF0904005210022FDF7C6
S315080041D0B3FB4FF09040062100224FF00608FDF78A
S315080041E0ABFB4FF0904007210022FDF7A5FB2046C8
S315080041F0FDF75EFB1020CDE908064FF090402146FA
S31508004200CDE90A670C97FDF75DFB4FF0904010214A
S31508004210FDF74CFB2046FDF74BFB40F20045082016
S31508004220C4F60005CDE9080628462146CDE90A6701
S315080042300C97FDF747FB28460821FDF735FB6C462A
S31508004240204600F077F943F20005C4F20105284636
S3150800425021468DE8C001CDE90366CDE905670797D4
S3150800426000F086F92846012100F070F9B42003E031
S315080042700136B6F57A7F08D00D9000BF0D994A1E13
S3150800428000290D92F4D000BFF8E77E2000F0AAF8C6
S3150800429000F0FB00702840F076802020412100F0D5
S315080042A0F5F8202000F09EF841286CD1262003213D
S315080042B000F0ECF8262000F095F8032863D10120D9
S315080042C0072100F0E3F8B4200D9000BF0D994A1EAF
S315080042D00D9209B100BFF9E70D9000BF0D98411E78
S315080042E00D9108B100BFF9E7012000F07BF800F056
S315080042F0070007282BD00020B42103E00130B0F5D1
S315080043007A7F08D00D9100BF0D9A531E002A0D938F
S31508004310F4D000BFF8E70120072100F0B7F8B42071
S315080043200D9000BF0D994A1E0D9209B100BFF9E71D
S315080043300D9000BF0D98411E0D9108B100BFF9E719
S31508004340012000F04FF800F0070007281BD10024D1
S31508004350B42502E00134142C19D0222000F042F8CA
S3150800436040B2002813D4002104E000BF0131B1F5A2
S315080043707A7FEFD00D9500BF0D9A531E002A0D9334
S31508004380F4D000BFF8E700200EB0BDE8F081C0B257
S31508004390C0090EB0BDE8F08180B582B001200721C2
S315080043A000F074F8B420009000994A1E009209B1F2
S315080043B000BFF9E701900198411E019130B100BF95
S315080043C000BF0198411E00280191F9D1012000F093
S315080043D009F800F007000738B0FA80F0400902B083
S315080043E080BD0000B0B582B005464FF09040102160
S315080043F0FDF75AFAB42000900098411E009108B1C2
S3150800440000BFF9E743F20004C4F201046D0000BFDF
S315080044102046022100F0A6F80028F9D045F0010050
S31508004420C1B2204600F09CF82046012100F09AF817
S315080044300028F9D0204600F08FF800BF2046022158
S3150800444000F090F80028F9D02046FF2100F088F8FF
S315080044502046012100F086F80028F9D0204600F011
S315080044607BF8B421019101990446481E019029B1AF
S3150800447000BF0198411E00280191F9D14FF09040E4
S315080044801021FDF713FAE0B202B0B0BD70B582B0E4
S315080044900C4606464FF090401021FDF705FAB42069
S315080044A0009000BF0098411E009108B100BFF9E7CF
S315080044B043F20005C4F201052846022100F052F82D
S315080044C00028F9D07000C1B2284600F049F800BFAC
S315080044D02846012100F046F80028F9D0284600F0C1
S315080044E03BF800BF2846022100F03CF80028F9D026
S315080044F02846214600F034F82846012100F032F813
S315080045000028F9D0284600F027F8B4200190019831
S31508004510411E019130B100BF00BF0198411E00281D
S315080045200191F9D14FF09040102102B0BDE87040DA
S31508004530FDF7BCB900210122C0E90011C0E902114A
S31508004540C0E90411C0E9061270470000026861F369
S315080045508612026070470000C06880B2704700008B
S31508004560C16070478068084018BF01207047000086
S31508004570C26922F40062C2610A68032A27D8DFE802
S3150800458002F00206121A026822F400420EE00268DD
S3150800459022F400420260026822F480420260026845
S315080045A042F4806212E0026842F400420260026845
S315080045B022F4804206E0026842F400420260026881
S315080045C042F480420260026822F480620260CA698C
S315080045D0036862F3492303604A68012A06D1CA6957
S315080045E0012A03D1026842F4807202E0026822F4CA
S315080045F0807202604A68036862F3820303608B680C
S31508004600072B0CD8426822F400724260426822F4F2
S31508004610807242608B68026863F3C50218E04268DC
S315080046200A2B0AD142F400724260426822F4807270
S315080046304260026822F038020AE022F40072426000
S31508004640426842F4807242608B68026863F3C5026E
S315080046500260CA68036862F3C71303600A690368DD
S3150800466062F3CB2303604A69036862F3410303607C
S315080046708969026861F300020260704780B5FCF739
S31508004680A3FF42F20000C4F2020040F25511016095
S315080046904FF01C100121FCF741FF47F21000C4F24D
S315080046A00000016841F00301016001200121FCF7C7
S315080046B0A1FE00BFFCF720FF0028FBD002202C211A
S315080046C0FCF754FF02200121FCF794FE1920FCF7A1
S315080046D005FF0128FAD10020FCF74CFE0520FCF75F
S315080046E067FE0020FCF75AFE0020FCF74DFE01206D
S315080046F0FCF768FE0220FCF791FF00BFFCF7ACFF51
S315080047000228FBD10020FCF75DFEBDE8804000F0E2
S3150800471001B80000B0B541F2040441F20025C4F224
S315080047200204C0F27A05FCF797FF02280CD000288D
S3150800473050D1206D80054DD5E06A800144BF46F60C
S315080047400045C0F2DC2545E02068A16AC0F3004CAC
S3150800475000291AD421682268C1F38341C2F3417241
S315080047601301581C0F29034618BF0223002A18BF35
S315080047700346BCF1000F03EB010020D140F60011FF
S31508004780C0F23D0100FB01F524E0A06AA36AC0F36C
S31508004790031EA06A40F60011C0F23D01C3F30823C8
S315080047A0BCF1000F00F0070003D02268920358BF3F
S315080047B0294659430EFA00F0B1FBF0F50AE02168E4
S315080047C0890301D4454305E040F60011C0F23D01D6
S315080047D000FB01F540F21000C2F2000005602168F6
S315080047E004A2C1F30311515C026822FA01F10160C7
S315080047F0B0BD00BF00000000000000000102030475
S315080048000607080941F22C31C2F2000100200860AF
S3150800481041F23031C2F200011039102201F8100FAE
S31508004820013A487048608860C860F7D140F21000C5
S31508004830C2F20000006844F6D351C1F26201A0FB3F
S3150800484001014FF0FF3000EB91110020B0EB116F22
S3150800485018BF70474EF21002CEF2000251604EF6B3
S315080048602351CEF20001F0230B70906007201060F0
S315080048707047000041F22C30C2F200000068704711
S31508004880F0B581B041F230350024C2F200050026A9
S3150800489004E000BF1036B6F5807F0FD0A85D022869
S315080048A0F8D1AF19F868002818BF8047787800282B
S315080048B01ABF7C6001200020A855EBE701B0F0BDC7
S315080048C080B541F22C30C2F20000016841F2303E58
S315080048D0013101600020C2F2000E4FF0020C04E024
S315080048E01030B0F5807F08BF80BD1EF80030012B60
S315080048F0F6D10EEB00035A68996801325A605A6875
S315080049008A4228BF0EF800C0EAE700002DE9F04108
S3150800491088460646FBF788FF05463046FBF796FFAE
S315080049204FF0FF04C5B10146B0B10B272846002E4B
S3150800493008BF0A27FBF79AFF20B905F58070FBF731
S315080049403DFE60B118F80700FF2428B1002008F8DA
S3150800495007004046FBF734FF60B2BDE8F08118F85F
S31508004960070000240028F7D10120F0E72DE9F047D9
S31508004970ADF55A7D0546007804283DD1D2A888466B
S31508004980011F0023D718FF69043B3FBA13F120061D
S3150800499041F8047FF6D1CAA90B1F0027D619F66B72
S315080049A0043F36BA17F1200443F8046FF6D1002203
S315080049B0002300BF50F822700132082A43EA070391
S315080049C0F8D1CBB10022002351F822700132082A0F
S315080049D043EA0703F8D17BB144F698560722C0F696
S315080049E0000600BF50F8223056F82270BB4203D8A2
S315080049F007D3013A531CF5D100200DF55A7DBDE8C1
S31508004A00F087072251F8220056F822309842F3D848
S31508004A1008D3013A501C4FF00000F3D10DF55A7D2A
S31508004A20BDE8F087691CA2A8FBF784FF05F1210100
S31508004A309AA8FBF77FFF44F65444C0F60004611CAD
S31508004A4092A8FBF777FF04F121018AA8FBF772FF0A
S31508004A50C2AD28464146FBF76DFF072055F82010E2
S31508004A6056F82020914203D815D30138411CF5D1B8
S31508004A700021002055F8202056F82030521841F120
S31508004A800001D21A61F1000145F8202001300828FA
S31508004A904FEAE171EED1BAACCAA92046FFF7F0FA9F
S31508004AA044F6D857C0F600070DF53278C2A9404635
S31508004AB022463B460096FEF7AFFF0DF52A79D2A9A6
S31508004AC0484622463B460096FEF7A6FF92AB0FCB1A
S31508004AD00DF5A47C8CE80F00DDE996018AAFCDE9D7
S31508004AE05601DDE998010DF5B47CCDE95801AFCF43
S31508004AF00DF5E47E8CE8AF00DDE99010A2AFCDE9B4
S31508004B006010DDE9A6048ECFCDE96E046AA88EC0D2
S31508004B10DDE9A8109AAFCDE970109FCF0DF1E80A2C
S31508004B208EE89F00DDE9A01000254FF0010CCDE9C5
S31508004B30781052A9504642466995CDE96755CDE9A0
S31508004B406555CDE96355CDF888C1CDE98055CDE9E0
S31508004B507E55CDE97C55CDE97A55CDF8E8C1FFF704
S31508004B60B7F822AF6AA938464A46FFF7B1F80AAC41
S31508004B70204651463A46FEF791F8102054F8201080
S31508004B800130182845EA0105F8D1002D3FF434AF65
S31508004B9002AC82A90AAA2046FEF7F4FD072054F8BB
S31508004BA0201056F82020914203D816D30138411C0C
S31508004BB0F5D10021002000BF54F8202056F82030F7
S31508004BC0521841F10001D21A61F1000144F820207F
S31508004BD0013008284FEAE171EED102A8D2A92022B5
S31508004BE0FBF7EAFAB0FA80F040090DF55A7DBDE800
S31508004BF0F087F1EE100A4FF6FF71C0F2C03120EAD5
S31508004C00010040F04070E1EE100A704704790D96F5
S31508004C10CA912D90DB73DF21B06EE7CE19AA7C1FEF
S31508004C207530550A48218419B44B4C37CBF57CD3DB
S31508004C30FC9E26BE1BA694DD45627EAACA7138F57F
S31508004C407A8EA8D5DD20703326F0954171000000D4
S31508004C505045594B046B17D1F2E12C4247F8BCE694
S31508004C60E563A440F277037D812DEB33A0F4A139E7
S31508004C7045D898C2964FE342E2FE1A7F9B8EE7EB31
S31508004C804A7C0F9E162BCE33576B315ECECBB64081
S31508004C906837BF51F5000000982F8A429144377152
S31508004CA0CFFBC0B5A5DBB5E95BC25639F111F159A1
S31508004CB0A4823F92D55E1CAB98AA07D8015B8312E3
S31508004CC0BE853124C37D0C55745DBE72FEB1DE808F
S31508004CD0A706DC9B74F19BC1C1699BE48647BEEFBE
S31508004CE0C69DC10FCCA10C246F2CE92DAA84744A49
S31508004CF0DCA9B05CDA88F97652513E986DC631A8BF
S31508004D00C82703B0C77F59BFF30BE0C64791A7D59D
S31508004D105163CA0667292914850AB72738211B2E25
S31508004D20FC6D2C4D130D385354730A65BB0A6A760D
S31508004D302EC9C281852C7292A1E8BFA24B661AA819
S31508004D40708B4BC2A3516CC719E892D1240699D629
S31508004D5085350EF470A06A1016C1A419086C371EA2
S31508004D604C774827B5BCB034B30C1C394AAAD84E80
S31508004D704FCA9C5BF36F2E68EE828F746F63A578BB
S31508004D801478C8840802C78CFAFFBE90EB6C50A44E
S31508004D90F7A3F9BEF27871C6512563FCC2CAB9F306
S31508004DA0849E17A7ADFAE6BCFFFFFFFFFFFFFFFFD4
S31508004DB000000000FFFFFFFFFFFFFFFFFFFFFFFFF1
S31508004DC0FFFFFFFF000000000000000000000000D9
S31508004DD001000000FFFFFFFFAFDA9C033D35460CDC
S31508004DE07B61E858520519430000000000000000E6
S31508004DF0FFFFFFFF000000000100000000000000A8
S31508004E0000000000FFFFFFFFFFFFFFFFFFFFFFFFA0
S31508004E10FEFFFFFF0000000000010203040506076D
S31508004E20080C101418203040484E000800000020D6
S31508004E301800000014010008604E00081800002041
S31508004E401836000030010008010000000050000874
S31508004E5000B800007856341200127A0000000000EC
S705080000D919
