S315080000007836002079010008350400082D04000818
S31508000010310400081D040008B104000800000000AF
S315080000200000000000000000000000003D04000879
S3150800003029040008000000003904000841040008EB
S315080000409301000893010008930100089301000832
S315080000509301000893010008930100089301000822
S3150800006000000000930100089301000893010008AE
S31508000070930100089301000893010008000000009E
S31508000080930100089301000800000000930100088E
S3150800009093010008930100089301000893010008E2
S315080000A093010008930100089301000893010008D2
S315080000B093010008000000009301000825040008C9
S315080000C0930100080000000093010008930100084E
S315080000D0210400089301000800F002F800F03CF83B
S315080000E00AA090E8000C82448344AAF10107DA4585
S315080000F001D100F031F8AFF2090EBAE80F0013F09B
S31508000100010F18BFFB1A43F001031847704D000092
S31508000110904D0000103A24BF78C878C1FAD8520723
S3150800012024BF30C830C144BF04680C607047000063
S315080001300023002400250026103A28BF78C1FBD8E2
S31508000140520728BF30C148BF0B6070471FB504F07F
S315080001507AFD1FBD10B510BD00F025F91146FFF751
S31508000160F5FF03F05BFC00F043F903B4FFF7F2FF79
S3150800017003BC00F04BF900000948804709480047CE
S31508000180FEE7FEE7FEE7FEE7FEE7FEE7FEE7FEE739
S31508000190FEE7FEE704480549054A064B7047000096
S315080001A045040008D9000008781400207836002095
S315080001B0781600207816002040EA010310B59B0740
S315080001C00FD1042A0DD310C808C9121F9C42F8D0B3
S315080001D020BA19BA884201D9012010BD4FF0FF3064
S315080001E010BD1AB1D30703D0521C07E0002010BD7A
S315080001F010F8013B11F8014B1B1B07D110F8013B06
S3150800020011F8014B1B1B01D1921EF1D1184610BDE6
S31508000210032A40F2308010F0030C00F0158011F824
S31508000220013BBCF1020F624498BF11F801CB00F8FC
S31508000230013B38BF11F8013BA2F1040298BF00F850
S3150800024001CB38BF00F8013B11F0030300F025800D
S31508000250083AC0F0088051F8043B083A51F804CB34
S31508000260A0E80810F5E7121D5CBF51F8043B40F8FA
S31508000270043BAFF30080D20724BF11F8013B11F805
S3150800028001CB48BF11F8012B24BF00F8013B00F849
S3150800029001CB48BF00F8012B704710B5203AC0F0D3
S315080002A00B80B1E81850A0E81850B1E81850A0E83B
S315080002B01850203ABFF4F5AF5FEA027C24BFB1E8D4
S315080002C01850A0E8185044BF18C918C0BDE8104017
S315080002D05FEA827C24BF51F8043B40F8043B08BF20
S315080002E07047D20728BF31F8023B48BF11F8012BE7
S315080002F028BF20F8023B48BF00F8012B704702F0E0
S31508000300FF0343EA032242EA024200F002B84FF032
S3150800031000020429C0F0128010F0030C00F01B80C4
S31508000320CCF1040CBCF1020F18BF00F8012BA8BFD2
S3150800033020F8022BA1EB0C0100F00DB85FEAC17C96
S3150800034024BF00F8012B00F8012B48BF00F8012B49
S3150800035070474FF0000200B513469446964620397A
S3150800036022BFA0E80C50A0E80C50B1F12001BFF460
S31508000370F7AF090728BFA0E80C5048BF0CC05DF8C6
S3150800038004EB890028BF40F8042B08BF704748BF14
S3150800039020F8022B11F0804F18BF00F8012B704788
S315080003A0704770477047754600F02CF8AE46050052
S315080003B06946534620F00700854618B020B5FFF772
S315080003C0E9FEBDE820404FF000064FF000074FF069
S315080003D000084FF0000BAC46ACE8C009ACE8C00911
S315080003E0ACE8C009ACE8C00921F007018D467047A2
S315080003F010B50446AFF300802046BDE81040FFF76D
S31508000400B4BE0000004870471800002001491820B3
S31508000410ABBEFEE72600020070470000FEE70000BC
S3150800042000F0D8BA00F052BC70470000FEE70000A2
S31508000430FEE70000704700007047000070470000A4
S3150800044004F0BCBA4EF68850CEF20000026841F2BB
S31508000450000142F47002C4F2020102600A6842F026
S3150800046001020A600A689207FCD54A6822F003026C
S315080004704A6000BF4A6812F00C0FFBD10A684FF6B3
S31508000480FF73CFF6F2631A400A60002241F6107332
S315080004904A60CB620A634FF41F028A608A6E42F092
S315080004A001028A664FF0006140F8801C7047000020
S315080004B0FEE700004EF60C50BFF34F8FCEF2000059
S315080004C00168042201F4E061C0F2FA5211430160A6
S315080004D0BFF34F8F00BFFDE7002904BF0020704718
S315080004E0B0B548F2203E4FF0000C4FF0FF33CEF681
S315080004F0B85E00BF10F80C20534008221C468EEA4E
S315080005005303E50708BF6308013AF7D10CF1010C5C
S315080005108C45EFD1D843B0BDB0B582B0044646F29B
S31508000520004072B6C4F2000000F0B0FD1920C0F217
S315080005301C000021002500F0D7FF4EF21000CEF275
S3150800054000004FF0FF31056045608560C0F8701106
S31508000550C0F87411C0F87012C0F8741201950198A9
S31508000560C0087C2808D800BF00BF01980130019058
S315080005700198B0F57A7FF7D34EF60850CEF2000010
S31508000580046020684AF6FF72CDF6FF72616802447D
S315080005906FF4A0439A4214D34A1C022A11D3A1F13C
S315080005A0006249F20013A2F5E032CFF6FE739A42D2
S315080005B007D341F0010180F3088802B0BDE8B040D6
S315080005C0084702B0B0BD00002DE9F0414CF2000525
S315080005D0C0F601050446286844F24D18C4F6547856
S315080005E048F220364045CEF6B85624D16868012828
S315080005F021D1D5F80CC100214FF0FF326B5C5A406F
S31508000600082300BF104686EA5202C70708BF4208F9
S31508000610013BF7D10131B1F5867FEFD1D04384454F
S3150800062009D14CF20001C0F6010120464FF4887248
S31508000630FFF7EEFD4FE0D5F8000840454FD14CF6E0
S315080006400400C0F601000168012948D1D0F808C1A4
S3150800065000214FF0FF3200BF6B1893F800385A405C
S31508000660082300BF174686EA5202F80708BF7A0829
S31508000670013BF7D10131B1F5867FEDD1D0438445F1
S315080006802DD14CF60001C0F6010120464FF48872C0
S31508000690FFF7BEFD00204FF0FF3100BF225C51403E
S315080006A0082200BF0B4686EA5101DF0708BF590832
S315080006B0013AF7D10130B0F5867FEFD1C843C4F8C7
S315080006C00C0105F50060214603F0F6F918B928462D
S315080006D0214603F0F1F9002040B2BDE8F08120463A
S315080006E04FF48871FFF713FE012040F20031C4E988
S315080006F000804FF47E40C0F20A0120810020C4F831
S3150800070016104FF0FF31C4F80A00C4F80E00C4F8FA
S315080007101200C4F81E00C4F81A0000BF225C51403B
S31508000720082200BF0B4686EA5101DF0708BF5908B1
S31508000730013AF7D10130B0F5867FEFD1C843C4F846
S315080007400C0100204FF0FF31225C5140082200BF07
S315080007500B4686EA5101DF0708BF5908013AF7D167
S315080007600130B0F5867FEFD1C843C4F80C0105F512
S315080007700060214603F0A0F918B92846214603F07F
S315080007809BF9FF2040B2BDE8F081000070B548F241
S315080007902032064600204FF0FF31CEF6B85200BF91
S315080007A0335C5940082300BF0D4682EA5101EC0725
S315080007B008BF6908013BF7D10130B0F5867FEFD154
S315080007C04CF20005C0F60105C843C6F80C0105F54C
S315080007D00060314603F070F910B1FF2040B270BDD9
S315080007E02846314603F068F9002818BF4FF0FF3055
S315080007F040B270BD45F200020021C0F60002012891
S3150800080008BF02F53841002804BF45F20001C0F6CA
S3150800081000010846704700000021022838BF4FF43F
S3150800082038410846704700007047000044F66040AB
S31508000830C0F600007047000070B588B0044600682E
S3150800084044F25812C4F6547290422FD10D4661688C
S31508000850A5F580704A1E824230D204F5807630466D
S31508000860FFF73AFEA168884230D1D4F8040120F097
S315080008700100B04232D3291988422FD261686D46E9
S3150800088030462A4603F08EFB44F6604004F10C021B
S31508000890C0F60000294604F0DDF8012826D140F20A
S315080008A05A21C2F200010020087026E040F25A20C0
S315080008B0C2F2000001210170FF201EE040F25A201A
S315080008C0C2F2000002210170FF2016E040F25A2011
S315080008D0C2F2000003210170FF200EE040F25A2008
S315080008E0C2F2000004210170FF2006E040F25A20FF
S315080008F0C2F2000006210170FF2040B208B070BDA8
S31508000900043800228B18DB69043A93FA83FC12F147
S31508000910200340F804CFF5D17047000040F20141AA
S31508000920C0F20C0101604FF4017181800621C0F20A
S315080009300271C0F8061070470A780369013A62F333
S31508000940040303614A88436802F5FF7262F30803E9
S3150800095043600A794368013A02F07F0223F4FE03F2
S3150800096043EA024242604A784368013A02F07F024B
S3150800097023F0FE4343EA02624260CA888368FE3275
S3150800098062F3070383600A7A8368013A02F07F02FA
S3150800099023F4FE0343EA024282604A798368013AF5
S315080009A002F07F0223F0FE4343EA02628260497A3C
S315080009B0026922F47F4242EA012101617047000080
S315080009C0806A00F001007047816A41F00101816286
S315080009D07047000010B546F20044C4F200042046F1
S315080009E0022100F0F3FA50B12046FFF7E9FF10B1F3
S315080009F02046FFF7E9FF2046022100F0E5FA2046E7
S31508000A004FF4807100F0E2FA20B120464FF480716D
S31508000A1000F0DAFA20464FF4007100F0D7FA20B158
S31508000A2020464FF4007100F0CFFA20464FF480615B
S31508000A3000F0CCFA002808BF10BD20464FF48061AC
S31508000A40BDE8104000F0C0BAF0B599B01124C0F264
S31508000A50140420460121012700F046FD04F1081080
S31508000A60012100F041FD00200121002600F09CFC38
S31508000A7014AC204600F0F6FE4FF4006014900225F0
S31508000A804FF090402146CDE91567CDE9175700F09C
S31508000A90F3FE4FF090400B21042200F027FF20467A
S31508000AA000F0E0FE4FF48050CDE914064FF0904078
S31508000AB02146CDE91665189700F0DEFE4FF0904006
S31508000AC00C21042200F012FF03F0C8FB002808BF1F
S31508000AD003F0C4FB46F20044C4F20004204600F0CA
S31508000AE0D5FA2046012100F063FB2046002100F0DC
S31508000AF07DFA11AD2846FFF711FF40F20A40C0F211
S31508000B003F00119009208DF8480020462946FFF736
S31508000B1013FF01AD284600F0A7F9204600212A4612
S31508000B20CDE9027600F0D6F920460021012200F030
S31508000B30B3F92046002100F03BFB20468021012224
S31508000B4000F04AFA20460221012200F045FA1F2049
S31508000B500121002203F0F2F824200221002203F0EA
S31508000B60EDF841F27130C2F20000067041F27230BF
S31508000B70C2F20000067041F27030C2F20000067040
S31508000B8040F25C20C2F20000066019B0F0BD000019
S31508000B902DE9F04784B041F27035C2F20005287895
S31508000BA0002843D041F270246E4641F27237C2F2F1
S31508000BB0000440F25C2906F10408C2F20007C2F2FA
S31508000BC0000904F1030A01E0287878B372B6387888
S31508000BD0000120580090387804EB0010007B8DF84F
S31508000BE00C0070B1032051463A78331801EB021213
S31508000BF0527801315A709DF80C20831E01309342B9
S31508000C00F2D33878013000F00F00387028780138B0
S31508000C10287062B6D9F800000028D5D0D9F8003077
S31508000C2000989DF80C2041469847CDE704B0BDE8EA
S31508000C30F087000010B500284FF0FF0318BF002901
S31508000C4001D158B210BD002AFBD041F2703C72B6F1
S31508000C50C2F2000C9CF8003073B341F27234C2F24F
S31508000C600004237841F2702E1B01C2F2000E5EF8D2
S31508000C700330036020780EEB0010007B107068B11B
S31508000C800EF10302013900BF2378013802EB031382
S31508000C905B7802F1010201F8013FF5D120780023C3
S31508000CA0013000F00F0020709CF8000001388CF825
S31508000CB0000062B658B210BDFF2362B658B210BD26
S31508000CC040F25C21C2F200010860704770B59CB022
S31508000CD046F20046C4F200063046802100F076F956
S31508000CE0002857D001AD3046294600F0E5F901281D
S31508000CF049D141F2703CC2F2000C9CF800100F2951
S31508000D0041D841F27131C2F20001019B0A78100103
S31508000D1041F27022C2F2000213509DF810000B78BF
S31508000D2000F00F0002EB03131873087802EB0010AB
S31508000D30007B092804D30878082302EB0010037304
S31508000D40087802EB0010007B98B105F11B034FF001
S31508000D50FF3500BF13F8010F0C7805EB0414144493
S31508000D6060710878AC1C02EB0010007B01358442E8
S31508000D70F0D30878013000F00F0008709CF80000E6
S31508000D8001308CF80000304600F004FA3046802125
S31508000D9000F01AF93046402100F018F918B130462B
S31508000DA0402100F011F91CB070BD0000B0B59CB030
S31508000DB04FF0FF03B9B3082A35D8049001200590EF
S31508000DC0002006908DF86C001A9007921AB104A8B4
S31508000DD01830FFF71DFA46F20044C4F200046946CB
S31508000DE0204600F0EFF9019D00214DB1032D07D0F3
S31508000DF0204600F0E3F9032801D1FF2313E001217F
S31508000E0004AA204600F018FA01280BD10421002D67
S31508000E1008BF10212046032D08BF102100F0E0F975
S31508000E20002300E0FF2358B21CB0B0BDF0B585B072
S31508000E30044603F09DFD46F200460546C4F2000648
S31508000E4001AF00BF3046394600F0BCF902990020D0
S31508000E5039B1032905D003F08BFD401BA042F1D31D
S31508000E60FF2040B205B0F0BD00210173C0E90011B2
S31508000E7081604FF0FF320123C0E90411C0E9061171
S31508000E800F21C0E90823836280F82C10C0E90C33CF
S31508000E90C0E90E337047000072B150F8442F4FF482
S31508000EA08033D0F800C003FA01F14FF6FF739A4376
S31508000EB00A431FFA8CF109E0012202FA01F150F8FF
S31508000EC0442FC943036802EA01419AB211430160FB
S31508000ED070470000436C61F30303436451680129BA
S31508000EE008D059B9D2F800C00023C1F6FC7303EA4A
S31508000EF08C4302E0136823F060438364C36C61F398
S31508000F001043C3649168C36C61F31453C364117BC3
S31508000F10C36C61F30303C364D169C36C61F31C73C7
S31508000F20C3645169C36C61F39243C3641169C36CAA
S31508000F3061F35143C3649169C36C61F3DB634FF09A
S31508000F40FF31C36481655168012909D071B9136AF3
S31508000F504FF6FF7CCEF2030C816D4CEA834303E027
S31508000F60116A836D41F06041194081654FF0FF3C7D
S31508000F70C0F85CC0536AC16D63F31041C165916ADC
S31508000F80C36D61F31453C36592F82C10C36D61F3F6
S31508000F900303C365D16BC36D61F31C73C365516BE2
S31508000FA0C36D61F39243C365116BC36D61F351431E
S31508000FB0C365916BC26D61F3DB62C265C0F860C040
S31508000FC0C0F864C070470000416170474069084036
S31508000FD018BF012070470000002AD0F840210CBF36
S31508000FE022EA01011143C0F840117047062988BF5B
S31508000FF07047DFE801F00408101C2D313900816ABA
S3150800100021F0400102E0816A41F040018162816A73
S3150800101021F0004106E0816A41F040018162816A5F
S3150800102041F000418162816A21F020010AE0816A6B
S3150800103021F040018162816A21F000418162816A62
S3150800104041F020018162816A21F480418162704702
S31508001050816A21F0400102E0816A41F04001816223
S31508001060816A21F0004106E0816A41F0400181620F
S31508001070816A41F000418162816A21F02001816222
S31508001080816A41F4804181627047000046F200415E
S31508001090C4F20001884218BF704710B51924C0F27F
S315080010A010042046012100F033FA20460021BDE84D
S315080010B0104000F02DBA0000B0B5D0F874C0836AAD
S315080010C013F0407F64D0D0F874E0CEF300424A6053
S315080010D0046F5FEACE3224F0604358BFC4F38A43F4
S315080010E00B60426FC2F300528A60426FC2F34042FD
S315080010F00A61426FC2F380424A61426FC2F3C0621C
S315080011008A61426FC2F302620A66426FC2F30072D4
S31508001110CA65436F0CF00F0203F00F03CB60E2B110
S3150800112044F66C63C0F6000313F802C001F11C0E06
S3150800113000F17C02002300BF52F8044F0EEB0305B2
S315080011400EF8034014680433240A6C705488DBB222
S31508001150AC70D4786345EC70EED3426F4FF6FC73EF
S31508001160C0F82421D0F8282103EB924292B200EB72
S315080011708202D2F880304B66D2F88820A1F868201F
S3150800118090F82B1041F0100180F82B100120B0BD0B
S315080011900020B0BD816A11F0407F0FBF002090F893
S315080011A02B1041F0100180F82B1018BF0120704752
S315080011B0826A61F3C712826270470000806AC0F3D0
S315080011C001407047C2690A70C269C2F302224A60C6
S315080011D0C269120C0A72C069C0F30260C86070471F
S315080011E0826A920425D4022918BF04290ED1826A7C
S315080011F012F4403F1DD0826A92051AD4826A5205BB
S315080012005CBF826A5FEAC25213D409E0102910D182
S31508001210826AD2040DD4826A120544BF0020704740
S3150800122090F8292002F0E002114380F829100120E5
S31508001230704700207047000070B5D368012906D0B2
S31508001240D9B9856AED0444BF002070BD02E0856AFD
S315080012506D0212D490F8295005F0600545EAC115CB
S3150800126080F829505568012D09D035B9156800242C
S31508001270C1F6FC7404EA854504E0002070BD1568D3
S3150800128025F06045C0F8CC50956DD0F8CC404FF0AD
S31508001290000C44EAC575C0F8CC50C0F8D0C05568F3
S315080012A0D0F8D04065F31044C0F8D0409568D0F81F
S315080012B0D04065F31454C0F8D040D568D0F8D04073
S315080012C065F30304C0F8D0405569D0F8D04065F3FB
S315080012D09244C0F8D0401569D0F8D04065F351441F
S315080012E0C0F8D0408BB144F66C65C0F6000515F819
S315080012F003E002F1180300F1D80400255E5904350D
S31508001300EDB2754544F8046FF8D3C0F8D4C092F826
S315080013105C20D0F8D430012923F07F4343EA0262E7
S31508001320C0F8D420C0F8D8C01CBF012070BD90F802
S315080013302A1041F0400180F82A10012070BD0000F3
S3150800134041F20401C4F202010A6860F307120A6056
S315080013507047000041F20401C4F202010A6860F312
S315080013600A220A607047000041F20401C4F2020131
S315080013700A6860F3CD220A607047000041F2540102
S31508001380C4F202010A6860F30E320A607047000070
S3150800139041F25401C4F202010A68012822F030021F
S315080013A008BF30320A607047002818BF704741F2FC
S315080013B06800C4F20200026861F3196202607047AD
S315080013C0042888BF7047DFE800F0030C151E2700C5
S315080013D041F20000C4F20200026861F300020260F2
S315080013E0704741F20000C4F20200026861F310423D
S315080013F00260704741F20000C4F20200026861F31D
S3150800140018620260704741F20000C4F20200026AE4
S3150800141061F300020262704741F20000C4F2020062
S31508001420426A61F30002426270470000A0F510119B
S31508001430183907290ED801290CD041F22400C4F224
S315080014400200016841F08071016000BF0168C901AE
S31508001450FCD47047A0F50021072988BF70470FF212
S315080014600E0000EB81024FF48030DFE801F013052F
S31508001470080B0E040411ECE74FF400300AE04FF4B1
S31508001480802007E04FF4002004E04FF4801001E0CC
S315080014904FF4000041F22401C4F2020151F81C2C59
S315080014A0104341F81C0C704741F20002010CC4F2CB
S315080014B00202895800F01F0021FA00F000F001002E
S315080014C07047000041F200010020C4F2020100BF8B
S315080014D00A68920304D4B0F5405F00F10100F7D31F
S315080014E00868C0F34040704741F2000200F01F034D
S315080014F04FF0010CC4F2020201290CFA03F14FEA7B
S315080015001040835814BF23EA0101194381507047DC
S3150800151041F2000200F01F034FF0010CC4F2020270
S3150800152001290CFA03F14FEA1040835814BF23EA45
S31508001530010119438150704741F20402C4F20202C4
S31508001540136858B143F480331360136801280ED129
S3150800155023F4003010604FF000700CE023F4803064
S315080015601060D06A40F00070D062002003E043F4B7
S31508001570003010600020136861F395431360136808
S31508001580090961F35E731360916A21F0E06108430B
S315080015909062704741F20000C4F20200016841F00F
S315080015A00101016001688907FCD5416821F0030142
S315080015B0416000BF416811F00C0FFBD101684FF67E
S315080015C0FF72CFF6F26211400160002141F61072F7
S315080015D04160C26201634FF41F018160816E41F070
S315080015E0010181667047000041F20401C4F202015C
S315080015F00A6860F301020A6000BF00BF00BF00BFAF
S3150800160000BF00BF00BF00BF00BF00BF00BF00BFD4
S3150800161000BF00BF00BF00BF00BF00BF00BF00BFC4
S315080016207047000041F20400C4F202000068C0F3EB
S315080016308100704710B51D24C0F224042046FFF728
S3150800164033FF20B12046FFF7F1FE022010BD00202F
S3150800165010BD000040F20005C2F200050120287006
S31508001660FFF7F2F943F6E160C0F60000FFF728FB42
S3150800167041F65510C0F6000000F04EF903F078F96F
S3150800168040F2AC1940F24C2640F2840840F2880B2E
S3150800169040F29C04C2F20009C2F20006002741F299
S315080016A0883AC2F20008C2F2000BC2F20004C9F876
S315080016B00000376003F062F9FFF76AFA01F0D8F81C
S315080016C003F056F93168411AB1F5FA7F02D3306052
S315080016D002F0E0FE28780128ECD003F049F9D9F8A1
S315080016E00010401A5045E5D30120287040F2FC103E
S315080016F0C2F20000077040F27C00C2F200000770D8
S3150800170040F20320C2F200000770A07AE17A88F856
S3150800171000700843CBF80070CCD0204684F82170BE
S31508001720FFF734F8C6E7000042F21000C4F20200E0
S31508001730016841F0800101607047000042F20C0127
S31508001740C4F202014A6842F002024A6088604868A8
S3150800175040F0400048600868C0070AD1086840079A
S315080017600AD40868C0064FF0020058BF032008BB19
S3150800177004E00020F0B901E00120D8B94FF080421A
S315080017800868C0070AD10868400709D40868C0066F
S315080017904FF0020058BF032003E000BF002000E01E
S315080017A00120A2F1010310B9012A1A46E8D1002B3B
S315080017B008BF04204A6822F002024A607047000007
S315080017C042F2040040F22311C4F20200C4F2675147
S315080017D0016048F6AB11CCF6EF5101607047000086
S315080017E042F20C02C4F20202536843F0010353604A
S315080017F001601068C0070AD1106840070AD410684B
S31508001800C0064FF0020058BF032008BB04E00020C2
S31508001810F0B901E00120D8B94FF480111068C0076B
S315080018200AD11068400709D41068C0064FF00200B4
S3150800183058BF032003E000BF002000E00120A1F10B
S31508001840010310B901291946E8D1002B08BF042065
S31508001850516821F0010151607047000081627047AC
S31508001860816170474FF6FF7100220123C0E900121B
S31508001870C0E9022203617047F0B50A88002A08BF4A
S31508001880F0BD00234FF0030C4FF0010E002405E0D5
S31508001890520804F1010403F1020326D0D507F7D054
S315080018A005680CFA03F6B5430560CD6807689D40E0
S315080018B03D43056045680EFA04F7BD4345604D682B
S315080018C04768A5403D4345608568B54385600D6911
S315080018D087689D403D438560C568B543C5608D688A
S315080018E0C6689D403543C560D2E7F0BD10B51C23D8
S315080018F003EA810E24234FF00F0C082938BF202352
S31508001900C4580CFA0EF124EA0101C150C15802FA72
S315080019100EF21143C15010BD40F26021C2F200011F
S31508001920002241F20C03CA5041F204030A60CA506D
S3150800193019440A7140F27801C2F20001086040F2C7
S315080019409900C2F20000027040F25920C2F200006B
S31508001950027070472DE9F04F93B0002800F07181AE
S315080019600E46002900F06D81044603F001F840F2A6
S31508001970AC11C2F2000108602578A5F110002E28E6
S3150800198000F24F81DFE810F02F0042014D014D01B2
S315080019904D014D014D014D014D014D014D014D01C9
S315080019A04D014D014D014D014D014D017F004D0188
S315080019B04D014D014D01A6004D014D014D014D0151
S315080019C04D014D01B5004D014D01DD004D014D01A3
S315080019D060014D019E01E201AB024D014D014D0131
S315080019E04D014D012B01012E40F21381667806F058
S315080019F07F04201F10F1040F40F20783012C26D123
S31508001A0040F2FC10C2F200000021017040F27C0096
S31508001A10C2F20000017040F20320C2F20000017019
S31508001A2040F29C00C2F2000040F28402837AC77A30
S31508001A30C2F20002117053EA070240F28802C2F2AB
S31508001A400002116003D080F82110FEF79FFE40F2D5
S31508001A500000C2F200000178012918BF012C07D046
S31508001A60A14205D040F2FC11C2F2000100220A7020
S31508001A7071B20029047000F1E48050208DF8080046
S31508001A808DF80940BAE0022E40F2C3806278A17848
S31508001A904FF2881041EA0223834240F20D30C1F624
S31508001AA0DA0000F3CE8242F21217DB1B042B00F297
S31508001AB00884DFE813F00500C803D103ED03F70334
S31508001AC08DF8092040F29C02C2F2000292F8212009
S31508001AD06223EFE340F20D38012EC1F6DA0800F270
S31508001AE05F827F208DF8080013208DF8095000F0DA
S31508001AF0CBBD40F20000C2F200000078022840F098
S31508001B00418240F2FC10C2F200000078002800F082
S31508001B104082032E7DD96078A17842F2100341EA0B
S31508001B2000229A4240F0EE85E278012A40F0EA85E2
S31508001B306E228DF808208DF809008DF80A1000F03D
S31508001B40E9BD40F20000C2F200000078022840F029
S31508001B50198240F2FC10C2F200000078002800F05A
S31508001B601882032E55D961786088012940BA08BFC2
S31508001B70B0F57F4F00F0F683012940F0C3854FF694
S31508001B800171884240F0BE8540F20D36C1F6DA068C
S31508001B9078207F278DF80A0002A9304603228DF89F
S31508001BA008708DF8095000F073FF40F2040040F207
S31508001BB00801C2F20000C2F2000100680968FEF7D7
S31508001BC03BFE002800F0C88472208DF808708DF856
S31508001BD009508DF80A0002A9304600F0A0BD012E72
S31508001BE017D9617811F07F0040F00F8249B20029B9
S31508001BF027D47E218DF808108DF8090040F20D30A3
S31508001C00C1F6DA0002A9022200F08ABD012E00F20E
S31508001C10F6817F208DF8080013208DF8095000F012
S31508001C2077BD7F208DF8080011208DF80A0040F254
S31508001C300D30C1F6DA0002A903228DF8095000F02A
S31508001C4027FF13B0BDE8F08F40F20000C2F2000093
S31508001C500078022840F0968140F2FC10C2F200009B
S31508001C600078002800F0958140F28400C2F2000056
S31508001C700078002800F0D7810020032E4FF00001DD
S31508001C80C0F01085A178A1F1500212F1400FC0D31F
S31508001C9001F00F02531F13F1040FBAD302EB11130D
S31508001CA00333B342B5D8002A00F0F38404EB1111CC
S31508001CB08B1C002113F8017F013A47EA0121F9D16B
S31508001CC000F0E8BC40F20000C2F2000000780228EA
S31508001CD040F0588140F27C07C2F2000738780028A5
S31508001CE000F0A18140F2FC10C2F200000078002842
S31508001CF000F04F81022E8CD940F27D00C2F200001E
S31508001D00017863780131CAB28A4218BF0122934228
S31508001D10027040F0468340F28009C2F2000940F2A0
S31508001D209001D9F80000C2F2000140F20808023E0C
S31508001D300978C2F2000810FA86F0D8F8002008449C
S31508001D40904240F222840020387014E140F20000EC
S31508001D50C2F20000007840F20D3B0228C1F6DA0B09
S31508001D6040F05A8140F27C00C2F200000178002956
S31508001D7000F0608140F2FC11C2F2000109780029E6
S31508001D8000F0538200210170FFF71AFD40F2900817
S31508001D90C2F2000898F8001071B340F28C00C2F243
S31508001DA000000138CA004FF0FF310023FF2710F862
S31508001DB0014F07FA03F6B14304FA03F608339A42C9
S31508001DC041EA0601F3D140F29407C2F200073868E7
S31508001DD0FFF706FD032840F0D18240F28002C2F2E6
S31508001DE0000298F800003968136801441844106026
S31508001DF00020396088F80000FFF796FC40F2800062
S31508001E00C2F200000068FF2840F2BA8240F2880158
S31508001E10C2F200010968002918BF884240F0B08262
S31508001E2040F24828C2F2000898F8000040F2040977
S31508001E304028C2F2000940F0AE84D9F8000000211B
S31508001E400C30425CFF2A40F0A68401314029F8D1C3
S31508001E5040F20820C2F2000090E88E00D0E904643F
S31508001E600DF1080AD0E906CE8AE88E00CDE90664A7
S31508001E7000F1200AD0E90D76C06B9AE81E0411908D
S31508001E800AA8CDE908CECDE90F7680E81E04FFF74B
S31508001E9097FCD9F8000002990C30FFF7A1FC03283B
S31508001EA040F05D8402A800F1040A0026002717F115
S31508001EB00F0000F06684D9F800005AF8061030447E
S31508001EC01030FFF78DFC013F032806F10406EED01B
S31508001ED0F84300270F2838BF012700F041BC40F21D
S31508001EE00000C2F20000007802284BD140F2FC1034
S31508001EF0C2F20000007800284BD0022E7FF689AE89
S31508001F00677840F2482840F20329C2F20008012FF8
S31508001F10C2F2000914D198F8000088B9012089F89E
S31508001F20000040F20420C2F200000021017040F2D5
S31508001F30082088F80010C2F200004021FEF709FACE
S31508001F4099F80000B8B140F20420C2F20000017806
S31508001F500131CAB28A4218BF01229742027007D1DC
S31508001F6098F80000B11E10FA81F2402A40F26C83FC
S31508001F70002089F800007F208DF808008DF80950A8
S31508001F807120C5E37F208DF808008DF809502220BE
S31508001F90BEE37F208DF808008DF809503320B7E39B
S31508001FA06778032F6DD0022F00F0D480012F40F000
S31508001FB0CA8002F0DDFC40F2F511C2F200010A788F
S31508001FC0032A0BD340F2F812C2F200021268801AF2
S31508001FD0B0F1FF3F40F3EE810020087040F2FC109C
S31508001FE0C2F200000078012840F0748167208DF85D
S31508001FF0080000208DF80970CDF80A00AEE1617876
S3150800200001F07F00012800F01E847F208DF808006B
S315080020108DF8095012207BE37F208DF808008DF893
S3150800202009502220B2E17F208DF808008DF809506A
S3150800203024206DE37F208DF808008DF80950712063
S31508002040A4E14FF29517BB4208D04FF28D17BB4259
S3150800205004D04FF28917BB4240F033818DF80A103D
S3150800206042F63161C2F630616223CDF80B10302199
S315080020708DF808308DF80920ADF80F1002A909224D
S315080020804EE340F20120C2F20000007801285AD13E
S3150800209040F20220C2F200000078012853D1022E35
S315080020A07FF61FAD94F80290B9F1010F11D140F2F5
S315080020B0B010C2F200000021017040F2F410C2F222
S315080020C00000017040F2B410C2F200004021FEF791
S315080020D040F940F2B010C2F20000017801310170F7
S315080020E00178002904BF012101700078814540F07C
S315080020F03F8240F2F410C2F200000278F11E52FA52
S3150800210081F2412A24BF0178C1F140010A060FD0A5
S3150800211040F2B413C2F20003CAB2013BA61C16F879
S31508002120015F0478013A1C4403F101036570F6D196
S3150800213002781144017067208DF808008DF809703F
S315080021408DF80A90A2E27F208DF808008DF80950D4
S31508002150122099E240F20129C2F2000999F800001A
S31508002160012869D140F20220C2F200000078012855
S3150800217062D1422E12D340F2B410C2F200000138E6
S31508002180611C402211F8013F013A00F8013FF9D1DC
S3150800219040F2F410C2F200004021017040F2F41639
S315080021A0C2F200063078402840F0F5807F208DF88E
S315080021B0080078208DF80A0002A9404603228DF807
S315080021C0095000F065FCFEF731FB002800F0F980A5
S315080021D0044640F2FD100DF1080AC2F2000004217F
S315080021E0524601F0DFFE40F2B412C2F20002204667
S315080021F0514602F02FFC012840F0E38040F2FC1023
S31508002200C2F200000121017040F2F510C2F200008E
S3150800221000210170672089F8001031708DF80800D8
S315080022208DF8097002A94046EDE47F208DF8080074
S315080022308DF809503320A9E07F208DF808008DF825
S315080022400950242020E28DF8092040F29C02C2F2AF
S3150800225000026223127A2DE08DF80A1040F28401FA
S31508002260C2F2000162238DF80920097840F2910232
S315080022708DF80830C2F2000240F29C03C2F2000355
S31508002280002908BF03F1090211788DF80B1036E210
S315080022908DF8092040F29C02C2F20002622392F8ED
S315080022A0202007E08DF8092040F29C02C2F20002C5
S315080022B06223D2698DF808308DF80A108DF80B2044
S315080022C01DE27F218DF8081031218DF809508DF80F
S315080022D00A1023E202F04CFB40F20C01C2F20001A4
S315080022E00A6801254240530D83EAD273534083EAB4
S315080022F05203DB0743EA5202C30183EA50305040D7
S3150800230040F2FD120860010EC2F20002030C060A32
S31508002310117053709670D07040F20122C2F200021A
S31508002320157040F20222C2F20002177040F2F4124F
S31508002330C2F200020025157040F2B012C2F2000285
S31508002340157067228DF808208DF809708DF80A1027
S315080023508DF80B308DF80C608DF80D0002A94046FB
S315080023600622DDE140F29C02C2F20002907A117A5E
S3150800237000284BD0002949D1012655E0FFF7D4F9AA
S315080023807F208DF8080072208DF809508DF80A0014
S3150800239002A95846C3E1002089F800003070FFF70B
S315080023A0A0BB002038707F208DF808008DF80950F2
S315080023B07320ADE17F208DF808008DF8095037208D
S315080023C062E140F2F512C2F2000240F2FC10137804
S315080023D0C2F2000000210170581CC3B2032B107012
S315080023E089F800103170C0F0498102F0C1FA4EF642
S315080023F06021084440F2F811C2F2000108607F200B
S315080024008DF808008DF8095036203DE1D27A00286B
S3150800241018BF0120B2FA82F201394FEA521218BFE8
S315080024200121114301EA000640F2910A45F200092A
S31508002430C2F2000A3046C0F600098AF80060FEF7C4
S31508002440D9F940F2040BC2F2000BCBF80000304673
S31508002450FEF7E2F9DBF8002040F20801C2F20001BB
S3150800246008603AB900208AF800004FF43840CBF8E3
S315080024700090086040F20D307821C1F6DA004FF07E
S315080024807F088DF80A1002A903228DF808808DF8B6
S31508002490095000F0FDFA9AF800603046FEF7AAF9EE
S315080024A007463046FEF7B8F94F45C0F04B8100287D
S315080024B000F04881C61909F56C30864200F242815F
S315080024C0FFF77EF9B74209D23846FFF737F90328EE
S315080024D040F0368107F50067B742F5D3FFF724F9D0
S315080024E040F28400C2F20000012505709AF8001037
S315080024F040F29C00C2F2000080F821504172FEF7BB
S3150800250045F9DBF8000040F29401C2F200010860C8
S3150800251040F28000C2F200000021016040F27D0016
S31508002520C2F20000017040F29000C2F20000017091
S3150800253040F27C00C2F20000057071208DF8080098
S31508002540607861888DF8090040F20D30ADF80A1000
S3150800255002A9C1F6DA00D3E071208DF80800607888
S3150800256061888DF80900ADF80A1002A93046C7E05F
S3150800257040F2F410C2F20000002101707F208DF8AD
S3150800258008008DF8095071207EE00093FFF718F9CE
S3150800259040F29003C2F2000330044DD0D8F8000090
S315080025A040F28C0B40F294080234C2F2000BC2F2DD
S315080025B000084FF0000A019019780020042938BF56
S315080025C00120032914D81FFA8AF0205C03290BF886
S315080025D001004FF000000AF1010A38BF0120022964
S315080025E001F10101A6F1010601D83204EBD11970F7
S315080025F010BBD9F8000001990430884200F2958092
S31508002600DBF80010D8F80000FFF7EAF8032840F0D6
S315080026108C80D8F80000D9F800100430C8F80000FB
S31508002620081DC9F80000300440F29003C2F2000306
S315080026304FF000001870BFD1FFF776F876208DF8B6
S3150800264008000098FFF7D8BA0A040DD040F208230C
S31508002650C2F2000303448AB2013B661C16F8015F06
S31508002660013A03F8015FF9D1084488F80000782098
S315080026708DF808008DF80970FFF7C0BA7F208DF82D
S3150800268008008DF8095035208DF80A0002A9404641
S3150800269045E00021B1B340F20802C2F20002126816
S315080026A091422FD840F28802C2F20002116040F22D
S315080026B00401C2F20001096840F29402C2F2000263
S315080026C0116040F28001C2F20001086040F27D010B
S315080026D0C2F20001087040F29001C2F200010870CF
S315080026E040F27C00C2F200000121017042F274003F
S315080026F0C0F20100029040F20D30C1F6DA0002A9DC
S3150800270004220DE07F208DF808008DF8095031204D
S315080027108DF80A0040F20D30C1F6DA0002A903224C
S3150800272000F0B6F913B0BDE8F08F00203870FEF758
S31508002730FBFF7F208DF808008DF809507220E7E727
S31508002740FEF7F2FF72208DF80A0040F20D308DF880
S3150800275008808DF8095002A9C1F6DA00DFE70127DB
S31508002760FEF7E2FF7F208DF8490072208DF84B00B6
S315080027700DF14901584603228DF84A5000F088F9B0
S3150800278006E0784200270F2838BF0127FEF7CCFF5E
S31508002790002F7FF456AA40F203210020C2F200015E
S315080027A0087040F20421C2F20001087040F2840168
S315080027B0C2F2000188F80000087078207F268DF89C
S315080027C00A0002A9584603228DF808608DF80950B8
S315080027D000F05EF940F20801C2F20001D9F80000E3
S315080027E00968FEF729F810B18DF80860CBE5D9F825
S315080027F00000FEF719F840F29101C2F200010978CB
S31508002800826840F29C0001230029C2F2000019BF29
S31508002810C37200F11003837200F10C031A600022E0
S31508002820012380F821204172037541758275FDF7F1
S31508002830ADFF00287FF4A4AD77208DF8080002A923
S31508002840584601226CE749B200290CD451218DF86B
S31508002850090040F20D308DF80810C1F6DA0002A919
S31508002860022200F015F90520FEF7E0FAFDF722FE30
S3150800287010B540F26024C2F200042068012818BF8F
S3150800288010BD02F075F841F20C016158401AB0F516
S315080028907A7F24BF0020206010BD00002DE9F0419A
S315080028A082B0002800F0EC800D46002900F0E88090
S315080028B0044600780109032900F2E280DFE801F006
S315080028C0021B76C100F00F01681E4A1EC0B2D2B2C2
S315080028D0824280F0D58040F27802C2F20002126885
S315080028E040F26020C2F200000023002A036000F0D4
S315080028F0C780601CA1E0022DC0F0C280617800F09C
S315080029000F0041EA0026082EC0F0BA8040F2602780
S31508002910C2F2000741F204003E5241F206000021CD
S31508002920395241F208004FF0010807F80080C7F84D
S31508002930008002F01DF841F20C01032D785012D3E5
S31508002940A81E80B2B04238BF06464EB1F81C611CBC
S31508002950324600BF11F8013F013A00F8013FF9D1AC
S3150800296041F206003E523020ADF800004FF0CC3060
S31508002970CDF803006FF033008DF802808DF807005C
S3150800298001F0F6FF40F20D350446C1F6DA056E464B
S3150800299001F0EEFF001BC0087C2871D82846314696
S315080029A00822FEF703FA0028F2D169E040F2602611
S315080029B0C2F200063168012962D141F20801715C50
S315080029C000F00F0088425ED101F0D2FF41F2040CFC
S315080029D041F2060236F80C70B15A6B1E791A9FB28C
S315080029E0B94241F20C07B8BF0B461904F0510CD096
S315080029F098B2F71C651E00BFB15AAC783944013746
S31508002A00013805F101054C70F6D1B05A1844B05298
S31508002A1041F20802B15C80B24B1C36F80C1003F088
S31508002A200F038842B3542BD340F27800C2F2000059
S31508002A300268002030601AB3301D02B0BDE8F041CC
S31508002A40104740F29A0100F00F00C2F20001087028
S31508002A5040F29801C2F20001022D2CBF60780020D6
S31508002A60087040F29B01032D2CBFA0780020C2F20B
S31508002A700001087040F29900C2F2000001210170BD
S31508002A8002B0BDE8F0810020306002B0BDE8F081F8
S31508002A902DE9F04F87B000294FF0FF0573D00446A3
S31508002AA0A2F5805080B29246B0F5704F6BD98B462E
S31508002AB0BAF1070F2DD8BAF1000F8DF814A005D07A
S31508002AC005A8013059465246FDF7A2FB0AF1010056
S31508002AD081B207290AD805A911FA80F0CAF10601B8
S31508002AE0012212FA81F1CC22FDF709FC01F040FF20
S31508002AF0054605AE01F03CFF401BC0087C283DD8C2
S31508002B00204631460822FEF751F90028F2D1002561
S31508002B1039E04FEA1A20012161F31F108DF81400DD
S31508002B20DBF80000BBF804108DF815A0CDF81600E8
S31508002B30ADF81A1001F01CFF06460DF1140800BF87
S31508002B4001F016FF801BC5087C2D19D82046414682
S31508002B500822FEF72BF90028F2D17C2D12D8002086
S31508002B608DF8130001208DF812000DF113000DF1F8
S31508002B70120100F09FF850B1FF2504E0FF2502E09E
S31508002B80FF2500E0FF2568B207B0BDE8F08F08F121
S31508002B9001000190002003904FF0060901200290E1
S31508002BA005E00020B94600284FF0FF05EBD01FFAD4
S31508002BB089F5554567D29DF8130078B10399C9B2CE
S31508002BC081420BD30DF113000DF1120100F072F8DA
S31508002BD000284FF00000E6D1002003909DF912006E
S31508002BE00127B0F1FF3FC8BFC7B201F0C1FE37B138
S31508002BF0064600BF01F0BCFE801BB842FAD3AAEB1A
S31508002C000900072610F0F80F08BFC6B2029802217D
S31508002C1061F31F108DF814002EB101980BEB050116
S31508002C203246FDF7F5FA701CC1B24F46072909D896
S31508002C30C6F10601012258FA80F052FA81F1CC2237
S31508002C40FDF75DFB01F094FE814600BF01F090FEA2
S31508002C50A0EB0900C5087C2DA3D8204641460822CA
S31508002C60FEF7A4F80028F1D17C2D9AD80298B94627
S31508002C70013000F00F000290039806EB07090130B7
S31508002C80039001208FE740F25920C2F20000017834
S31508002C90002501297FF477AF40F25821C2F20001DE
S31508002CA00978057040F25020C2F20000FFF7F6FDE1
S31508002CB069E700002DE9F04F87B00C46054601F09C
S31508002CC057FE40F299070646C2F200070020387000
S31508002CD001F04EFE801BC0087C2857D840F25929BF
S31508002CE040F2582ACDE901540DF1180B04AC0DF148
S31508002CF00F05C2F20009C2F2000A4FF0010809E006
S31508002D0020461146FFF7CAFD01F032FE801BB0F5DA
S31508002D107A7F3DD2387818BB584621462A46FDF7B1
S31508002D2089FF0028F0D19DF80F202AB19DF81000E0
S31508002D3000F0F0003028E3D099F800000028E3D12D
S31508002D40082A28BF08228AF8002032B140F250200B
S31508002D50C2F200002146FDF7A0FA89F80080D3E701
S31508002D600020387040F29A00C2F20000007802286B
S31508002D7013D0A0B101F0FCFD064601F0F9FD801B59
S31508002D80B0F57A7F4FF0FF00C4D302E0FF2000E0E1
S31508002D90FF2040B207B0BDE8F08FFF20F9E740F208
S31508002DA09800C2F2000000780199087040F29B0072
S31508002DB0C2F200000078029908700020E9E70000D6
S31508002DC02DE9F04FF3B016460F46824601F140054D
S31508002DD00020102157F821200131182940EA020065
S31508002DE0F8D1002800F0038206F1400400201021E3
S31508002DF056F821200131182940EA0200F8D10028A6
S31508002E0000F0F88144F64C6944F60C68C0F60009EF
S31508002E10C0F600086BA829462A464B46CDF800801E
S31508002E2000F076FE0DF5C67B5846214622464B46EF
S31508002E30CDF8008000F06CFE5BA86BA92A464B46CD
S31508002E400295CDF80080454600F062FE53A8594623
S31508002E5022464B460194CDF8008000F059FE0DF548
S31508002E609678404639465A464B46009500F050FE3D
S31508002E700DF5867B07F12001584653AA4B464C466A
S31508002E80009500F045FE0DF1EC09484631466BAA5F
S31508002E902346009500F03CFE06F1200133AE30468D
S31508002EA05BAA2346009500F033FE00222BA80021DA
S31508002EB059F8213058F821409B1842F100021C1B92
S31508002EC062F1000340F82140013108294FEAE37214
S31508002ED0EED144F60C69B3F1FF3FC0F6000915DCE4
S31508002EE000210022002300BF50F8214059F8215044
S31508002EF0121943F10003AD1840F8215001F1010100
S31508002F0043F1000208294FF00003EDD1002313A96D
S31508002F10002200BF56F822505BF82240ED1843F114
S31508002F2000032D1B63F1000441F822500132082AE0
S31508002F304FEAE473EED1B4F1FF3F15DC002200231B
S31508002F40002600BF51F8225059F822405B1946F175
S31508002F5000061D1941F8225002F1010246F100034C
S31508002F60082A4FF00006EDD10022002350F822600F
S31508002F700132082A43EA0603F8D1002B00F0428101
S31508002F8044F64C68C0F6000823AE2BAF30463946E7
S31508002F903A464346CDF8009000F0BAFD1BAD2846E8
S31508002FA031463A464346CDF8009000F0B1FD0BAFE6
S31508002FB04BA9384632464346CDF8009000F0A8FDA6
S31508002FC003AE13A930460A464346CDF8009000F0F2
S31508002FD09FFD0021002000BF56F8202055F820301C
S31508002FE0521841F10001D31A61F1000246F8203067
S31508002FF0013008284FEAE271EED1DDE90184B2F129
S31508003000FF3F15DC00200021002200BF56F82030C3
S3150800301059F82050C91842F100024B1946F82030D9
S3150800302000F1010042F1000108284FF00002EDD13D
S315080030300021002056F8202057F82030521841F178
S315080030400001D31A61F1000246F820300130082841
S315080030504FEAE271EED1B2F1FF3F15DC0020002104
S31508003060002200BF56F8203059F82050C91842F1FE
S3150800307000024B1946F8203000F1010042F1000128
S3150800308008284FF00002EDD10021002056F8202034
S3150800309057F82030521841F10001D31A61F10002A5
S315080030A04AF82030013008284FEAE271EED1B2F131
S315080030B0FF3F15DC00200021002200BF5AF820300F
S315080030C059F82050C91842F100024B194AF8203025
S315080030D000F1010042F1000108284FF00002EDD18D
S315080030E00021002057F820205AF82030521841F1C4
S315080030F00001D31A61F1000247F820300130082890
S315080031004FEAE271EED1B2F1FF3F15DC0020002153
S31508003110002200BF57F8203059F82050C91842F14C
S3150800312000024B1947F8203000F1010042F1000176
S3150800313008284FF00002EDD144F64C65C0F60005AC
S3150800314013A938463A462B46CDF8009000F0E0FC25
S3150800315043A91BAA30462B46CDF8009000F0D8FCB0
S315080031600AF120000022002157F8213056F8215094
S315080031709B1842F100025D1B62F1000340F82150E2
S31508003180013108294FEAE372EED1B3F1FF3F15DCAE
S3150800319000210022002300BF50F8217059F8216051
S315080031A0D21943F10003971940F8217001F1010182
S315080031B043F1000208294FF00003EDD144F64C65AF
S315080031C0C0F600050BAE3046214642462B46CDF8E2
S315080031D0009000F09DFC0AF140002BAA31462B46D0
S315080031E0CDF8009000F094FC73B0BDE8F08F50461F
S315080031F0314601E0504639466022FDF74EF873B075
S31508003200BDE8F08F0020002251F820300130082850
S3150800321042EA0302F8D150462AB16021FDF799F82F
S3150800322073B0BDE8F08F394673B0BDE8F04F00F0D3
S3150800323001B800002DE9F04FBBB00C46824601F1FB
S3150800324040070020102100BF54F821200131182919
S3150800325040EA0200F8D1002800F01E8304F120019C
S315080032600020082354F823200133102B40EA0200DB
S31508003270F8D1002800F0108344F64C6544F60C6833
S31508003280C0F6000533AEC0F6000830460A462B469F
S315080032900191CDF8008000F03BFC0DF1AC0B5846CF
S315080032A039463A462B46CDF8008000F031FC0DF140
S315080032B08C094846214632462B46CDF8008000F058
S315080032C027FC00200021002259F82030DE0F11EBE0
S315080032D0430349F8203000F1010046EB02010828B3
S315080032E04FF00002F0D159B9072000BF59F8201055
S315080032F058F82020914203D815D30138411CF5D13E
S315080033000021002059F8202058F82030521841F1A1
S315080033100001D21A61F1000149F82020013008287D
S315080033204FEAE171EED100200021002259F8203041
S31508003330DE0F11EB430349F8203000F1010046EB9C
S31508003340020108284FF00002F0D159B9072000BF42
S3150800335059F8201058F82020914203D815D301387F
S31508003360411CF5D10021002059F8202058F82030BA
S31508003370521841F10001D21A61F1000149F82020E2
S31508003380013008284FEAE171EED144F64C631BAED2
S3150800339033A9C0F6000330460A46CDF8008000F08F
S315080033A0B7FB00200021002256F82030DD0F11EB74
S315080033B0430346F8203000F1010045EB02010828D6
S315080033C04FF00002F0D159B9072000BF56F8201077
S315080033D058F82020914203D815D30138411CF5D15D
S315080033E00021002056F8202058F82030521841F1C4
S315080033F00001D21A61F1000146F8202001300828A0
S315080034004FEAE171EED100200021002256F8203063
S31508003410DD0F11EB430346F8203000F1010045EBC0
S31508003420020108284FF00002F0D159B9072000BF61
S3150800343056F8201058F82020914203D815D30138A1
S31508003440411CF5D10021002056F8202058F82030DC
S31508003450521841F10001D21A61F1000146F8202004
S31508003460013008284FEAE171EED100200021002240
S3150800347056F82030DD0F11EB430346F8203000F1F3
S31508003480010045EB020108284FF00002F0D159B9B6
S31508003490072000BF56F8201058F82020914203D87C
S315080034A015D30138411CF5D10021002056F82020FB
S315080034B058F82030521841F10001D21A61F1000182
S315080034C046F82020013008284FEAE171EED10020A5
S315080034D00BAD00210022029754F820305BF82070CB
S315080034E0C91842F10002CB1945F8203000F1010055
S315080034F042F1000108284FF00002EDD151B907202A
S3150800350055F8201058F82020914203D815D30138D1
S31508003510411CF5D10021002055F8202058F820300C
S31508003520521841F10001D21A61F1000145F8202034
S31508003530013008284FEAE171EED1002203A80021E4
S3150800354054F821305BF821709B1842F10002DF1B0A
S3150800355062F1000340F82170013108294FEAE3724D
S31508003560EED1B3F1FF3F15DC00210022002300BF96
S3150800357050F8217058F82140D21943F10003171961
S3150800358040F8217001F1010143F1000208294FF0CA
S315080035900003EDD144F64C6313ACC0F6000303AA4E
S315080035A020462946CDF8008000F0B2FA0020002116
S315080035B0002200BF54F82030DF0F11EB430345F813
S315080035C0203000F1010047EB020108284FF0000205
S315080035D0F0D159B9072000BF55F8201058F8202017
S315080035E0914203D815D30138411CF5D1002100209A
S315080035F055F8202058F82030521841F10001D21A07
S3150800360061F1000145F82020013008284FEAE171F0
S31508003610EED100200021002255F8203054F8207001
S31508003620C91842F10002CB1944F8203000F1010014
S3150800363042F1000108284FF00002EDD151B90720E8
S3150800364054F8201058F82020914203D815D3013891
S31508003650411CF5D10021002054F8202058F82030CC
S31508003660521841F10001D21A61F1000144F82020F4
S31508003670013008284FEAE171EED144F64C6313A9EC
S31508003680C0F6000328460A46CDF8008000F040FA46
S315080036900021002055F8202059F82030521841F111
S315080036A00001D31A61F1000245F8203001300828DC
S315080036B04FEAE271EED1B2F1FF3F15DC002000219E
S315080036C0002200BF55F8203058F82070C91842F17A
S315080036D00002CB1945F8203000F1010042F1000143
S315080036E008284FF00002EDD10021002055F82020CF
S315080036F059F82030521841F10001D31A61F100023D
S315080037004AF82030013008284FEAE271EED1B2F1CA
S31508003710FF3F15DC00200021002200BF5AF82030A8
S3150800372058F82070C91842F10002CB194AF820301F
S3150800373000F1010042F1000108284FF00002EDD126
S315080037400021002059F820205AF82030521841F15B
S315080037500001D31A61F1000245F82030013008282B
S315080037604FEAE271EED1B2F1FF3F15DC00200021ED
S31508003770002200BF55F8203058F82070C91842F1C9
S315080037800002CB1945F8203000F1010042F1000192
S3150800379008284FF00002EDD144F64C63C0F600034A
S315080037A013A928462A46CDF8008000F0B1F90AF197
S315080037B020000022002100BF55F8213056F821705C
S315080037C09B1842F10002DF1B62F1000340F82170EA
S315080037D0013108294FEAE372EED1B3F1FF3F15DC58
S315080037E000210022002300BF50F8217058F82160FC
S315080037F0D21943F10003971940F8217001F101012C
S3150800380043F1000208294FF00003EDD144F64C635A
S31508003810DDE90112C0F600032846CDF8008000F065
S3150800382077F90AF1400000210022002355F821709B
S31508003830FE0F12EB470740F8217001F1010146EB34
S31508003840030208294FF00003F0D17AB90AF15C01A6
S31508003850002200BF08EB820751F82230FF69BB42FD
S3150800386004D816D3013A12F10803F3D10022002135
S3150800387050F8213058F821709B1842F10002DB1BE2
S3150800388062F1000240F82130013108294FEAE2725C
S31508003890EED13BB0BDE8F08F50466021FCF759FDEC
S315080038A03BB0BDE8F08F00002DE9F04F9DB002F166
S315080038B040070026102300BF52F823500133182B67
S315080038C046EA0506F8D1002E00F08380CDE90120EE
S315080038D0039197E84F00D7E905540DF1540ED7F830
S315080038E01CC08EE84F00CDE91A5444F60C6644F61F
S315080038F04C64002007214FF00109C0F60006C0F607
S31508003900000415ADCDF870C005E000BF0499002984
S31508003910A1F1010126D039A252F821804FF01F0BE0
S31508003920049105E00020ABF1010B1BF10101EDD07C
S3150800393009FA0BF101EA080A50EA0A00F2D0284609
S3150800394029462A462346009600F0E2F8BAF1000F07
S3150800395006D0284629463A462346009600F0D8F867
S315080039600120E0E715AB0FCB0DF1340C8CE80F0006
S31508003970DDE9190144F64C64CDE91101DDE91B01C5
S31508003980C0F6000415AD0DAFCDE91301284639463A
S315080039903A462346009600F0BBF80DF1140A504645
S315080039A029463A462346009600F0B2F8DDE901704A
S315080039B02A4639462346009600F0AAF8039807F1E6
S315080039C0200152462346009600F0A2F81DB0BDE835
S315080039D0F08F0022C0E90022C0E90222C0E90422D1
S315080039E0C0E90622C1E90022C1E90222C1E904228E
S315080039F0C1E906221DB0BDE8F08F00BFFDFFFFFF3D
S31508003A00FFFFFFFFFFFFFFFF0000000000000000B0
S31508003A100000000001000000FFFFFFFF82B000F079
S31508003A20ABFE032000F0C4F900F06AFF40F29C04E4
S31508003A30C2F200042046FCF7C7FDFDF7FBFD94F82B
S31508003A40211084F82000012908BFFDF703FE40F283
S31508003A509C04C2F20004204600F000FA0DF10701AA
S31508003A60204600F053FA002818BFFDF7F3FD9DF82D
S31508003A70070040F29C01C2F2000100F0C5FF98B1B0
S31508003A809DF8070040F29C06B0FA80F04509C2F29C
S31508003A9000062846314600F0B7FF044628B93046E6
S31508003AA03572FCF773FE00E00446002C18BFFDF7DC
S31508003AB0D1FD00BF00BFFDE770B50C460546FDF712
S31508003AC07FFE2846FDF73AFE032817D1002600BFD9
S31508003AD0A159A819FDF784FE032811D10436B6F5B5
S31508003AE0887FF5D1002000BF29582258914209D174
S31508003AF00430B0F5887FF7D1002404E0FF2402E003
S31508003B00FF2400E0FF24FDF70FFE60B270BD000041
S31508003B102DE9F04FB3B023AC0D4600902046402166
S31508003B2098469146FCF715FCA6464FF0000C214630
S31508003B3055F82C3000220026002400BF51F8240036
S31508003B4059F82470801846F10002E7FB030241F891
S31508003B5024000134082C4FF00006EFD10EEB8C0040
S31508003B600CF1010CBCF1080F01F104010262DFD16E
S31508003B7023AB0FCB0DF16C0C8CE80F00DDE92701A8
S31508003B802BAFCDE91F01DDE929010DF14C0CCDE97B
S31508003B902101CFCF0DF14C0B8CE8CF00DDE93110B8
S31508003BA00022CDE919100EF120000DF12C09019023
S31508003BB04FF0000A002000BF5BF8201001300828EB
S31508003BC04AEA010AF8D1BAF1000F00F08780704678
S31508003BD0402102927446FCF7BCFBA646002021460B
S31508003BE05BF8203000220024002600BF51F826701A
S31508003BF058F82650BF1844F10002E5FB037241F855
S31508003C0026700136082E4FF00004EFD10EEB800324
S31508003C100130082801F104011A62E1D123AB0FCB68
S31508003C200DF12C0C8CE80F00DDE92701019CCDE98C
S31508003C300F01DDE92901D4E90565CDE9110194E80B
S31508003C408F00E4690DF10C0C8CE88F00CDE908654E
S31508003C500020002200211BAE0A9400BF56F821302E
S31508003C6059F82170C01842F10002C31949F82130E9
S31508003C7001F1010142F1000008294FF00002EDD1DF
S31508003C8003AA58B1002000BF52F82010013142F8AB
S31508003C90201003D3072800F10100F5D30BAB0FCB97
S31508003CA00DF16C0C8CE80F00DDE90F0103AFCDE9CF
S31508003CB01F01DDE911010DF14C0CCDE92101CFCF32
S31508003CC0BAF1000F8CE8CF00DDE90910029A1A90C4
S31508003CD0199103D00132082A7FF46AAF1BAF8FCF40
S31508003CE0009CDDE92065DDF888C084E88F003C9FEC
S31508003CF00720C4E90565C4F81CC000BF54F82010A5
S31508003D0057F82020914203D815D30138411CF5D124
S31508003D100021002054F8202057F82030521841F18D
S31508003D200001D21A61F1000144F820200130082868
S31508003D304FEAE171EED133B0BDE8F08FB0B54EF67B
S31508003D400C5ECEF2000EDEF800304FF0FF35C3F3FE
S31508003D50022383F00704042C28BF0424033B05FA36
S31508003D6004F438BF0023A143994005FA03F39A43A4
S31508003D7000F00F03043B4EF2001C7344CEF2000C15
S31508003D8011430C33B0F1FF3F4FEA011100EB0C026F
S31508003D90C8BF02F540730028197048BFB0BD00F0CF
S31508003DA01F01012202FA01F140094CF82010B0BDAA
S31508003DB04EF60C51CEF200010A684FF6FF031A4080
S31508003DC060F30A2242F0806040F0FD700860704798
S31508003DD02DE9F04FCBB033AE0C460190304660214A
S31508003DE00292FCF7B6FA1BAF384621466022FCF76A
S31508003DF054FA4FF0070A03AC4FF0010B02984FF044
S31508003E001F0850F82A5000BF204631463A46FEF7AA
S31508003E10D7FF0BFA08F015EA0009304608BF3846FE
S31508003E200146FFF707FA384621466022B9F1000F26
S31508003E3008BF3046FCF731FAA8F1010818F101006D
S31508003E40E2D1BAF1000FAAF1010AD7D1019833A934
S31508003E506022FCF722FA4BB0BDE8F08F10B5044695
S31508003E60007D032804D8DFE800F002060F3210BDF3
S31508003E70002020752EE0A17D02202075481CA07523
S31508003E80032084F8200025E094F82000022805D1B4
S31508003E90A07D0130A0752046FCF778FCA07DE17D69
S31508003EA0884298BF10BDE06904210130E061002016
S31508003EB02075A075607D84F8201000280CBFE17A73
S31508003EC0A17A39B1B0FA80F04009207202E00020E8
S31508003ED02075A0752046BDE81040FCF757BC0000C9
S31508003EE040F60353C1F6DA0398420BD04FF6007337
S31508003EF0C1F6FF73184043F20033C1F6DB0398425C
S31508003F0018BF704708461146FEF7C8BC027D08234D
S31508003F10012A08BF1523C25C00200A7070470000FA
S31508003F202DE9F0410446D0E90878806E04F12805A9
S31508003F30421CA26680222A54A26E0E46392A0BD348
S31508003F40A0182830C2F14001FCF7E1F920462946BD
S31508003F5000F076F80020A066A16E60182830C1F13E
S31508003F603801FCF7D4F938BA98FA88F1C4E9181078
S31508003F702046294600F064F8F01E002104EB810271
S31508003F80D378C370528800F8042F54F82120120AF7
S31508003F90427054F82120013108298270EED1BDE81B
S31508003FA0F0810000F0B59DB006464EF26760C6F691
S31508003FB0092000904AF68560CBF6673001904FF2EB
S31508003FC07230C3F66E4002904FF23A50CAF24F5022
S31508003FD0039045F27F20C5F20E10049046F68C0039
S31508003FE0C9F6053005904DF6AB10C1F683700690FC
S31508003FF04CF61950C5F6E0300D46079000201446D9
S315080040001A90C800490F402D0991089009D36F46A8
S315080040103846314600F014F8403D3F2D06F140067B
S31508004020F6D835B16846283031462A46FCF7F0F806
S315080040301A9568462146FFF773FF1DB0F0BD0000CC
S315080040402DE9F04FC9B00446C81E002209A900BFD1
S31508004050D0F8033004301BBA41F822300132102A56
S31508004060F6D100228818876B43684FEA7745466A77
S3150800407085EAF74585EA972737444FEAF3168D58B8
S3150800408086EAB34686EAD3032F4404323B44C02A61
S315080040900364E7D1D4E90097E5694846D4E9053CC5
S315080040A038462846604604F1080B18469BE840093E
S315080040B05846089400223C464046CDF81C90069780
S315080040C00095CDF804C00293CDF80CB0CDF8108059
S315080040D03046059618464FEABB13DE4683EAFB23AD
S315080040E083EA7B6B00EA0E0144F6EC43C0F6000354
S315080040F059443746E24626464C462CEA0E0C53F8F7
S31508004100229009AB294453F82230614449441944A2
S315080041104FEAB40383EA743386EA070583EAB45C94
S31508004120254006EA07036B406344013201EB080B9E
S3150800413003EB0109402A554684467346B846C9D159
S31508004140069A059B2244019C3344049E00EB040C0A
S31508004150009807993744039E029D0AEB00040898C5
S3150800416049445E44754480E88E00C0E90465C0E9A8
S3150800417006C449B0BDE8F08F2DE9F04F8BB08B46E9
S31508004180DBE905650190D1E900010BF10807DBF8C9
S315080041901C408CCF0DF10C0CCDE9086544F6EC55A6
S315080041A044F62C668CE88F000A9400200721012427
S315080041B0C0F60005C0F6000603AF04E00299002920
S315080041C0A1F1010126D01DA252F821804FF01F0946
S315080041D0029105E00020A9F1010919F10101EDD0CC
S315080041E004FA09F101EA080A50EA0A00F2D0384648
S315080041F039463A4633460095FFF78AFCBAF1000F6E
S3150800420006D0384639465A4633460095FFF780FCAD
S315080042100120E0E7DDE903C105AF01988CCFDDE9B0
S3150800422008650A9CC0E900C100F108018CC1C0E913
S315080042300565C4610BB0BDE8F08F00BF4F2563FC70
S31508004240C2CAB9F3849E17A7ADFAE6BCFFFFFFFF03
S31508004250FFFFFFFF00000000FFFFFFFF2DE9F04111
S315080042608EB01124C0F21404204601210127FDF75F
S315080042703BF9601C0121FDF737F90C20C0F2180044
S315080042800121FDF731F908AC2046FDF7EBFAA0202D
S315080042900890022500264FF0904021460B95CDE95F
S315080042A009660C97FDF7E8FA2046FDF7DBFA402089
S315080042B008A9C1C14FF090402146CDE90B57FDF73B
S315080042C0DBFA4FF0904005210022FDF70FFB4FF077
S315080042D09040062100224FF00608FDF707FB4FF035
S315080042E0904007210022FDF701FB2046FDF7BAFAA8
S315080042F01020CDE908064FF090402146CDE90A671F
S315080043000C97FDF7B9FA4FF090401021FDF7A8FA7F
S315080043102046FDF7A7FA40F200450820C4F6000536
S31508004320CDE9080628462146CDE90A670C97FDF728
S31508004330A3FA28460821FDF791FA6C46204600F0B4
S3150800434077F943F20005C4F20105284621468DE8AF
S31508004350C001CDE90366CDE90567079700F086F940
S315080043602846012100F070F9B42003E00136B6F5BD
S315080043707A7F08D00D9000BF0D994A1E00290D922C
S31508004380F4D000BFF8E77E2000F0AAF800F0FB00A2
S31508004390702840F076802020412100F0F5F8202092
S315080043A000F09EF841286CD12620032100F0ECF895
S315080043B0262000F095F8032863D10120072100F094
S315080043C0E3F8B4200D9000BF0D994A1E0D9209B16D
S315080043D000BFF9E70D9000BF0D98411E0D9108B179
S315080043E000BFF9E7012000F07BF800F00700072876
S315080043F02BD00020B42103E00130B0F57A7F08D035
S315080044000D9100BF0D9A531E002A0D93F4D000BFDC
S31508004410F8E70120072100F0B7F8B4200D9000BF97
S315080044200D994A1E0D9209B100BFF9E70D9000BF1C
S315080044300D98411E0D9108B100BFF9E7012000F063
S315080044404FF800F0070007281BD10024B42502E026
S315080044500134142C19D0222000F042F840B200286A
S3150800446013D4002104E000BF0131B1F57A7FEFD003
S315080044700D9500BF0D9A531E002A0D93F4D000BF68
S31508004480F8E700200EB0BDE8F081C0B2C0090EB052
S31508004490BDE8F08180B582B00120072100F074F8EC
S315080044A0B420009000994A1E009209B100BFF9E7AE
S315080044B001900198411E019130B100BF00BF0198DB
S315080044C0411E00280191F9D1012000F009F800F0F9
S315080044D007000738B0FA80F0400902B080BD000036
S315080044E0B0B582B005464FF090401021FDF7B6F9F9
S315080044F0B42000900098411E009108B100BFF9E76A
S3150800450043F20004C4F201046D0000BF20460221F4
S3150800451000F0A6F80028F9D045F00100C1B22046FF
S3150800452000F09CF82046012100F09AF80028F9D0FE
S31508004530204600F08FF800BF2046022100F090F8D0
S315080045400028F9D02046FF2100F088F820460121EE
S3150800455000F086F80028F9D0204600F07BF8B42150
S31508004560019101990446481E019029B100BF01989E
S31508004570411E00280191F9D14FF090401021FDF716
S315080045806FF9E0B202B0B0BD70B582B00C4606460F
S315080045904FF090401021FDF761F9B420009000BF5C
S315080045A00098411E009108B100BFF9E743F20005E3
S315080045B0C4F201052846022100F052F80028F9D075
S315080045C07000C1B2284600F049F800BF284601210C
S315080045D000F046F80028F9D0284600F03BF800BF5E
S315080045E02846022100F03CF80028F9D02846214642
S315080045F000F034F82846012100F032F80028F9D0F6
S31508004600284600F027F8B42001900198411E019130
S3150800461030B100BF00BF0198411E00280191F9D1B1
S315080046204FF09040102102B0BDE87040FDF718B970
S3150800463000210122C0E90011C0E90211C0E90411F4
S31508004640C0E9061270470000026861F3861202602C
S3150800465070470000C06880B270470000C1607047AC
S315080046608068084018BF012070470000C26922F41C
S315080046700062C2610A68032A27D8DFE802F0020648
S31508004680121A026822F400420EE0026822F400427E
S315080046900260026822F480420260026842F4806284
S315080046A012E0026842F400420260026822F4804284
S315080046B006E0026842F400420260026842F4804260
S315080046C00260026822F480620260CA69036862F3C3
S315080046D0492303604A68012A06D1CA69012A03D117
S315080046E0026842F4807202E0026822F48072026074
S315080046F04A68036862F3820303608B68072B0CD849
S31508004700426822F400724260426822F48072426073
S315080047108B68026863F3C50218E042680A2B0AD15F
S3150800472042F400724260426822F480724260026873
S3150800473022F038020AE022F400724260426842F42B
S31508004740807242608B68026863F3C5020260CA68B9
S31508004750036862F3C71303600A69036862F3CB232D
S3150800476003604A69036862F3410303608969026862
S3150800477061F300020260704780B5FCF70BFF42F256
S315080047800000C4F2020040F2551101604FF01C10FF
S315080047900121FCF7A9FE47F21000C4F200000168E7
S315080047A041F00301016001200121FCF709FE00BF69
S315080047B0FCF788FE0028FBD002202C21FCF7BCFE63
S315080047C002200121FCF7FCFD1920FCF76DFE0128EB
S315080047D0FAD10020FCF7B4FD0520FCF7CFFD002038
S315080047E0FCF7C2FD0020FCF7B5FD0120FCF7D0FD63
S315080047F00220FCF7F9FE00BFFCF714FF0228FBD1E4
S315080048000020FCF7C5FDBDE8804000F001B80000B7
S31508004810B0B541F2040441F20025C4F20204C0F224
S315080048207A05FCF7FFFE02280CD0002850D1206D2F
S3150800483080054DD5E06A800144BF46F60045C0F2C2
S31508004840DC2545E02068A16AC0F3004C00291AD48B
S3150800485021682268C1F38341C2F341721301581CCF
S315080048600F29034618BF0223002A18BF0346BCF1C6
S31508004870000F03EB010020D140F60011C0F23D0104
S3150800488000FB01F524E0A06AA36AC0F3031EA06A30
S3150800489040F60011C0F23D01C3F30823BCF1000F36
S315080048A000F0070003D02268920358BF29465943EF
S315080048B00EFA00F0B1FBF0F50AE02168890301D48D
S315080048C0454305E040F60011C0F23D0100FB01F545
S315080048D040F21000C2F200000560216804A2C1F38C
S315080048E00311515C026822FA01F10160B0BD00BFF4
S315080048F00000000000000000010203040607080982
S3150800490041F27431C2F200010020086041F27831A8
S31508004910C2F200011039102201F8100F013A48704E
S3150800492048608860C860F7D140F21000C2F2000003
S31508004930006844F6D351C1F26201A0FB01014FF0B1
S31508004940FF3000EB91110020B0EB116F18BF7047D4
S315080049504EF21002CEF2000251604EF62351CEF20C
S315080049600001F0230B70906007201060704700006C
S3150800497041F27430C2F2000000687047F0B581B0A9
S3150800498041F278350024C2F20005002604E000BF93
S315080049901036B6F5807F0FD0A85D0228F8D1AF197A
S315080049A0F868002818BF8047787800281ABF7C6006
S315080049B001200020A855EBE701B0F0BD80B541F213
S315080049C07430C2F20000016841F2783E013101609C
S315080049D00020C2F2000E4FF0020C04E01030B0F5D1
S315080049E0807F08BF80BD1EF80030012BF6D10EEB84
S315080049F000035A68996801325A605A688A4228BF81
S31508004A000EF800C0EAE7000070B50C460646FBF74C
S31508004A10F1FE05463046FBF7FFFE2DB1014618B1FB
S31508004A202846FBF709FF10B14FF0FF3070BD0B2089
S31508004A30002E08BF0A20215C21B9012121542046F5
S31508004A40FBF7A4FE05F58070FBF766FD4FF0FF3017
S31508004A5070BD00002DE9F04FADF5397D05460078AB
S31508004A6004283DD1B1A88A46011F0023D718FF693B
S31508004A70043B3FBA13F1200641F8047FF6D1A9A9F1
S31508004A800B1F0027D619F66B043F36BA17F1200418
S31508004A9043F8046FF6D10022002300BF50F82270B5
S31508004AA00132082A43EA0703F8D1CBB100220023D2
S31508004AB051F822700132082A43EA0703F8D17BB17C
S31508004AC044F6EC570722C0F6000700BF50F822301C
S31508004AD057F82260B34203D807D3013A531CF5D1DD
S31508004AE000200DF5397DBDE8F08F072251F8220028
S31508004AF057F822309842F3D808D3013A501C4FF0A1
S31508004B000000F3D10DF5397DBDE8F08F0DF5D278AB
S31508004B10691C4046FBF7F4FE05F1210108F1200067
S31508004B20FBF7EEFE44F6A844C0F600040DF5A2799C
S31508004B30611C4846FBF7E4FE09F1200004F1210157
S31508004B40FBF7DEFE0DF5217B58465146FBF7D8FEEE
S31508004B5099AEA9A93046FFF70FFB44F62C65C0F6B7
S31508004B6000050DF5117A5046594632462B460097F0
S31508004B70FEF7CEFF89ACB1A9204632462B460097F0
S31508004B80FEF7C6FF002501200DF1E40B6190CDE983
S31508004B9079055846494652466895CDE96655CDE9A0
S31508004BA06455CDE96255CDE97B55CDE97D55CDE90D
S31508004BB07F55FFF70DF921AE304641462246FFF7ED
S31508004BC007F909AC204659463246FEF7F9F810208F
S31508004BD054F820100130182845EA0105F8D1002DAF
S31508004BE03FF47EAF01AC81A909AA2046FEF75CFE18
S31508004BF0072054F8201057F82020914203D816D3DE
S31508004C000138411CF5D10021002000BF54F82020AE
S31508004C1057F82030521841F10001D21A61F100010B
S31508004C2044F82020013008284FEAE171EED101A8A6
S31508004C30B1A92022FBF7C0FAB0FA80F040090DF5B9
S31508004C40397DBDE8F08FF1EE100A4FF6FF71C0F21C
S31508004C50C03120EA010040F04070E1EE100A7047CA
S31508004C6004790D96CA912D90DB73DF21B06EE7CEDD
S31508004C7019AA7C1F7530550A48218419B44B4C373C
S31508004C80CBF57CD3FC9E26BE1BA694DD45627EAA88
S31508004C90CA7138F57A8EA8D5DD20703326F095418D
S31508004CA0710000005045594B046B17D1F2E12C42B4
S31508004CB047F8BCE6E563A440F277037D812DEB3324
S31508004CC0A0F4A13945D898C2964FE342E2FE1A7F6E
S31508004CD09B8EE7EB4A7C0F9E162BCE33576B315EC5
S31508004CE0CECBB6406837BF51F5000000982F8A42F0
S31508004CF091443771CFFBC0B5A5DBB5E95BC2563920
S31508004D00F111F159A4823F92D55E1CAB98AA07D837
S31508004D10015B8312BE853124C37D0C55745DBE725A
S31508004D20FEB1DE80A706DC9B74F19BC1C1699BE4DA
S31508004D308647BEEFC69DC10FCCA10C246F2CE92D6A
S31508004D40AA84744ADCA9B05CDA88F97652513E988E
S31508004D506DC631A8C82703B0C77F59BFF30BE0C695
S31508004D604791A7D55163CA0667292914850AB72723
S31508004D7038211B2EFC6D2C4D130D385354730A65C0
S31508004D80BB0A6A762EC9C281852C7292A1E8BFA297
S31508004D904B661AA8708B4BC2A3516CC719E892D1FF
S31508004DA0240699D685350EF470A06A1016C1A41982
S31508004DB0086C371E4C774827B5BCB034B30C1C3981
S31508004DC04AAAD84E4FCA9C5BF36F2E68EE828F7440
S31508004DD06F63A5781478C8840802C78CFAFFBE905A
S31508004DE0EB6C50A4F7A3F9BEF27871C6512563FCA3
S31508004DF0C2CAB9F3849E17A7ADFAE6BCFFFFFFFF48
S31508004E00FFFFFFFF00000000FFFFFFFFFFFFFFFFA0
S31508004E10FFFFFFFFFFFFFFFF00000000000000008C
S31508004E200000000001000000FFFFFFFFAFDA9C034F
S31508004E303D35460C7B61E8585205194300000000D1
S31508004E4000000000FFFFFFFF000000000100000057
S31508004E500000000000000000FFFFFFFFFFFFFFFF4C
S31508004E60FFFFFFFFFEFFFFFF000000000001020337
S31508004E7004050607080C101418203040A04E000838
S31508004E80000000201800000014010008B84E0008B1
S31508004E9018000020603600003001000800000000FD
S31508004EA0010000000050000800B8000078563412CF
S30D08004EB000127A000000000060
S705080000D919
