S315080051005835002079520008455600082D560008E3
S31508005110395600080D560008E95700080000000037
S31508005120000000000000000000000000B95600085A
S315080051302956000800000000B55600081157000857
S31508005140935200089352000893520008935200089D
S31508005150935200089352000893520008935200088D
S31508005160000000009352000893520008935200086A
S31508005170935200089352000893520008000000005A
S31508005180935200089352000800000000935200084A
S31508005190935200089352000893520008935200084D
S315080051A0935200089352000893520008935200083D
S315080051B0E157000800000000935200082156000835
S315080051C0935200080000000093520008935200080A
S315080051D0195600089352000800F002F800F03CF84F
S315080051E00AA090E8000C82448344AAF10107DA4534
S315080051F001D100F031F8AFF2090EBAE80F0013F04A
S31508005200010F18BFFB1A43F001031847906D000001
S31508005210B06D0000103A24BF78C878C1FAD8520792
S3150800522024BF30C830C144BF04680C607047000012
S315080052300023002400250026103A28BF78C1FBD891
S31508005240520728BF30C148BF0B6070471FB506F02C
S3150800525048FD1FBD10B510BD00F09DF91146FFF7BA
S31508005260F5FF04F05BFB00F0BBF903B4FFF7F2FFB0
S3150800527003BC00F0C3F90000094880470948004705
S31508005280FEE7FEE7FEE7FEE7FEE7FEE7FEE7FEE7E8
S31508005290FEE7FEE704480549054A064B7047000045
S315080052A019570008D951000858130020583500200E
S315080052B0581500205815002053EA020C00F06980A2
S315080052C02DE9F04B4FF00006002B1FBFB3FA83F50C
S315080052D003FA05F424FA05F65E4012BF1643B2FA3D
S315080052E082F502FA05F4C5F120051EBF22FA05FC6F
S315080052F044EA0C04203556EA044C4FEA144418BF15
S31508005300641C4FF000084FF00009904271EB030C43
S3150800531039D3002919BFB1FA81F701FA07F6B0FAAD
S3150800532080F700FA07F6C7F120071EBF20FA07FC28
S3150800533046EA0C062037B6FBF4FCA7EB0507103F38
S3150800534007F01F0BCBF120062CFA06F60CFA0BFB1E
S3150800535044BFB3460026202FA4BF5E464FF0000B7D
S315080053605BEA060C08BF4FF0010B19EB0B0948EB7B
S315080053700608ABFB027C06FB02CC0BFB03CCC01B6E
S3150800538071EB0C01C1E70B46024641464846BDE8AB
S31508005390F08B13B5084318BF4FF0FF300146AFF343
S315080053A00080BDE81C40704740EA010310B59B0722
S315080053B00FD1042A0DD310C808C9121F9C42F8D071
S315080053C020BA19BA884201D9012010BD4FF0FF3022
S315080053D010BD1AB1D30703D0521C07E0002010BD38
S315080053E010F8013B11F8014B1B1B07D110F8013BC4
S315080053F011F8014B1B1B01D1921EF1D1184610BDA5
S31508005400032A40F2308010F0030C00F0158011F8E2
S31508005410013BBCF1020F624498BF11F801CB00F8BA
S31508005420013B38BF11F8013BA2F1040298BF00F80E
S3150800543001CB38BF00F8013B11F0030300F02580CB
S31508005440083AC0F0088051F8043B083A51F804CBF2
S31508005450A0E80810F5E7121D5CBF51F8043B40F8B8
S31508005460043BAFF30080D20724BF11F8013B11F8C3
S3150800547001CB48BF11F8012B24BF00F8013B00F807
S3150800548001CB48BF00F8012B704710B5203AC0F091
S315080054900B80B1E81850A0E81850B1E81850A0E8F9
S315080054A01850203ABFF4F5AF5FEA027C24BFB1E892
S315080054B01850A0E8185044BF18C918C0BDE81040D5
S315080054C05FEA827C24BF51F8043B40F8043B08BFDE
S315080054D07047D20728BF31F8023B48BF11F8012BA5
S315080054E028BF20F8023B48BF00F8012B704702F09E
S315080054F0FF0343EA032242EA024200F024B84FF0CF
S3150800550000020429C0F0128010F0030C00F01B8082
S31508005510CCF1040CBCF1020F18BF00F8012BA8BF90
S3150800552020F8022BA1EB0C0100F00DB85FEAC17C54
S3150800553024BF00F8012B00F8012B48BF00F8012B07
S3150800554070474FF0000200B5134694469646203938
S3150800555022BFA0E80C50A0E80C50B1F12001BFF41E
S31508005560F7AF090728BFA0E80C5048BF0CC05DF884
S3150800557004EB890028BF40F8042B08BF704748BFD2
S3150800558020F8022B11F0804F18BF00F8012B704746
S31508005590704770477047754600F02CF8AE46050010
S315080055A06946534620F00700854618B020B5FFF730
S315080055B071FEBDE820404FF000064FF000074FF09F
S315080055C000084FF0000BAC46ACE8C009ACE8C009CF
S315080055D0ACE8C009ACE8C00921F007018D46704760
S315080055E010B50446AFF300802046BDE81040FFF72B
S315080055F03CBE0000004870471000002001491820F2
S31508005600ABBEFEE726000200704700004FF00051CF
S31508005610FA20086000F070F980B500F0F3FB80BD51
S3150800562080B500F059FE80BD704700004FF000516C
S31508005630FA20086000F060F94FF00051FA2008607F
S3150800564000F05AF97047000088B007900691059255
S31508005650079800F0070004900498C0F10700052891
S3150800566003D3FFE70420019004E00498C0F1070083
S315080056700190FFE70198039004980430062803D8A0
S31508005680FFE70020009003E0049803380090FFE746
S315080056900098029006980399012202FA01F101394D
S315080056A00840029B984005999A40013A11400843E0
S315080056B008B07047704700007047000080B582B098
S315080056C0009000980138B0F1807F03D3FFE70120EE
S315080056D0019019E0009801384EF21401CEF200014B
S315080056E008604FF0FF300F2100F0C6F84EF218019F
S315080056F0CEF20001002008604EF21002CEF200023F
S31508005700072111600190FFE7019802B080BD0000F3
S3150800571080B505F08FFF80BD4EF68851CEF20001A8
S31508005720086840F47000086041F20001C4F2020102
S31508005730086840F001000860FFE741F20000C4F283
S31508005740020000684008C00708B9FFE7F5E741F21C
S315080057500401C4F20201086820F003000860FFE7AC
S3150800576041F20400C4F2020000688008800708B10C
S31508005770FFE7F5E741F20001C4F2020108684FF6B7
S31508005780FF72CFF6F2621040086041F20401C4F2DB
S3150800579002010020086041F22C02C4F2020241F61E
S315080057A01071116041F23001C4F20201086041F241
S315080057B00801C4F202014FF41F00086041F26801B3
S315080057C0C4F20201086840F00100086045F20010C2
S315080057D0C0F600004EF60851CEF200010860704788
S315080057E080B504F087FE80BD4FF00051FA200860AE
S315080057F000F082F881B08DF803009DF903000028B7
S315080058000ED4FFE79DF9031001F01F020120904016
S315080058104A094EF20011CEF2000141F82200FFE7D4
S3150800582001B070474EF60C50CEF200000068C0F387
S315080058300220704782B08DF8070000919DF9070095
S3150800584000280AD4FFE7009800019DF907104EF2D8
S315080058500042CEF2000288540BE0009800019DF841
S31508005860071001F00F014EF61452CEF200028854CA
S31508005870FFE702B07047000082B08DF8070000917C
S315080058809DF9070000280AD4FFE7009800019DF952
S3150800589007104EF20042CEF2000288540BE0009840
S315080058A000019DF8071001F00F014EF61452CEF2D2
S315080058B000028854FFE702B07047000083B00290E8
S315080058C0029800F0070000904EF60C51CEF2000147
S315080058D00868019001984FF6FF0210400190019860
S315080058E0009A40EA02200022C0F2FA5210430190C0
S315080058F00198086003B07047BFF34F8F4EF60C51FE
S31508005900CEF20001086800F4E0600422C0F2FA5200
S3150800591010430860BFF34F8FFFE700BFFDE70000A5
S31508005920BFF34F8F4EF60C51CEF20001086800F413
S31508005930E0600422C0F2FA5210430860BFF34F8FAA
S31508005940FFE700BFFDE70000BFF34F8F4EF60C518F
S31508005950CEF20001086800F4E0600422C0F2FA52B0
S3150800596010430860BFF34F8FFFE700BFFDE7000055
S3150800597088B0079006910592002003900290019046
S31508005980FFE70198072821DCFFE70698019A50F8F7
S315080059902200059951F8221010EB010C4FF0000176
S315080059A041F10003029A039812EB0C025841029245
S315080059B003900298079A019B42F8230003980391E3
S315080059C00290FFE7019801300190DAE7029808B0E3
S315080059D07047000084B00290019107200090FFE70D
S315080059E0009800281FD4FFE70298009A50F8220072
S315080059F0019951F82210884203D9FFE70120039044
S31508005A0014E00298009A50F82200019951F82210E1
S31508005A10884203D2FFE70020039007E0FFE70098DB
S31508005A2001380090DCE701200390FFE7039804B0F3
S31508005A307047000083B00290002001900090FFE7B5
S31508005A40009807280CDCFFE70298009950F8211007
S31508005A50019808430190FFE7009801300090EFE7AE
S31508005A600198B0FA80F0400903B0704780B598B045
S31508005A70179016911592149304A84021FFF761FD1B
S31508005A8000200390FFE7039807283BDCFFE7002088
S31508005A90019000900290FFE70298072827DCFFE7AD
S31508005AA01598039950F82100149B029A53F822304E
S31508005AB0114404AA52F821E000218C46E0FB03ECCD
S31508005AC0009B019813EB0E0340EB0C00009301902A
S31508005AD00098039BDDF808C0634442F82300019848
S31508005AE001910090FFE7029801300290D4E70098F0
S31508005AF0039A04A901EB82010862FFE703980130C3
S31508005B000390C0E700200390FFE70398072813DCFB
S31508005B10FFE7039B04A850F82310179A42F82310AE
S31508005B20039A00EB8200006A169941F82200FFE703
S31508005B30039801300390E8E718B080BD8AB0099051
S31508005B40089107920020059004900390FFE70398B8
S31508005B50072822DCFFE70898039A50F822000799DD
S31508005B6051F82210421A4FF0000161F10000DDF8E9
S31508005B7010C0059BB2EB0C02984100920190009868
S31508005B80099A039B42F823000198C00F05910490D7
S31508005B90FFE7039801300390D9E704980AB07047E5
S31508005BA080B582B08DF807009DF8070040B1FFE781
S31508005BB040F20040C4F60000042102F057FA07E05C
S31508005BC040F20040C4F60000042102F045FAFFE75F
S31508005BD002B080BD80B58CB01120C0F2140001213E
S31508005BE0079101F09FFC07991220C0F2140001F0FA
S31508005BF099FC0AA8099002F043FA079809998DF8C2
S31508005C002E00002006908DF82C008DF82D0002201D
S31508005C1003908DF82F0048F2027001900A904FF019
S31508005C209040089002F03EFA0199089802F014FA9A
S31508005C30099940F2315002900A9040F20040C4F6A9
S31508005C400000049002F02EFA0299049802F004FA71
S31508005C50039A049809990A9202F024FA0399049877
S31508005C6002F0FAF904980999042205920A9202F0B8
S31508005C7019FA0498059902F0EFF9099802F000FA62
S31508005C80069B079A089809990A928DF82E308DF87E
S31508005C902D2002F007FA0CB080BD000080B54FF049
S31508005CA09040012102F072FAB0FA80F0400980BDF6
S31508005CB084B00390029100200190FFE7019807281D
S31508005CC012DCFFE70198C0F10700800000900298F7
S31508005CD00099405800BA0399019A41F82200FFE753
S31508005CE0019801300190E9E704B0704781B000904F
S31508005CF000990120087000990C204880009904201A
S31508005D0008710099487000990620C88000990220F9
S31508005D1008720099487100990720487201B07047C7
S31508005D2082B00190009100980078421E0199086996
S31508005D3062F30400086100984088821E0199486849
S31508005D4062F30800486000980079421E0199486885
S31508005D5002F07F0220F4FE0040EA02404860009804
S31508005D604078421E0199486802F07F0220F0FE4002
S31508005D7040EA026048600098C088821E01998868D7
S31508005D8062F3070088600098007A421E01998868C5
S31508005D9002F07F0220F4FE0040EA02408860009884
S31508005DA04079421E0199886802F07F0220F0FE4081
S31508005DB040EA026088600098427A0199086920F4EE
S31508005DC07F4040EA0220086102B0704782B0019025
S31508005DD000208DF803000198806AC00720B1FFE70C
S31508005DE001208DF80300FFE79DF8030002B0704715
S31508005DF081B000900099886A40F00100886201B07D
S31508005E007047000080B546F20040C4F20000022147
S31508005E1000F032FDE8B1FFE746F20040C4F20000A8
S31508005E20FFF7D4FF68B1FFE746F20040C4F200006E
S31508005E30FFF7DEFF40F27401C2F20001012008708C
S31508005E40FFE746F20040C4F20000022100F00CFD14
S31508005E50FFE746F20040C4F200004FF4807100F0FC
S31508005E600BFD48B1FFE746F20040C4F200004FF4CC
S31508005E70807100F0F9FCFFE746F20040C4F200002A
S31508005E804FF4007100F0F8FC48B1FFE746F2004015
S31508005E90C4F200004FF4007100F0E6FCFFE746F29A
S31508005EA00040C4F200004FF4806100F0E5FC48B100
S31508005EB0FFE746F20040C4F200004FF4806100F0AC
S31508005EC0D3FCFFE780BD000080B598B01120C0F272
S31508005ED014000121099101F025FB09991920C0F246
S31508005EE01C0001F01FFB09990020089001F022F917
S31508005EF016A80A9002F0C4F8089A09980A994FF465
S31508005F0000631693022307938DF85E308DF85C20A4
S31508005F108DF85D008DF85F004FF090400B9002F011
S31508005F20C1F80B980B2104220C9202F04BF90A983F
S31508005F3002F0A6F8DDF81CC0089B099A0A990B9886
S31508005F404FF4805ECDF858E08DF85EC08DF85C3071
S31508005F508DF85D308DF85F2002F0A4F80B980C9A46
S31508005F600C2102F02FF904F0FBFD18B9FFE704F045
S31508005F70F7FDFFE746F20040C4F20000039000F088
S31508005F80D5FD03980021069100F0A6FC13A8019000
S31508005F90FFF7ACFE019903980A228DF84C200422DB
S31508005FA08DF84D203F22ADF84E2009228DF850205D
S31508005FB0FFF7B6FE0DA8029000F01EFB029A0398A2
S31508005FC0069940F60353C1F6DA030D9301230493A9
S31508005FD08DF838308DF839106FF0604CCDF840C028
S31508005FE08DF844308DF845308DF846108DF84A10F6
S31508005FF000F054FB0398049A069900F027FB0298D0
S3150800600000F0FAFA029A03980499069B43F2003CB8
S31508006010C1F6DB0CCDF834C08DF838108DF8393060
S315080060204FF6007CC1F6FF7CCDF840C08DF84410D1
S315080060308DF845108DF846308DF84A3000F02EFB65
S315080060400398049A114600F001FB0398049A8021EC
S3150800605000F026FC0398049A0221059100F020FC22
S315080060600499069A1F2003F0B3FE0599069A242080
S3150800607003F0AEFE069841F24D21C2F20001087007
S3150800608041F24E21C2F20001087041F24C21C2F2DF
S315080060900001087040F23811C2F20001086040F2AF
S315080060A07001C2F20001086040F27401C2F20001F8
S315080060B0087018B080BD000080B586B0FFE741F2D1
S315080060C04C20C2F20000007801285EDBFFE741F2AF
S315080060D04E21C2F200010878020141F24C10C2F2C8
S315080060E0000082580292097800EB0110007B8DF8B7
S315080060F0140000208DF80700FFE79DF807009DF8BB
S31508006100141088421BDAFFE741F24E20C2F2000063
S31508006110017841F24C10C2F2000000EB01109DF824
S315080061200710084400799DF8072002A91144087150
S31508006130FFE79DF8070001308DF80700DDE741F21B
S315080061404E21C2F200010878013000F00F000870F5
S3150800615072B641F24C21C2F2000108780138087083
S3150800616062B640F23810C2F20000006860B1FFE77C
S3150800617040F23810C2F200000368029802A90431FE
S315080061809DF814209847FFE799E740F27400C2F299
S3150800619000000078A8B1FFE740F27401C2F20001DE
S315080061A00020087040F27000C2F20000006838B1A2
S315080061B0FFE740F27000C2F2000000688047FFE780
S315080061C0FFE706B080BD000085B0039002910192FA
S315080061D0039830B1FFE7029818B1FFE7019820B994
S315080061E0FFE7FF208DF813005DE072B641F24C2000
S315080061F0C2F20000007828B9FFE762B6FF208DF8E2
S31508006200130050E041F24E21C2F200010878020163
S3150800621041F24C10C2F200008258039B1A600978BA
S3150800622000EB0110007B8DF802009DF80200019931
S31508006230087000208DF80300FFE79DF803009DF81D
S31508006240021088421ADAFFE741F24E20C2F2000035
S31508006250017841F24C10C2F2000000EB01109DF8E3
S3150800626003100844007902999DF803208854FFE733
S315080062709DF8030001308DF80300DEE741F24E2158
S31508006280C2F200010878013000F00F00087041F2F0
S315080062904C21C2F2000108780138087062B6002065
S315080062A08DF81300FFE79DF9130005B0704700004D
S315080062B081B00090009840F27001C2F200010860B7
S315080062C001B0704781B00090009840F23811C2F2D0
S315080062D00001086001B0704780B598B046F20040EA
S315080062E0C4F20000802100F0C7FA002800F0878079
S315080062F0FFE746F20040C4F2000003A900F030FCB4
S31508006300012870D1FFE704F06DF900286AD1FFE78C
S31508006310039A41F24D21C2F200010878030141F2C5
S315080063204C10C2F20000C2509DF8122002F00F0273
S315080063300B7800EB03131A73097800EB0110007B46
S3150800634009280ED3FFE741F24D20C2F2000001787A
S3150800635041F24C10C2F2000000EB0111082008734C
S31508006360FFE700208DF80B00FFE79DF80B0041F2D0
S315080063704D21C2F200010A7841F24C11C2F2000125
S3150800638001EB0211097B88421BDAFFE79DF80B1027
S3150800639003A80844807A41F24D21C2F200010A7826
S315080063A041F24C11C2F2000101EB02119DF80B20DB
S315080063B011440871FFE79DF80B0001308DF80B00BA
S315080063C0D3E741F24D21C2F200010878013000F00E
S315080063D00F00087041F24C21C2F200010878013022
S315080063E00870FFE7FFE746F20040C4F2000001909C
S315080063F000F08AFC0198802100F036FAFFE746F2A1
S315080064000040C4F20000402100F036FA40B1FFE730
S3150800641046F20040C4F20000402100F025FAFFE7EA
S3150800642018B080BD80B59CB01A9019918DF863207C
S31508006430199828B1FFE79DF86300092804D3FFE7F8
S31508006440FF208DF86F00A6E01A98059001208DF8B8
S31508006450180000208DF819008DF85E008DF85D0093
S315080064609DF8630001460191072826D80199DFE8BF
S3150800647001F004080C1014181C2000208DF81A00CE
S315080064801FE001208DF81A001BE002208DF81A0083
S3150800649017E003208DF81A0013E004208DF81A007F
S315080064A00FE005208DF81A000BE006208DF81A007B
S315080064B007E007208DF81A0003E008208DF81A0077
S315080064C0FFE700208DF80B00FFE79DF80B009DF80D
S315080064D0631088420EDAFFE719989DF80B20805C56
S315080064E005A911444872FFE79DF80B0001308DF8A5
S315080064F00B00EAE746F20040C4F2000003A900F0E8
S315080065002DFC9DF80D0028B1FFE79DF80D00032826
S3150800651004D1FFE700208DF8130014E046F200408E
S31508006520C4F2000000F012FC8DF812009DF812006B
S31508006530032804D1FFE7FF208DF86F002BE0012028
S315080065408DF81300FFE79DF8131046F20040C4F2D9
S31508006550000005AA00F088FC012804D0FFE7FF2008
S315080065608DF86F0017E09DF8130040B9FFE746F273
S315080065700040C4F20000102100F00AFC07E046F2D1
S315080065800040C4F20000042100F002FCFFE70020EE
S315080065908DF86F00FFE79DF96F001CB080BD000005
S315080065A080B584B0029004F0E3FF0190FFE746F25D
S315080065B00040C4F20000694600F0D0FB9DF80100D7
S315080065C028B1FFE79DF80100032804D1FFE7002062
S315080065D08DF80F000CE0FFE704F0CAFF0199401A96
S315080065E002998842E3D3FFE7FF208DF80F00FFE703
S315080065F09DF90F0004B080BD81B00090009900207D
S315080066000860009908710099487100998871009985
S3150800661088720099C87100990872009948720099A1
S315080066204FF0FF30C860009901200874009948743B
S31508006630009A0F219174009988750099C874009979
S3150800664008750099487501B07047000082B001903E
S315080066508DF803108DF802209DF8020068B1FFE757
S315080066609DF803100120884001994A6C40EA1242BD
S31508006670486CC0EA024048640DE09DF8031001200A
S315080066808840C04301994A6C00EA1242486CC0EA45
S3150800669002404864FFE702B07047000085B00490E6
S315080066A08DF80F1002929DF80F200499486C62F33A
S315080066B003004864029800790146019120B1FFE77A
S315080066C00198012808D00EE0029800686FF3DF20D1
S315080066D080040499886407E00298006820F0604006
S315080066E00499886400E0FFE7029802790499C86C67
S315080066F002F0010220F4803040EA0240C8640298A1
S3150800670042790499C86C02F0010220F4801040EA2C
S315080067100250C864029882790499C86C62F303002F
S31508006720C8640298827A0499C86C02F0010220F0C3
S31508006730805040EA0270C8640298027A0499C86CCC
S3150800674002F0010220F4802040EA8240C8640298E0
S31508006750C2790499C86C02F0010220F4003040EABC
S315080067604240C8640298427A0499C86C02F0010251
S3150800677020F0006040EAC260C86404994FF0FF3018
S315080067808865029800790146009120B1FFE70098D4
S3150800679001280CD014E00298C16840F2FF7020EA84
S315080067A001020499886D20EA8240886509E002980A
S315080067B0C06840F060420499886D1040886500E022
S315080067C0FFE704994FF0FF30C86502990B7C049ADD
S315080067D0D16D03F0010321F4803141EA0341D1650B
S315080067E002994B7C049AD16D03F0010321F48011C0
S315080067F041EA0351D16502998B7C049AD16D63F302
S315080068000301D16502998B7D049AD16D03F00103CA
S3150800681021F0805141EA0371D16502990B7D049AF2
S31508006820D16D03F0010321F4802141EA8341D1654A
S315080068300299CB7C049AD16D03F0010321F400314F
S3150800684041EA4341D16502994B7D049AD16D03F023
S31508006850010321F0006141EAC361D1650499086624
S315080068600499486605B0704782B001900091009877
S315080068700199486102B0704783B0029001910020E7
S315080068808DF80300029840690199084204D0FFE791
S3150800689001208DF80300FFE79DF8030003B0704759
S315080068A083B0029001918DF803209DF8030040B152
S315080068B0FFE7019A0299D1F840011043C1F8400157
S315080068C007E0019A0299D1F840019043C1F84001C6
S315080068D0FFE703B07047000083B002908DF80710F9
S315080068E09DF8070001460091062800F29A80009953
S315080068F0DFE801F004192E43586D82000299886A70
S3150800690020F0400088620299886A20F00040886278
S315080069100299886A20F0200088620299886A20F421
S31508006920804088627EE00299886A40F0400088626A
S315080069300299886A20F0004088620299886A20F0E5
S31508006940200088620299886A20F48040886269E09B
S315080069500299886A40F0400088620299886A40F085
S31508006960004088620299886A20F0200088620299AD
S31508006970886A20F48040886254E00299886A20F088
S31508006980400088620299886A20F00040886202996D
S31508006990886A40F0200088620299886A20F480405C
S315080069A088623FE00299886A20F04000886202996E
S315080069B0886A20F0004088620299886A20F02000E0
S315080069C088620299886A40F4804088622AE00299BF
S315080069D0886A40F0400088620299886A20F0004080
S315080069E088620299886A20F0200088620299886A7B
S315080069F040F48040886215E00299886A40F04000B9
S31508006A0088620299886A40F0004088620299886A1A
S31508006A1020F0200088620299886A40F480408862E3
S31508006A2000E0FFE703B0704780B540F20001C2F20C
S31508006A3000010120087041F25121C2F20001002034
S31508006A40087004F095FD40F2EC01C2F200010860FE
S31508006A5048F6BD30C0F6000002F08AF846F6D9209E
S31508006A60C0F60000FFF72EFC80BD000080B582B09E
S31508006A7002F0CCF804F07CFD0190019840F2780110
S31508006A80C2F200010968401AB0F5FA7F09D3FFE798
S31508006A90019840F27801C2F20001086004F06AF930
S31508006AA0FFE740F20000C2F200000078012810D08B
S31508006AB0FFE7019840F2EC01C2F200010968401AAA
S31508006AC041F28831884203D3FFE703F095FDFFE7DB
S31508006AD0FFE702B080BD000080B584B00390029144
S31508006AE08DF80720039840F60351C1F6DA0188426B
S31508006AF00ED0FFE703984FF60071C1F6FF71084004
S31508006B0043F20031C1F6DB01884201D0FFE70AE013
S31508006B109DF8070008B9FFE705E002989DF80710F9
S31508006B2002F094F8FFE704B080BD000080B582B09B
S31508006B300190019846F20041C4F2000188420CD146
S31508006B40FFE71920C0F210000090012100F014FDA3
S31508006B500098002100F010FDFFE702B080BD00009C
S31508006B608AB0089007910898406F00F00F014BF61D
S31508006B703A70C0F60000405C8DF81B00089880301B
S31508006B80059007980A3004900898806A000E8007D6
S31508006B9020B9FFE700208DF82700B0E00898406F7D
S31508006BA0C0F30040079908710798007901460091DB
S31508006BB020B1FFE70098012807D00DE00898006F7C
S31508006BC0C0F38A40079908600AE00898006F20F029
S31508006BD060400799086003E000208DF827008EE0E2
S31508006BE00898406FC0F30050079948710898406F9D
S31508006BF0C0F340400799C8710898406FC0F38040B9
S31508006C00079908720898406FC0F3C06007994872E0
S31508006C100898406FC0F30260079981F84B000898FE
S31508006C20406FC0F30070079981F84A000898406FD2
S31508006C3000F00F000799887100208DF80F00FFE714
S31508006C409DF80F009DF81B10884226DAFFE7059885
S31508006C50006804999DF80F20885405980068000A72
S31508006C60049A9DF80F101144487005984088049AB4
S31508006C709DF80F10114488700598C078049A9DF8FD
S31508006C800F101144C870059804300590FFE79DF869
S31508006C900F0004308DF80F00D2E70898406F089966
S31508006CA0C1F824010898D0F828116FF0030000EB0A
S31508006CB09140ADF80C000898BDF80C1000EB810067
S31508006CC0D0F880000799C8640898BDF80C1000EB46
S31508006CD08100D0F888000799A1F8500008982B3051
S31508006CE00290029800788DF807009DF8070040F09A
S31508006CF010000299087001208DF82700FFE79DF81B
S31508006D0027000AB07047000084B002900298806A93
S31508006D10000E800720B9FFE700208DF80F0010E06D
S31508006D2002982B300190019800788DF803009DF8A1
S31508006D30030040F010000199087001208DF80F003B
S31508006D40FFE79DF80F0004B07047000081B000907F
S31508006D500098806AC0F3014001B0704782B0019084
S31508006D6000910198C069009908700198C069C0F33C
S31508006D700220009948700198C069000C0099887033
S31508006D800198C069C0F302600099C87002B07047E4
S31508006D9086B004908DF80F10049829300290049854
S31508006DA0806A400BC00720B1FFE700208DF8170066
S31508006DB055E09DF80F0001460091022819D0FFE71B
S31508006DC00098042815D0FFE70098102832D1FFE76D
S31508006DD00498806A000BC00730B9FFE70498806AF8
S31508006DE0C00AC00720B1FFE700208DF8170036E07B
S31508006DF024E00498806A000C800720B9FFE7002089
S31508006E008DF817002BE00498806A400AC00760B91D
S31508006E10FFE70498806A800AC00730B9FFE704983C
S31508006E20806A000AC00720B1FFE700208DF8170026
S31508006E3015E003E000208DF8170010E002980078AE
S31508006E4000F0E0008DF807009DF807009DF80F1088
S31508006E5008430299087001208DF81700FFE79DF88E
S31508006E60170006B0704700008CB00A908DF82710FE
S31508006E700892089881794BF63A70C0F60000405C93
S31508006E808DF81F000A98DC3006900898093005909E
S31508006E909DF827000146019120B1FFE701980128D6
S31508006EA00BD015E00A98806A000BC00720B1FFE7EF
S31508006EB000208DF82F00CDE00EE00A98806A800D3C
S31508006EC0C00720B1FFE700208DF82F00C2E003E0DD
S31508006ED000208DF82F00BDE00A982930039003980A
S31508006EE0007800F060008DF80B009DF80B009DF807
S31508006EF0271040EAC11003990870089800790146DE
S31508006F00009120B1FFE70098012809D010E0089801
S31508006F1000686FF3DF2080040A99C1F8CC000BE003
S31508006F200898006820F060400A99C1F8CC0003E090
S31508006F3000208DF82F008DE0089890F849200A99CE
S31508006F40D1F8CC0040EAC270C1F8CC000A990020FA
S31508006F50C1F8D00008990B790A9AD2F8D01003F034
S31508006F60010321F4803141EA0341C2F8D01008999F
S31508006F704B790A9AD2F8D01003F0010321F4801154
S31508006F8041EA0351C2F8D01008998B790A9AD2F8C7
S31508006F90D01063F30301C2F8D01008990B7A0A9A45
S31508006FA0D2F8D01003F0010321F4802141EA83418D
S31508006FB0C2F8D0100899CB790A9AD2F8D01003F003
S31508006FC0010321F4003141EA4341C2F8D0108DF89B
S31508006FD01300FFE79DF813009DF81F1088420FDA8B
S31508006FE0FFE705989DF81310405806990A1D069262
S31508006FF00860FFE79DF8130004308DF81300E9E7F1
S315080070000A990020C1F8D400089991F84A300A9ADA
S31508007010D2F8D41021F07F4141EA0361C2F8D410B6
S315080070200A99C1F8D8009DF8270001280ED1FFE774
S315080070300A982A300390039800788DF80B009DF87B
S315080070400B0040F0400003990870FFE701208DF817
S315080070502F00FFE79DF82F000CB0704781B08DF820
S3150800706003009DF8032041F20401C4F202010868F6
S3150800707002F00F0220F0F00040EA0210086001B0AA
S315080070807047000081B08DF803009DF8032041F297
S315080070900401C4F20201086802F0070220F4E06065
S315080070A040EA0220086001B07047000081B08DF800
S315080070B003009DF8032041F20401C4F202010868A6
S315080070C002F0070220F4605040EAC220086001B0CE
S315080070D07047000081B08DF803009DF8032041F247
S315080070E05401C4F20201086802F0070220F4E040E5
S315080070F040EA0230086001B07047000081B08DF8A0
S3150800710003009DF80300012809D1FFE741F2540165
S31508007110C4F20201086840F03000086008E041F255
S315080071205401C4F20201086820F030000860FFE745
S3150800713001B0704781B08DF803008DF802109DF8F4
S31508007140030078B9FFE79DF8022041F26801C4F20E
S315080071500201086802F0030220F0407040EA02606B
S315080071600860FFE701B0704782B08DF807008DF818
S3150800717006109DF8070001460091042844D8009996
S31508007180DFE801F0030E1D2C37009DF8062041F2BA
S315080071900001C4F20201086862F30000086034E0E6
S315080071A09DF8062041F20001C4F20201086802F0C7
S315080071B0010220F4803040EA0240086025E09DF88C
S315080071C0062041F20001C4F20201086802F0010239
S315080071D020F0807040EA0260086016E09DF80620FC
S315080071E041F22001C4F20201086862F30000086057
S315080071F00BE09DF8062041F22401C4F2020108685A
S3150800720062F30000086000E0FFE702B07047000084
S3150800721080B58EB00D90002001900C900B900A90CE
S3150800722009900890079006900590049000F038FBA6
S315080072308DF80F009DF80F000146029140B1FFE757
S315080072400298012825D0FFE70298022828D0C1E035
S3150800725041F25400C4F202000068400AC00780B137
S31508007260FFE741F23000C4F202000068400EC00792
S3150800727038B1FFE70D9946F60040C0F2DC200860F9
S3150800728006E00D9941F20020C0F27A000860FFE797
S31508007290A7E00D9941F20020C0F27A000860A0E04C
S315080072A041F20400C4F202000068C0F300400A90EC
S315080072B041F22C00C4F2020001680020B0EBD17F35
S315080072C047D1FFE741F20400C4F202000168C1F3A6
S315080072D083410C910068C0F341700B900B9820B95C
S315080072E0FFE70C980F2807D1FFE70B990C9800EBDE
S315080072F0011001300C9003E00C9802300C90FFE767
S315080073000A9848B9FFE70C9840F60011C0F23D010B
S3150800731048430D9908601BE041F20400C4F20200DC
S315080073200068400CC00748B1FFE70C9840F600110A
S31508007330C0F23D0148430D99086008E00C9841F2F7
S315080073400021C0F27A0148430D990860FFE7FFE77C
S315080073503FE041F22C00C4F202000168C1F30311B8
S3150800736006910168C1F308210591006800F007003D
S3150800737004900A9830B9FFE740F60010C0F23D00C5
S31508007380079015E041F20400C4F202000068400CC0
S31508007390C00730B1FFE740F60010C0F23D00079085
S315080073A005E041F20020C0F27A000790FFE7FFE708
S315080073B007980599A0FB0101069ADDF810C001237C
S315080073C003FA0CF35A430023FDF776FF0D9908607C
S315080073D0FFE706E00D9941F20020C0F27A00086046
S315080073E0FFE741F20400C4F202000168C1F3031189
S315080073F00991099A4BF62A71C0F60001895C089131
S315080074000D9A1168089BD94051600168C1F30221A1
S315080074100991099A4BF61A71C0F60001895C089120
S315080074200D9A5168089BD940D1600168C1F3C22101
S315080074300991099A4BF62271C0F60001895C0891F8
S315080074400D9A5168089BD94091600168C1F3007193
S31508007450099109990068C0F3813040EA81000990D2
S3150800746009994BF61270C0F60000405C08900D9919
S315080074708868089AB0FBF2F008610EB080BD00007B
S3150800748082B0019000208DF80300BDF8060041F295
S315080074900001C4F202014058019901F01F01C840D9
S315080074A0C00720B9FFE700208DF8030003E001209C
S315080074B08DF80300FFE79DF8030002B0704700004F
S315080074C080B584B0002003908DF80B00FFE71120EB
S315080074D0FFF7D6FF014600200129019008D0FFE7F3
S315080074E003990020B1F5405F38BF01200190FFE7FE
S315080074F00198C00720B1FFE7039801300390E6E73B
S315080075001120FFF7BDFF012804D0FFE700208DF802
S315080075100B0003E001208DF80B00FFE79DF80B0038
S3150800752004B080BD82B001908DF803109DF8030069
S3150800753001280FD1FFE7019800F01F02012101FA87
S3150800754002F3010C41F20002C4F202028858184301
S3150800755088500EE0019800F01F02012101FA02F39B
S31508007560010C41F20002C4F202028858984388507E
S31508007570FFE702B07047000082B001908DF8031053
S315080075809DF8030001280FD1FFE7019800F01F02BC
S31508007590012101FA02F3010C41F20002C4F20202CF
S315080075A08858184388500EE0019800F01F02012100
S315080075B001FA02F3010C41F20002C4F202028858F1
S315080075C098438850FFE702B07047000083B08DF8F3
S315080075D00B008DF80A10002001908DF803009DF825
S315080075E00B00B0B9FFE741F20401C4F202010868D2
S315080075F020F48030086040F60010C0F23D0001908B
S3150800760041F23001C4F20201086840F000700860D7
S3150800761029E041F20401C4F20201086840F480300E
S3150800762008609DF80B0001280ED1FFE741F2002003
S31508007630C0F27A00019041F20401C4F2020108681E
S3150800764020F4003008600DE040F60010C0F23D005E
S31508007650019041F20401C4F20201086840F40030C6
S315080076600860FFE7FFE7019848F26121C0F23B0195
S3150800767088420CD3FFE7019844F63F31C0F24C012B
S31508007680884204D8FFE700208DF8030068E00198D7
S3150800769045F68101C0F24F0188420CD3FFE70198F5
S315080076A045F60F61C0F25F01884204D8FFE7012062
S315080076B08DF8030053E0019843F29551C0F2770123
S315080076C088420CD3FFE7019841F60F31C0F27F01DB
S315080076D0884204D8FFE702208DF803003EE00198AF
S315080076E041F61131C0F27F0188420CD3FFE70198B9
S315080076F04BF61F41C0F2BE01884204D8FFE70320BB
S315080077008DF8030029E0019846F62931C0F2EE010A
S3150800771088420CD3FFE701984DF22F71C0F23D1154
S31508007720884204D8FFE704208DF8030014E0019886
S315080077304DF23171C0F23D1188420CD3FFE7019832
S315080077404EF6D711C0F2DC11884204D8FFE70520AF
S315080077508DF80300FFE7FFE7FFE7FFE7FFE7FFE72F
S315080077609DF80A0000F00F0241F20401C4F202017A
S31508007770086820F4701040EA824008609DF80A0004
S3150800778000F03002086820F0C04040EA4260086015
S315080077909DF8032041F22C01C4F20201086802F0A8
S315080077A0070220F0E06040EA0260086003B0704714
S315080077B041F20001C4F20201086840F001000860C5
S315080077C0FFE741F20000C4F2020000684008C00763
S315080077D008B9FFE7F5E741F20401C4F202010868B7
S315080077E020F003000860FFE741F20400C4F202003B
S315080077F000688008800708B1FFE7F5E741F2000155
S31508007800C4F2020108684FF6FF72CFF6F262104022
S31508007810086041F20401C4F202010020086041F246
S315080078202C02C4F2020241F61071116041F23001D5
S31508007830C4F20201086041F20801C4F202014FF4E1
S315080078401F00086041F26801C4F20201086840F0AE
S31508007850010008607047000081B08DF803009DF8AC
S31508007860032041F20401C4F20201086862F3010030
S31508007870086000BF00BF00BF00BF00BF00BF00BF59
S3150800788000BF00BF00BF00BF00BF00BF00BF00BFF2
S3150800789000BF00BF00BF00BF00BF01B070470000B7
S315080078A041F20400C4F202000068C0F38100704788
S315080078B084B00390029100208DF80700FFE79DF839
S315080078C007001F280CD8FFE703999DF807202020FA
S315080078D08854FFE79DF8070001308DF80700EEE7AA
S315080078E0029808B9FFE724E000208DF80700FFE7B3
S315080078F09DF8071000201F29009009D8FFE7029875
S315080079009DF80710405C002818BF01200090FFE78B
S315080079100098C00768B1FFE702989DF80720805CC9
S3150800792003998854FFE79DF8070001308DF8070092
S31508007930DEE704B07047000080B584B002904DF2CF
S315080079400000C0F601000190029820B9FFE7FF2069
S315080079508DF80F002BE0029801994FF40072FDF79D
S315080079604FFD0298006845F24961C4F245418842D4
S3150800797004D0FFE7FF208DF80F0018E00298406852
S31508007980012804D0FFE7FF208DF80F000FE00298CA
S3150800799000F092F802998968884204D0FFE7FF2030
S315080079A08DF80F0003E000208DF80F00FFE79DF922
S315080079B00F0004B080BD000080B5ADF50A7D889043
S315080079C0889820B9FFE7FF208DF827026FE008A8FE
S315080079D0FFF7B2FFD8B1FFE708A802904FF400718D
S315080079E0FF220392FDF783FD0298039A45F2496147
S315080079F0C4F245410891012109910021159114917C
S31508007A00139138304FF4E471FDF771FDFFE708A8CC
S31508007A1001900C3088992022FDF7F2FC019800F0BD
S31508007A204BF80A9000F096FA4DF20000C0F60100F5
S31508007A3000F068FA8DF813009DF81300032806D0A5
S31508007A40FFE700F0F3F9FF208DF827022FE008A8DA
S31508007A5007908020069000200590FFE70598069974
S31508007A6088421ED2FFE7059A4DF20000C0F60100D3
S31508007A7000EB8200079951F8221000F07BFA8DF886
S31508007A8013009DF81300032806D0FFE700F0CEF98F
S31508007A90FF208DF827020AE0FFE7059801300590D8
S31508007AA0DCE700F0C3F900208DF82702FFE79DF90F
S31508007AB027020DF50A7D80BD86B0059005980490CD
S31508007AC04FF0FF30039000200090FFE70099002058
S31508007AD0B0EB512F32D1FFE70098082805D3FFE70E
S31508007AE000980B2801D8FFE724E004980099415C28
S31508007AF003984840039000200290FFE70298072861
S31508007B0017D8FFE7039800F0010001900398400892
S31508007B100390019840B1FFE7039848F22031CEF66A
S31508007B20B85148400390FFE7FFE7029801300290FA
S31508007B30E4E7FFE7009801300090C7E70398C043E1
S31508007B4006B0704780B584B00390029101920398FD
S31508007B500299019A4BF68C63C0F6000301F0C8FF40
S31508007B6004B080BD80B5ADF5CE6DADF86C06CDF828
S31508007B706816CDF86426BDF86C060146049142F2F3
S31508007B801001884200F0AB80FFE7049842F2121118
S31508007B90884200F0AF80FFE7049842F2131188424A
S31508007BA000F0C080FFE7049842F21411884200F002
S31508007BB0C680FFE7049842F21511884200F0D78084
S31508007BC0FFE7049842F21611884200F0E880FFE7C2
S31508007BD0049842F21811884200F0F980FFE70498E9
S31508007BE04FF28011884232D0FFE704984FF28C1189
S31508007BF088425BD0FFE704984FF29311884236D04B
S31508007C00FFE704984FF29511884240F0ED80FFE7B0
S31508007C100DF25440102102F0A1F938B9FFE7DDF85A
S31508007C2068060DF25441FFF743FE08E0DDF86806E2
S31508007C304BF60C71C0F60001FFF73AFEFFE7DDF8D8
S31508007C4064162020087000208DF86F06D0E0DDF855
S31508007C5068064BF6FC41C0F60001FFF729FEDDF881
S31508007C6064162020087000208DF86F06C0E00DF21B
S31508007C706440FFF761FE40B9FFE7DDF868060DF2DC
S31508007C8064412C31FFF714FE08E0DDF868064BF670
S31508007C904351C0F60001FFF70BFEFFE7DDF8641657
S31508007CA02020087000208DF86F06A1E00DF26440D0
S31508007CB0FFF742FE20B1FFE7FF208DF86F0697E039
S31508007CC0DDF868060DF264410C31FFF7F1FDDDF8C9
S31508007CD064162020087000208DF86F0688E0DDF80D
S31508007CE0681601200870DDF86416087000208DF803
S31508007CF06F067DE0D1A802F091F920B9FFE79DF85B
S31508007D006503039002E0FF200390FFE70398DDF880
S31508007D1068160870DDF864160120087000208DF8D2
S31508007D206F0665E002F0E2F9DDF868160870DDF81E
S31508007D3064160120087000208DF86F0658E08DA89B
S31508007D4002F06CF920B9FFE79DF83D02029002E0C7
S31508007D50FE200290FFE70298DDF868160870DDF845
S31508007D6064160120087000208DF86F0640E049A8C7
S31508007D7002F054F920B9FFE79DF84401019002E0AA
S31508007D80FF200190FFE70198DDF868160870DDF816
S31508007D9064160120087000208DF86F0628E005A8F3
S31508007DA002F03CF920B9FFE79DF83000009002E0A8
S31508007DB000200090FFE70098DDF868160870DDF8E7
S31508007DC064160120087000208DF86F0610E0FDF794
S31508007DD065FFDDF868160870DDF86416012008707E
S31508007DE000208DF86F0603E0FF208DF86F06FFE789
S31508007DF09DF96F060DF5CE6D80BD000080B584B087
S31508007E0003900291039802994BF6AC62C0F6000201
S31508007E106B461A604BF6EC62C0F600024BF68C63B2
S31508007E20C0F6000301F082FE04B080BD42F21001E4
S31508007E30C4F20201086840F080000860704700003C
S31508007E4081B003208DF8030042F20C00C4F2020050
S31508007E500068C00720B1FFE700208DF803001FE087
S31508007E6042F20C00C4F2020000688008C00720B184
S31508007E70FFE701208DF8030011E042F20C00C4F27E
S31508007E80020000680009C00720B1FFE702208DF84C
S31508007E90030003E003208DF80300FFE7FFE7FFE791
S31508007EA09DF8030001B0704780B584B003900320A5
S31508007EB08DF80B00FFF7C4FF8DF80B00FFE79DF860
S31508007EC00B100020019031B9FFE70398002818BF6E
S31508007ED001200190FFE70198C00740B1FFE7FFF7CF
S31508007EE0AFFF8DF80B00039801380390E7E7039876
S31508007EF020B9FFE704208DF80B00FFE79DF80B007B
S31508007F0004B080BD80B584B0039003208DF80B00C3
S31508007F1042F21001C4F202010191086840F0020021
S31508007F200860039842F21402C4F20202106008685C
S31508007F3040F0400008604FF08040FFF7B5FF019918
S31508007F408DF80B00086820F0020008609DF80B0009
S31508007F5004B080BD42F20401C4F2020140F22310CB
S31508007F60C4F26750086048F6AB10CCF6EF500860CC
S31508007F707047000080B584B00390029103208DF805
S31508007F80070042F21001C4F202010091086840F0AD
S31508007F90010008600298039908604FF48010FFF703
S31508007FA083FF00998DF80700086820F00100086033
S31508007FB09DF8070004B080BD80B584B00390029197
S31508007FC0019203980299019A4BF68C63C0F6000356
S31508007FD0EC46CCF800304BF6EC63C0F6000301F033
S31508007FE019FE04B080BD000080B584B003900291EC
S31508007FF0019203980299019A4BF68C63C0F6000326
S3150800800001F0CEFE04B080BD80B582B003F0B0FAB0
S315080080100190019A40F20400C2F200000168514042
S315080080200160026882EA520181EA525181EAD271FC
S3150800803001F00101009101684908009A41EAC271FC
S315080080400160019AD10181EA52320168514001600A
S31508008050006802B080BD000082B00190ADF8021041
S31508008060BDF802000199886202B0704782B001909B
S31508008070ADF80210BDF802000199886102B0704798
S3150800808081B0009000994FF6FF70086000990020B3
S315080080908871009908710099487100990120C87182
S315080080A001B0704783B0029001910020ADF800003E
S315080080B001980068ADF80200FFE7BDF80200012844
S315080080C062DBFFE7BDF80200C007002851D0FFE7D2
S315080080D0BDF800004100032000FA01F3029A116876
S315080080E09943116001998979BDF80020520001FA77
S315080080F002F3029A116819431160BDF800200121A4
S3150800810001FA02F3029A5168994351600199097973
S31508008110BDF8002001FA02F3029A5168194351602A
S31508008120BDF80010490000FA01F3029A91689943D4
S3150800813091600199C979BDF80020520001FA02F34D
S31508008140029A916819439160BDF80010490000FA37
S3150800815001F20299C8689043C86001984079BDF851
S315080081600010490000FA01F20299C8681043C86075
S31508008170FFE7BDF802004008ADF80200BDF80000B0
S315080081800130ADF8000098E703B0704782B001905F
S31508008190ADF8021000208DF80100BDF80200019923
S315080081A009690140884204D0FFE700208DF80100E4
S315080081B003E001208DF80100FFE79DF8010002B0F9
S315080081C07047000084B003908DF80B108DF80A20D4
S315080081D00020019000909DF80A109DF80B2002F0EF
S315080081E007029200914001919DF80B10B0EBD10F58
S315080081F015D0FFE79DF80B0000F0070081000F205F
S3150800820000FA01F20399486A904348620398406A63
S3150800821001990843009000980399486214E09DF874
S315080082200B0000F0070081000F2000FA01F2039905
S31508008230086A904308620398006A01990843009007
S31508008240009803990862FFE704B0704780B586B0C6
S315080082500590ADF81210BDF81200012805D8FFE701
S315080082601020132102F076F848E0059840788DF83A
S3150800827009009DF8090000F080008DF808009DF8B7
S31508008280090000F07F008DF807009DF80700012817
S315080082900FD0FFE79DF8070002280AD0FFE79DF8F0
S315080082A00700032805D0FFE71020122102F052F834
S315080082B024E09DF8070002F0B1F99DF807000228AE
S315080082C004D1FFE70020FDF76BFCFFE703F050F948
S315080082D040F2EC01C2F2000108609DF8080068B996
S315080082E0FFE750208DF80A009DF807008DF80B006F
S315080082F00DF10A00022102F045F8FFE706B080BD3D
S3150800830080B586B00590ADF81210BDF812000128A8
S3150800831005D8FFE71120132102F01CF847E005985D
S31508008320407800F07F008DF809000598407800F045
S3150800833080008DF808009DF80900012805D0FFE7A0
S315080083401120122102F006F831E040F20000C2F2D4
S31508008350000000780238B0FA80F040098DF807006E
S315080083609DF8070050B1FFE701F06EFF28B1FFE75F
S315080083701120722101F0EEFF19E0FFE79DF80800D1
S3150800838068B9FFE751208DF80A009DF809008DF8B5
S315080083900B000DF10A00022101F0F4FFFFE70620A9
S315080083A001F098FA1420FEF7FBF8FDF7B9FA06B0C3
S315080083B080BD000080B5CCB04B90ADF82A11BDF851
S315080083C02A01032806D3FFE7BDF82A010138C007AA
S315080083D028B1FFE72220132101F0BCFF6DE06220DF
S315080083E08DF82A000120ADF82800ADF82600FFE731
S315080083F0BDF82600BDF82A11884257DAFFE74B99DF
S31508008400BDF826208818895C407840EA0120ADF836
S31508008410240000208DF80300BDF8240001A90DF101
S315080084200302FFF79FFB28B1FFE72220312101F065
S3150800843091FF42E0BDF828009DF803100844023079
S31508008440B0F5807F05D9FFE72220142101F082FFCD
S3150800845033E04B98BDF82610415CBDF82820501C27
S31508008460ADF828000DF12A0081544B9ABDF8261064
S3150800847011444978BDF82820531CADF8283081549A
S31508008480BDF8281008449DF8032001A9FCF7B8FF99
S31508008490BDF828009DF803100844ADF82800FFE74A
S315080084A0BDF826000230ADF82600A1E7BDF8281071
S315080084B00DF12A0001F066FFFFE74CB080BD000011
S315080084C080B582B00190ADF802103120112101F07B
S315080084D041FF02B080BD000080B592B01190ADF8A2
S315080084E04210BDF84200012805D8FFE727201321CE
S315080084F001F030FF0BE2119840788DF8390003F04F
S3150800850037F80D909DF8390001287BD1FFE740F236
S31508008510CA00C2F200000078032817D3FFE70D98B7
S3150800852040F2CC01C2F200010968401AB0F1FF3FDF
S3150800853005DCFFE72720372101F00CFFE7E140F2D1
S31508008540CA01C2F2000100200870FFE741F251207B
S31508008550C2F200000078A8B1FFE767208DF83A005C
S3150800856001208DF83B0000208DF83C008DF83D0079
S315080085708DF83E008DF83F000DF13A00062101F016
S3150800858001FFC4E1FFF740FD0C909DF8331040F25F
S31508008590D000C2F2000001900170BDF8321041709F
S315080085A00C99090A81700C99C17040F2D402C2F282
S315080085B000020121117040F2D502C2F200021170C8
S315080085C040F2C903C2F2000300221A7040F288037F
S315080085D0C2F200031A7067228DF83A208DF83B1014
S315080085E001788DF83C1041788DF83D1081788DF82A
S315080085F03E10C0788DF83F000DF13A00062101F0D3
S31508008600C1FE84E19DF83900032840F0B580FFE7F4
S3150800861040F2D400C2F20000007840B1FFE740F211
S31508008620D500C2F200000078012805D0FFE7272010
S31508008630122101F08FFE6AE1BDF84200022805D832
S31508008640FFE72720132101F085FE60E11198807865
S315080086508DF82F009DF82F00012813D1FFE740F26F
S315080086608801C2F200010020087040F2C901C2F276
S315080086700001087040F28900C2F200004021FCF7B0
S315080086803EFFFFE740F28800C2F2000001780131A0
S315080086900170007838B9FFE740F28801C2F200019C
S315080086A001200870FFE79DF82F0040F28801C2F20A
S315080086B00001097888420BD0FFE740F2C901C2F2EF
S315080086C00001002008702720712101F043FE1EE1F9
S315080086D0BDF8420003388DF82E0040F2C900C2F2F8
S315080086E0000000789DF82E10084441280AD3FFE7B9
S315080086F040F2C900C2F200000078C0F140008DF8CF
S315080087002E00FFE700208DF82D00FFE79DF82D00CD
S315080087109DF82E10884217DAFFE711989DF82D204C
S315080087201044C07840F2C901C2F2000109780A442F
S3150800873040F28901C2F200018854FFE79DF82D0036
S3150800874001308DF82D00E1E740F2C901C2F20001BF
S3150800875008789DF82E201044087067208DF83A0096
S3150800876003218DF83B109DF82F008DF83C000DF184
S315080087703A0001F007FEC9E09DF83900022840F0EA
S31508008780BF80FFE740F2D400C2F20000007840B193
S31508008790FFE740F2D500C2F200000078012805D0B4
S315080087A0FFE72720242101F0D5FDB0E040F2C900FB
S315080087B0C2F200000078402826D0FFE7BDF8420044
S315080087C0422821D3FFE70020ADF80A00FFE7BDF8ED
S315080087D00A003F2811D8FFE71198BDF80A2010446F
S315080087E0807840F28901C2F200018854FFE7BDF89B
S315080087F00A000130ADF80A00E9E740F2C901C2F201
S31508008800000140200870FFE740F2C900C2F20000EC
S31508008810007840280BD0FFE740F2D401C2F20001ED
S31508008820002008702720132101F094FD6FE027200F
S31508008830782101F08FFD40F2D000C2F20000042139
S315080088400DF10D02009201F0ADFF00994BF64A704A
S31508008850C0F6000040F28902C2F2000202F032FFBE
S3150800886001281CD1FFE741F25121C2F20001012083
S31508008870087040F2CA01C2F200010020087040F2F6
S31508008880D401C2F20001087067208DF83A0002216F
S315080088908DF83B100DF13A0001F074FD2FE041F21E
S315080088A05120C2F200000021017040F2CA00C2F253
S315080088B0000002780132027040F2D402C2F20002CD
S315080088C0117040F2C902C2F2000211700078032842
S315080088D00FD3FFE702F04CFE47F23051084440F24E
S315080088E0CC01C2F2000108602720362101F032FDD2
S315080088F004E02720352101F02DFDFFE7FFE704E01E
S315080089002720122101F026FDFFE7FFE7FFE712B057
S3150800891080BD000080B584B00390ADF80A1002F05F
S3150800892027FE40F2EC01C2F200010860BDF80A0019
S3150800893002281ED3FFE7039840788DF801009DF8BA
S31508008940010000F080008DF800009DF8000078B95D
S31508008950FFE77E208DF802009DF8010000F07F00F9
S315080089608DF803000DF10200022101F00BFDFFE76F
S3150800897008E07E208DF802000DF10200012101F0C9
S3150800898001FDFFE704B080BD80B590B00F90ADF84B
S315080089903A10BDF83A00032805D8FFE72E20132120
S315080089A001F0D8FCA4E040F20000C2F20000007812
S315080089B0022805D0FFE72E20222101F0CBFC97E004
S315080089C041F25120C2F20000007828B9FFE72E20B4
S315080089D0332101F0BFFC8BE00F984178807840EA9C
S315080089E00120ADF83400BDF834000146029142F288
S315080089F01001884206D0FFE702984FF28C11884290
S31508008A0023D070E00F98C0788DF833009DF83300B6
S31508008A1028B1FFE79DF83300042805D3FFE72E2089
S31508008A20312101F097FC63E06E208DF836000F982F
S31508008A3040788DF837000F9880788DF838000DF15A
S31508008A403600032101F09EFC52E0BDF83A000338D7
S31508008A50ADF80E00BDF80E00212805D3FFE72E203D
S31508008A60312101F077FC43E04FF0203001900B9064
S31508008A700A900990089007900690059004900020A7
S31508008A80ADF80C00FFE7BDF80C00BDF80E108842E3
S31508008A900EDAFFE70F98BDF80C201044C07804A939
S31508008AA08854FFE7BDF80C000130ADF80C00EAE782
S31508008AB004A8FEF781FF28B1FFE72E20722101F0F6
S31508008AC049FC15E06E208DF836000F9840788DF831
S31508008AD037000F9880788DF838000DF1360003219D
S31508008AE001F050FC04E02E20312101F033FCFFE7B1
S31508008AF010B080BD80B586B0049003918DF80B2028
S31508008B0002F036FD0190FFE702F032FD0199401AA6
S31508008B10C0087C280DD8FFE7049803999DF80B2018
S31508008B20FDF780FC20B9FFE700208DF8170004E068
S31508008B30EAE7FF208DF81700FFE79DF9170006B052
S31508008B4080BD000080B582B0019002F011FD009052
S31508008B50019808B9FFE709E0FFE702F009FD009967
S31508008B60401A0199884201D2FFE7F6E702B080BDB4
S31508008B7081B0009040F24011C2F200010020087056
S31508008B804FF48052885241F20202885241F204029E
S31508008B90885441F208028850009940F27C02C2F2D9
S31508008BA00002116040F28101C2F20001087040F231
S31508008BB0DF01C2F20001087001B0704780B584B0C9
S31508008BC00390ADF80A1040F20000C2F200000078E7
S31508008BD0012813D0FFE702F0CBFC0190019840F280
S31508008BE0EC01C2F200010968401A41F28831884254
S31508008BF003D3FFE701F000FDFFE7FFE70398BDF8A1
S31508008C000A1002F099FE04B080BD000080B540F25B
S31508008C104010C2F200000078012801D0FFE714E0F6
S31508008C2002F0A6FC40F24011C2F2000141F208022D
S31508008C308958401AB0F57A7F07D3FFE740F240110A
S31508008C40C2F2000100200870FFE780BD80B588B039
S31508008C5007908DF81B10079820B1FFE79DF81B00B9
S31508008C6008B9FFE7A2E10798007800F0F0008DF850
S31508008C701A009DF81A000146039170B1FFE70398A0
S31508008C80102837D0FFE70398202800F0B880FFE7C0
S31508008C900398302800F0558187E10798007800F09E
S31508008CA00F008DF813009DF8130048B1FFE79DF8F3
S31508008CB013009DF81B100139C9B2884201DDFFE790
S31508008CC074E140F24011C2F200010020087040F23F
S31508008CD07C00C2F20000006858B1FFE740F27C0051
S31508008CE0C2F200000268079801309DF813109047F9
S31508008CF0FFE75BE19DF81B00012801D8FFE755E176
S31508008D0007980178407801F00F0140EA0120ADF894
S31508008D101800BDF81800072801D8FFE746E1BDF896
S31508008D201800B0F5805F0AD3FFE740F20D30C1F6B0
S31508008D30DA00022100231A4600F03AF936E1BDF8B6
S31508008D40180040F24011C2F2000102914FF480521D
S31508008D50885241F202020020885241F204020120A0
S31508008D608854087002F004FC029941F208028850FF
S31508008D709DF81B00032838D3FFE79DF81B0002382F
S31508008D80ADF81600BDF81600BDF81810884205DDC6
S31508008D90FFE7BDF81800ADF81600FFE70020ADF8AC
S31508008DA01400FFE7BDF81400BDF81610884212DA61
S31508008DB0FFE70798BDF814201044807840F2401168
S31508008DC0C2F2000111444870FFE7BDF814000130F3
S31508008DD0ADF81400E6E7BDF8160040F24011C2F2FD
S31508008DE0000141F202028852FFE740F20D30C1F657
S31508008DF0DA0000220123114600F0DAF8D6E040F244
S31508008E004010C2F200000078012801D0FFE7CDE04B
S31508008E100798007800F00F008DF812009DF81200F0
S31508008E2040F24011C2F2000141F20402895C884214
S31508008E3007D0FFE740F24011C2F200010020087097
S31508008E40B4E002F095FB40F24012C2F2000241F291
S31508008E50080150509DF81B000138ADF81600BDF802
S31508008E6016004FF48051515A41F20203D25A891A18
S31508008E7088420EDDFFE740F24011C2F200014FF4CE
S31508008E808050085A41F20202895A401AADF8160073
S31508008E90FFE70020ADF81400FFE7BDF81400BDF8A1
S31508008EA01610884216DAFFE70798BDF814301844FA
S31508008EB0407840F24011C2F2000141F202028A5A99
S31508008EC01A4411444870FFE7BDF814000130ADF8A4
S31508008ED01400E2E7BDF8163040F24011C2F2000174
S31508008EE041F202000A5A1A440A5241F20403CA5CC1
S31508008EF0013202F00F02CA54085A4FF48052895AB6
S31508008F0088421DDBFFE740F24011C2F20001002053
S31508008F10087040F27C00C2F20000006878B1FFE7F2
S31508008F2040F27C00C2F20000026840F24010C2F231
S31508008F3000004FF48051415A01309047FFE7FFE7A0
S31508008F4034E00798007800F00F0040F28201C2F280
S31508008F50000108709DF81B00022804D3FFE7079854
S31508008F604078019002E000200190FFE7019840F266
S31508008F708001C2F2000108709DF81B00032804D383
S31508008F80FFE707988078009002E000200090FFE74E
S31508008F90009840F28301C2F20001087040F2810194
S31508008FA0C2F200010120087000E0FFE708B080BDAA
S31508008FB080B584B003908DF80B108DF80A208DF8D3
S31508008FC009309DF80B10032060F31F118DF801106E
S31508008FD09DF80A108DF802109DF809108DF80310F7
S31508008FE08DF80000FFE79DF8000007280DD8FFE779
S31508008FF09DF800200DF10101CC208854FFE79DF86B
S31508009000000001308DF80000EDE703980DF101012D
S315080090100822FFF76FFD04B080BD000082B0019002
S315080090208DF8031040F2DF00C2F20000007808B1A4
S31508009030FFE736E09DF8031040F2DE00C2F20000BA
S3150800904001700078092807D3FFE740F2DE01C2F273
S31508009050000108200870FFE700208DF80200FFE7EE
S315080090609DF8020040F2DE01C2F20001097888424A
S3150800907010DAFFE701989DF80220805C40F2D601DD
S31508009080C2F200018854FFE79DF8020001308DF80E
S315080090900200E5E740F2DF01C2F200010120087094
S315080090A0FFE702B07047000082B08DF806009DF910
S315080090B0060000280FD4FFE79DF8060018B9FFE759
S315080090C00020009003E09DF806000090FFE7009856
S315080090D08DF8070003E001208DF80700FFE79DF8EB
S315080090E0070002B07047000080B58AB00890079163
S315080090F0ADF81A20079850B1FFE7BDF81A0030B14D
S31508009100FFE7BDF81A00B0F5805F04D3FFE7FF203C
S315080091108DF827003EE1BDF81A0007283FD8FFE77B
S315080091209DF81A008DF812000020ADF80800FFE738
S31508009130BDF80800BDF81A1088420FDAFFE707984D
S31508009140BDF80810405C0DF1120211444870FFE7A3
S31508009150BDF808000130ADF80800E9E7BDF81A00C7
S315080091600130ADF80800FFE7BDF8080007280DD85C
S31508009170FFE7BDF808200DF11201CC208854FFE75F
S31508009180BDF808000130ADF80800EDE708980DF1C4
S3150800919012010822FFF7AEFC8DF82700FAE09DF8C9
S315080091A01B00012161F31F108DF81200BDF81A008B
S315080091B08DF8130000208DF80700FFE79DF80700DB
S315080091C005280FD8FFE707989DF80710405C0DF1B2
S315080091D0120211448870FFE79DF8070001308DF8E8
S315080091E00700EBE708980DF112010822FFF782FC49
S315080091F020B1FFE7FF208DF82700CBE000208DF88F
S315080092000D0001208DF80C000DF10D0003A900F0EA
S31508009210C5F820B1FFE7FF208DF82700BAE0062041
S31508009220ADF8100001208DF80F0000208DF80B0016
S31508009230FFE7BDF81000BDF81A10884280F28D804D
S31508009240FFE79DF80D00B0B1FFE79DF80B009DF80C
S315080092500D1088420FDBFFE70DF10D0003A900F0A2
S315080092609DF820B1FFE7FF208DF8270092E0002047
S315080092708DF80B00FFE79DF80C00FFF715FFFFF7C9
S3150800928061FC9DF80F00022161F31F108DF8120092
S31508009290BDF81A00BDF81010401A8DF80E009DF89A
S315080092A00E00082804D3FFE707208DF80E00FFE715
S315080092B000208DF80600FFE79DF806009DF80E10C1
S315080092C0884212DAFFE70798BDF810209DF80610C5
S315080092D00A44805C0DF1120211444870FFE79DF8BC
S315080092E0060001308DF80600E6E79DF80E0001300D
S315080092F08DF80600FFE79DF8060007280DD8FFE75A
S315080093009DF806200DF11201CC208854FFE79DF840
S31508009310060001308DF80600EDE708980DF11201F8
S315080093200822FFF7E7FB20B1FFE7FF208DF82700AB
S3150800933030E09DF80E10BDF810000844ADF8100096
S315080093409DF80F00013000F00F008DF80F009DF812
S315080093500B0001308DF80B006BE740F2DF00C2F21C
S315080093600000007890B1FFE740F2DF01C2F2000189
S315080093700020087040F2DE00C2F20000017840F2D8
S31508009380D600C2F20000FFF761FCFFE700208DF867
S315080093902700FFE79DF927000AB080BD80B588B091
S315080093A00690059102F0E4F8049040F28101C2F2B9
S315080093B0000100200870FFE702F0DAF80499401A65
S315080093C0C0087C2856D8FFE740F28100C2F20000A8
S315080093D0007878B3FFE740F28101C2F2000100206D
S315080093E0087040F28200C2F20000007890B9FFE7E8
S315080093F040F28000C2F2000000780699087040F238
S315080094008300C2F2000000780599087000208DF8E4
S315080094101F0033E040F28200C2F200000078022802
S3150800942004D1FFE7FF208DF81F0027E002F0A0F81F
S315080094300490C1E703A801A90DF10302FCF7C4FED5
S3150800944008B1FFE7B8E79DF8030038B1FFE79DF8D4
S31508009450040000F0F000302806D0FFE79DF803105E
S3150800946001A8FFF7DBFDA7E79DF8031001A8FFF7A2
S31508009470EDFBA1E7FF208DF81F00FFE79DF91F0010
S3150800948008B080BD80B5ADF5027D819080917F9250
S3150800949080984030FCF7CEFA30B1FFE781987F9983
S315080094A06022FBF7F2FFB2E07F984030FCF7C2FA81
S315080094B030B1FFE7819880996022FBF7E6FFA6E0C6
S315080094C0809800F1400277A808901146FEF774FDCF
S315080094D07F9800F140026FA806901146FEF76CFDD2
S315080094E00899809800F1400267A80990FEF764FD84
S315080094F006997F9800F140025FA80790FEF75CFD89
S31508009500069A809957A80B90FEF756FD079A8098F9
S3150800951000F120014FA80D90FEF74EFD089A7F999D
S3150800952047A80A90FEF748FD099A7F9800F120019E
S315080095303FA80C90FEF740FD0A990B9A37A80E90A3
S31508009540FEF752FD0C990D9A1FA8FEF74DFD0E98D1
S31508009550FCF770FA78B1FFE71FA8FCF76BFA28B199
S31508009560FFE78198809900F055F850E081986021CE
S31508009570FBF7E7FF4BE02FA8009037AA05921146A4
S31508009580FEF71AFD0099059A27A80290FEF714FD22
S31508009590009A17A8049057A9FEF70EFD0FA8039086
S315080095A01FAA01921146FEF707FD029A039908467B
S315080095B0FEF71AFD0399049A0846FEF715FD039966
S315080095C0049A8198FEF710FD0499819A0846FEF7D9
S315080095D00BFD0199049A1046FEF7EEFC029A0398D1
S315080095E04FA9FEF7E9FC039A049981982030FEF703
S315080095F0FBFC0498809940317F9A4032FEF7DCFCE8
S315080096000499059A81984030FEF7D6FCFFE70DF5D8
S31508009610027D80BD80B5C2B04190409140984030EF
S31508009620FCF708FA30B9FFE740982030FCF702FA51
S3150800963028B1FFE741986021FBF783FF7DE040985A
S3150800964000F1200238A801901146FEF7B5FC4098B3
S3150800965000F1400230A802901146FEF7ADFC019ACF
S31508009660409928A80490FEF7A7FC049A10461146CC
S31508009670FEF768FA049A10461146FEF763FA019A4D
S3150800968020A806901146FEF797FC069A1046114642
S31508009690FEF758FA069A10461146FEF753FA069A46
S315080096A010461146FEF74EFA029A409910A80790FE
S315080096B0FEF748FA029A409908A80390FEF794FC28
S315080096C0039A079918A80590FEF776FC059A079855
S315080096D01146FEF737FA059A07991046FEF732FA49
S315080096E0059A07981146FEF767FC049A07990846F3
S315080096F0FEF77AFC049A07994198FEF775FC0499D7
S315080097000798419AFEF770FC0599079A1046FEF7E6
S3150800971053FC069A079941982030FEF765FC07988E
S31508009720409A02F120014032FEF746FC079A41981A
S3150800973040301146FEF706FAFFE742B080BD00004A
S3150800974080B5A2B0219020911F921F984030FCF757
S3150800975071F9B8B1FFE72199049100200590C86115
S31508009760886148610861C860886048600860209917
S315080097700691C861886148610861C8608860486068
S3150800978008601EE01F9800F1400117A80190FEF737
S3150800979035FB019A0FA802901146FEF70DFC019AB7
S315080097A0029907A80390FEF707FC029A21981F99C9
S315080097B0FEF702FC039A20981F992031FEF7FCFB5E
S315080097C0FFE722B080BD000080B582B040F20101FB
S315080097D0C2F2000101200190087001F0C9FE40F2B2
S315080097E08401C2F20001086049F63100C0F60000A3
S315080097F0FCF75EFD019800F057F802B080BD000046
S3150800980082B08DF807009DF8071001200329009003
S3150800981008D0FFE79DF807000438B0FA80F0400941
S315080098200090FFE7009800F0010002B070470000C2
S3150800983080B540F20101C2F200010120087000F073
S3150800984033F801F095FE40F28401C2F20001086087
S3150800985080BD000080B582B040F20100C2F200006F
S315080098600078FFF7CDFF08B9FFE71BE001F080FE9F
S315080098700190019840F28401C2F200010968401A79
S31508009880B0F57A7F0ED3FFE7019840F28401C2F261
S315080098900001086040F20100C2F20000007800F002
S315080098A003F8FFE702B080BD80B584B08DF80F00DD
S315080098B00020029001909DF80F008DF8040042F2F6
S315080098C00D60C1F6FF0001A90822FCF7ABFD04B044
S315080098D080BD000080B582B08DF807009DF80700AE
S315080098E028B1FFE79DF80700072801D3FFE712E034
S315080098F09DF8070040F20101C2F2000108709DF8C8
S315080099000700FFF7D1FF01F033FE40F28401C2F2EF
S3150800991000010860FFE702B080BD000080B582B094
S315080099200020019045F20010C0F600004EF60851DE
S31508009930CEF20001086001F067FC0320009000F0F9
S3150800994061FA01F0D1FDFCF745F900F065FAFCF77C
S31508009950BBFAFDF769F800F025FD62B6FFF734FF9C
S315080099600098FFF7B7FF00F0F7FBFFE701F006FEE8
S31508009970FCF7A2FBFDF77AF800F098FDFFF76AFFFF
S3150800998000F030FCF2E7000080B582B00190019843
S315080099904FF48871FBF7B3FD019944F24D10C4F6F4
S315080099A054700860019901204860019900200872E6
S315080099B0019AFE215172019988720199C87201991A
S315080099C0C860019908610199087501994875019956
S315080099D08875019A0321D175019A0A211183019983
S315080099E048830199C861019981F82000019981F895
S315080099F0210002B080BD000080B584B002900298B4
S31508009A00006844F24D11C4F65471884204D0FFE749
S31508009A10FF208DF80F001FE002984068012804D047
S31508009A20FFE7FF208DF80F0016E00298D0F80C012A
S31508009A30009002984FF4867100F052FA019001984E
S31508009A400099884204D0FFE7FF208DF80F0003E055
S31508009A5000208DF80F00FFE79DF90F0004B080BDC8
S31508009A6080B588B006900591FEF774FA0698FEF759
S31508009A7049FA8DF807009DF80700032806D0FFE786
S31508009A80FEF7D4F9FF208DF81F002CE00598049006
S31508009A904420039000200290FFE702980399884229
S31508009AA01BD2FFE70698029A00EB8200049951F848
S31508009AB02210FEF75FFA8DF807009DF807000328C5
S31508009AC006D0FFE7FEF7B2F9FF208DF81F000AE07F
S31508009AD0FFE7029801300290DFE7FEF7A7F90020BA
S31508009AE08DF81F00FFE79DF91F0008B080BD000034
S31508009AF080B586B00590049103920293059804995F
S31508009B00039AFBF735FF0190019830B9FFE70598EE
S31508009B100299FBF75FFF30B1FFE70599029A0846FD
S31508009B20FCF70CF8FFE706B080BD000010B59AB048
S31508009B30DDF870C01990189117921693189902912A
S31508009B4008684A688B68D1F80CC0D1F810E04C69EF
S31508009B501394CDF848E0CDF844C010930F920E90B8
S31508009B608869C96915911490002003900D900C908E
S31508009B700B900A900990089007900690012106918B
S31508009B800590FFE7059807282DDCFFE700200490DD
S31508009B90FFE704981F2821DCFFE71C98059950F871
S31508009BA021000499C840C00750B1FFE7179B1698D3
S31508009BB06946086006A90EAA084600F02BF8FFE7D2
S31508009BC0179B1698694608600EAA1046114600F0BB
S31508009BD021F8FFE7049801300490DAE7FFE70598D3
S31508009BE001300590CEE719990698079A089BDDF883
S31508009BF024C0DDF828E00B9C4C61C1F810E0C1F8E0
S31508009C000CC08B604A6008600C980D9ACA6188611E
S31508009C101AB010BD10B5B6B0DDF8E0C03590349175
S31508009C203392329319A802904421FBF78AFC0298D2
S31508009C3000F12001349A339BFBF718FF00200790A8
S31508009C40FFE707980F2800F38680FFE700200390B8
S31508009C5008200890FFE7089810280CDCFFE7089909
S31508009C6019A850F82110039808430390FFE70898AD
S31508009C7001300890EFE7039808B9FFE76BE02198F1
S31508009C802299239A249BDDF894C0DDF898E0CDF854
S31508009C90BCE0CDF8B8C02D932C922B912A9027982A
S31508009CA0289931913090329B11A809A92AAAFBF765
S31508009CB0DDFE0020059004900890FFE70898072825
S31508009CC021DCFFE7089B19AA52F8230011A951F8CD
S31508009CD0231010EB010E4FF0000141F1000C049B1C
S31508009CE0059813EB0E0340EB0C00049305900498BB
S31508009CF0089B42F82300059805910490FFE7089809
S31508009D0001300890DAE700200890FFE7089807284E
S31508009D101ADCFFE7089909A850F821200499059844
S31508009D20891840F10000049105900498089A19A929
S31508009D3001EB820108620598002105910490FFE76E
S31508009D40089801300890E1E704982990FFE70798FA
S31508009D500130079075E73599019119981A9A1B9B56
S31508009D60DDF870C0DDF874E01E9C4C61C1F810E0A7
S31508009D70C1F80CC08B604A6008601F98209ACA61B7
S31508009D808861FFE735983899FBF724FE30B1FFE77D
S31508009D903599389A0846FBF7D1FEF3E736B010BD79
S31508009DA080B586B0059004910392029305980499AC
S31508009DB0039AFBF7C3FE0190019830B1FFE70599B6
S31508009DC0029A0846FBF7D4FDFFE706B080BD0000FF
S31508009DD080B584B08DF80F000291019200200090A2
S31508009DE0FBF720FD0299019AFBF72EFC00909DF9DE
S31508009DF00F000099FBF71EFD9DF90F00FBF7FAFC13
S31508009E0004B080BD80B582B08DF807009DF80700C4
S31508009E10FBF754FD02B080BD82B04EF20000C0F6DA
S31508009E20010000680090009844F63151C4F6566166
S31508009E3088420AD1FFE740F2F001C2F20001012090
S31508009E40087000208DF8070009E040F2F001C2F220
S31508009E5000010020087003208DF80700FFE79DF831
S31508009E60070002B07047000080B5C6B001A800F030
S31508009E70D5F820B1FFE7FF208DF817012BE09DF8F4
S31508009E801800022804D0FFE700208DF8170122E009
S31508009E909DF81900009000F029F9014600988842BB
S31508009EA004D0FFE7FF208DF8170114E09DF819008C
S31508009EB08DF80C00FE208DF80D0003208DF8180093
S31508009EC000208DF81A008DF8250001A800F0DCF8AE
S31508009ED08DF81701FFE79DF9170146B080BD000010
S31508009EE087B006900591069804904FF0FF300390CE
S31508009EF000200290FFE702980599884229D2FFE7D9
S31508009F0004980299415C0398484003900020019008
S31508009F10FFE70198072817D8FFE7039800F0010024
S31508009F200090039840080390009840B1FFE7039813
S31508009F3048F22031CEF6B85148400390FFE7FFE7D4
S31508009F40019801300190E4E7FFE70298013002909A
S31508009F50D1E70398C04307B07047000080B586B0C4
S31508009F6004908DF80F10049820B1FFE79DF80F00B4
S31508009F7020B9FFE7FF208DF817004BE000F0CEF878
S31508009F8002900298006844F25811C4F65471884247
S31508009F9004D0FFE7FF208DF817003BE000208DF87E
S31508009FA00700FFE79DF8071000200E2900900BD840
S31508009FB0FFE79DF807109DF80F00421E002091420A
S31508009FC038BF01200090FFE70098C007D0B1FFE72F
S31508009FD002989DF80710084490F84C008DF8060082
S31508009FE09DF8060008B9FFE70CE09DF806000499FD
S31508009FF09DF807208854FFE79DF8070001308DF883
S3150800A0000700CFE704999DF80720002088548DF8AB
S3150800A0101700FFE79DF9170006B080BD80B584B02C
S3150800A02002904CF20000C0F6010001900198FFF77B
S3150800A030E3FC50B9FFE7029801994FF48872FBF7E1
S3150800A040DFF900208DF80F001AE04CF60000C0F684
S3150800A050010000900098FFF7CFFC50B9FFE702987F
S3150800A06000994FF48872FBF7CBF900208DF80F00A2
S3150800A07006E00298FFF788FCFF208DF80F00FFE73F
S3150800A0809DF90F0004B080BD80B5C8B046904699CA
S3150800A09002A801904FF48872FBF7B2F901984FF4C1
S3150800A0A08671FFF71DFF019945904CF60000C0F632
S3150800A0B00100FFF7D5FC20B1FFE7FF208DF81F014F
S3150800A0C010E04CF20000C0F6010002A9FFF7C8FC38
S3150800A0D020B1FFE7FF208DF81F0103E000208DF86F
S3150800A0E01F01FFE79DF91F0148B080BD80B582B00A
S3150800A0F000F014F840F60001C0F60101884204D1C8
S3150800A100FFE701208DF8070003E000208DF807001F
S3150800A110FFE79DF8070002B080BD000082B04EF64A
S3150800A1200850CEF2000000680090009840F6001132
S3150800A130C0F60101884206D3FFE740F60000C0F6E4
S3150800A1400100019005E045F20000C0F6000001900C
S3150800A150FFE7019802B0704780B5C6B040F2E40147
S3150800A160C2F200010020087002A8FFF757FF08B1E5
S3150800A170FFE734E09DF81C00022801D0FFE72EE037
S3150800A1809DF81D000090FFF7B1FF01460098884230
S3150800A19001D0FFE723E0BDF820004FF47A71484369
S3150800A1A00190019820B9FFE742F210700190FFE78D
S3150800A1B040F2E401C2F200010120087001F0D8F96A
S3150800A1C0014640F2E800C2F2000001600068019909
S3150800A1D0084440F2E001C2F200010860FFE746B019
S3150800A1E080BD000080B582B040F2E400C2F20000F3
S3150800A1F0007808B9FFE724E001F0BAF90190019860
S3150800A20040F2E001C2F200010968401A002802D4AF
S3150800A210FFE7FBF799FB019840F2E801C2F200015B
S3150800A2200968401A64280CD3FFE7FFF71DFE38B902
S3150800A230FFE740F2E401C2F2000100200870FFE7E0
S3150800A240FFE702B080BD000080B5C6B002A8FFF7E0
S3150800A250E5FEC8B1FFE7FFF749FF8DF8070002A83A
S3150800A260FFF792FB9DF807008DF810009DF8070090
S3150800A270012804D1FFE701208DF8130003E001202F
S3150800A2808DF81200FFE7FFE701208DF8290002A8E4
S3150800A290FFF7FAFE46B080BD80B5BCB03B903A9158
S3150800A2A039920020069021A86021FBF74AF9072079
S3150800A2B00890FFE70898002845D4FFE71F20079075
S3150800A2C0FFE70798002839D4FFE73998089950F826
S3150800A2D021000799C84000F001000590069860B172
S3150800A2E0FFE709A8049021A90391FFF793F90398BA
S3150800A2F004996022FBF7C9F8FFE70598C8B1FFE79C
S3150800A300069840B9FFE73A9921A86022FBF7BDF8FD
S3150800A310012006900CE03A9A09A8029021A9019119
S3150800A320FFF7B0F8019802996022FBF7AEF8FFE74D
S3150800A330FFE7FFE7079801380790C2E7FFE70898A5
S3150800A34001380890B6E73B9821A96022FBF79DF8EB
S3150800A3503CB080BD80B582B08DF807008DF8061038
S3150800A3607F208DF803009DF807008DF804009DF8FE
S3150800A37006008DF805000DF10300032100F002F830
S3150800A38002B080BD80B582B00190ADF80210019987
S3150800A390BDF8022040F20D30C1F6DA00FEF7A4FE41
S3150800A3A002B080BD80B58AB01120C0F21400012128
S3150800A3B00691FDF7B7F806991120C0F21C00FDF7C3
S3150800A3C0B1F808A80190FDF75BFE019906980422EA
S3150800A3D00892022200928DF82620002207928DF814
S3150800A3E024208DF825208DF827004FF09040029004
S3150800A3F0FDF758FE0099029807220392FDF7E2FE40
S3150800A4000198FDF73DFEDDF800C001990298069A0D
S3150800A410079B4FF0080ECDF820E08DF826C08DF882
S3150800A42024308DF825208DF82720FDF73BFE02986D
S3150800A430039A03210491FDF7C5FE069A079B44F289
S3150800A4400040C4F2000005904FF4165101F042FB9B
S3150800A4500598079901F0EAFB0598069901F030FC82
S3150800A4600598069901F01AFC0598069A0521C0F286
S3150800A4700C0101F0B7FB0499079A1C20FFF7A8FC0A
S3150800A4800598069901F0D4FA079841F24F21C2F2CD
S3150800A4900001087041F25021C2F20001087040F232
S3150800A4A03C11C2F2000108700AB080BD80B582B0C6
S3150800A4B040F23C10C2F200000078012818DBFFE7E2
S3150800A4C040F23410C2F20000006888B1FFE70DF1CF
S3150800A4D0070000F057F850B9FFE740F23410C2F20F
S3150800A4E0000002680DF1070001219047FFE7FFE72A
S3150800A4F002B080BD80B582B044F20040C4F20000CC
S3150800A500202101F0D1FAD8B3FFE744F20040C4F2A3
S3150800A510000001F085FA8DF8070040F23C10C2F2FF
S3150800A520000000783F2819D8FFE79DF8070041F298
S3150800A5304F21C2F200010B7840F2F102C2F200028A
S3150800A540D0540878013000F03F00087040F23C1102
S3150800A550C2F20001087801300870FFE744F20040B3
S3150800A560C4F20000082101F09FFA40B1FFE744F267
S3150800A5700040C4F20000082101F06CFAFFE7FFE78B
S3150800A58002B080BD82B0009072B640F23C10C2F2B2
S3150800A5900000007828B9FFE762B6FF208DF80700AB
S3150800A5A01CE041F25021C2F200010A7840F2F100A3
S3150800A5B0C2F20000805C009A10700878013000F042
S3150800A5C03F00087040F23C11C2F2000108780138D9
S3150800A5D0087062B600208DF80700FFE79DF90700AE
S3150800A5E002B0704741F24C20C2F200000178002008
S3150800A5F00F2988BF0120704740F20001C2F200010E
S3150800A6000120087041F25121C2F2000100200870B1
