S315080051000035002079520008DD550008C55500080D
S31508005110D1550008A55500087D5700080000000075
S3150800512000000000000000000000000051560008C2
S31508005130C1550008000000004D560008A956000891
S31508005140935200089352000893520008935200089D
S31508005150935200089352000893520008935200088D
S31508005160000000009352000893520008935200086A
S31508005170935200089352000893520008000000005A
S31508005180935200089352000800000000935200084A
S31508005190935200089352000893520008935200084D
S315080051A0935200089352000893520008935200083D
S315080051B0755700080000000093520008B95500080A
S315080051C0935200080000000093520008935200080A
S315080051D0B15500089352000800F002F800F03CF8B8
S315080051E00AA090E8000C82448344AAF10107DA4534
S315080051F001D100F031F8AFF2090EBAE80F0013F04A
S31508005200010F18BFFB1A43F001031847384900007D
S3150800521058490000103A24BF78C878C1FAD852070E
S3150800522024BF30C830C144BF04680C607047000012
S315080052300023002400250026103A28BF78C1FBD891
S31508005240520728BF30C148BF0B6070471FB504F02E
S315080052503CFC1FBD10B510BD00F069F91146FFF7FB
S31508005260F5FF03F0E9FA00F087F903B4FFF7F2FF58
S3150800527003BC00F08FF90000094880470948004739
S31508005280FEE7FEE7FEE7FEE7FEE7FEE7FEE7FEE7E8
S31508005290FEE7FEE704480549054A064B7047000045
S315080052A0B1560008D9510008001300200035002027
S315080052B0001500200015002053EA020C00F0698052
S315080052C02DE9F04B4FF00006002B1FBFB3FA83F50C
S315080052D003FA05F424FA05F65E4012BF1643B2FA3D
S315080052E082F502FA05F4C5F120051EBF22FA05FC6F
S315080052F044EA0C04203556EA044C4FEA144418BF15
S31508005300641C4FF000084FF00009904271EB030C43
S3150800531039D3002919BFB1FA81F701FA07F6B0FAAD
S3150800532080F700FA07F6C7F120071EBF20FA07FC28
S3150800533046EA0C062037B6FBF4FCA7EB0507103F38
S3150800534007F01F0BCBF120062CFA06F60CFA0BFB1E
S3150800535044BFB3460026202FA4BF5E464FF0000B7D
S315080053605BEA060C08BF4FF0010B19EB0B0948EB7B
S315080053700608ABFB027C06FB02CC0BFB03CCC01B6E
S3150800538071EB0C01C1E70B46024641464846BDE8AB
S31508005390F08B13B5084318BF4FF0FF300146AFF343
S315080053A00080BDE81C407047032A40F2308010F0A8
S315080053B0030C00F0158011F8013BBCF1020F6244A2
S315080053C098BF11F801CB00F8013B38BF11F8013B33
S315080053D0A2F1040298BF00F801CB38BF00F8013BE0
S315080053E011F0030300F04A80083AC0F0088051F82B
S315080053F0043B083A51F804CBA0E80810F5E7121D5B
S315080054005CBF51F8043B40F8043BAFF30080D20779
S3150800541024BF11F8013B11F801CB48BF11F8012B45
S3150800542024BF00F8013B00F801CB48BF00F8012B68
S3150800543070474FF000020429C0F0128010F0030CE8
S3150800544000F05080CCF1040CBCF1020F18BF00F834
S31508005450012BA8BF20F8022BA1EB0C0100F042B8E3
S315080054605FEAC17C24BF00F8012B00F8012B48BF76
S3150800547000F8012B704770477047704710B5203AFF
S31508005480C0F00B80B1E81850A0E81850B1E81850E1
S31508005490A0E81850203ABFF4F5AF5FEA027C24BFB3
S315080054A0B1E81850A0E8185044BF18C918C0BDE89C
S315080054B010405FEA827C24BF51F8043B40F8043B65
S315080054C008BF7047D20728BF31F8023B48BF11F81A
S315080054D0012B28BF20F8023B48BF00F8012B704774
S315080054E04FF0000200B5134694469646203922BF6F
S315080054F0A0E80C50A0E80C50B1F12001BFF4F7AFBA
S31508005500090728BFA0E80C5048BF0CC05DF804EB9B
S31508005510890028BF40F8042B08BF704748BF20F809
S31508005520022B11F0804F18BF00F8012B7047754603
S3150800553000F02CF8AE4605006946534620F00700F1
S31508005540854618B020B5FFF7A5FEBDE820404FF008
S3150800555000064FF000074FF000084FF0000BAC466E
S31508005560ACE8C009ACE8C009ACE8C009ACE8C009B9
S3150800557021F007018D46704710B50446AFF3008049
S315080055802046BDE81040FFF770BE0000004870478F
S315080055900800002001491820ABBEFEE726000200DD
S315080055A0704700004FF00051FA200860FFE7FEE759
S315080055B080B500F01FFA80BD80B500F07BFC80BD89
S315080055C0704700004FF00051FA200860FFE7FEE739
S315080055D04FF00051FA200860FFE7FEE77047000029
S315080055E088B0079006910592079800F00700049086
S315080055F00498C0F10700052803D3FFE704200190AB
S3150800560004E00498C0F107000190FFE701980390B1
S3150800561004980430062803D8FFE70020009003E02A
S31508005620049803380090FFE70098029006980399BB
S31508005630012202FA01F101390840029B98400599B6
S315080056409A40013A1140084308B070477047000075
S315080056507047000080B582B0009000980138B0F11C
S31508005660807F03D3FFE70120019019E000980138F5
S315080056704EF21401CEF2000108604FF0FF300F2100
S3150800568000F0C4F84EF21801CEF2000100200860BE
S315080056904EF21002CEF20002072111600190FFE7D8
S315080056A0019802B080BD000080B503F0F1FF80BD0F
S315080056B04EF68851CEF20001086840F47000086082
S315080056C041F20001C4F20201086840F001000860D6
S315080056D0FFE741F20000C4F2020000684008C00774
S315080056E008B9FFE7F5E741F20401C4F202010868C8
S315080056F020F003000860FFE741F20400C4F202004C
S3150800570000688008800708B1FFE7F5E741F2000165
S31508005710C4F2020108684FF6FF72CFF6F262104033
S31508005720086041F20401C4F202010020086041F257
S315080057302C02C4F2020241F61071116041F23001E6
S31508005740C4F20201086041F20801C4F202014FF4F2
S315080057501F00086041F26801C4F20201086840F0BF
S31508005760010008604EF60851CEF200014FF00060C5
S315080057700860704780B503F07BFC80BD4FF0005190
S31508005780FA200860FFE7FEE781B08DF803009DF96F
S31508005790030000280ED4FFE79DF9031001F01F024D
S315080057A0012090404A094EF20011CEF2000141F85C
S315080057B02200FFE701B070474EF60C50CEF200000B
S315080057C00068C0F30220704782B08DF80700009188
S315080057D09DF9070000280AD4FFE7009800019DF903
S315080057E007104EF20042CEF2000288540BE00098F1
S315080057F000019DF8071001F00F014EF61452CEF283
S3150800580000028854FFE702B07047000082B08DF8A6
S31508005810070000919DF9070000280AD4FFE70098C1
S3150800582000019DF907104EF20042CEF2000288549C
S315080058300BE0009800019DF8071001F00F014EF6E5
S315080058401452CEF200028854FFE702B070470000F7
S3150800585083B00290029800F0070000904EF60C51B3
S31508005860CEF200010868019001984FF6FF02104039
S3150800587001900198009A40EA02200022C0F2FA52EA
S31508005880104301900198086003B07047BFF34F8F2B
S315080058904EF60C51CEF20001086800F4E0600422CE
S315080058A0C0F2FA5210430860BFF34F8FFFE700BFFC
S315080058B0FDE70000BFF34F8F4EF60C51CEF2000104
S315080058C0086800F4E0600422C0F2FA521043086047
S315080058D0BFF34F8FFFE700BFFDE7000081B00090E0
S315080058E000990120087000990C204880009904202E
S315080058F008710099487000990620C880009902200E
S3150800590008720099487100990720487201B07047DB
S3150800591082B00190009100980078421E01990869AA
S3150800592062F30400086100984088821E019948685D
S3150800593062F30800486000980079421E0199486899
S3150800594002F07F0220F4FE0040EA02404860009818
S315080059504078421E0199486802F07F0220F0FE4016
S3150800596040EA026048600098C088821E01998868EB
S3150800597062F3070088600098007A421E01998868D9
S3150800598002F07F0220F4FE0040EA02408860009898
S315080059904079421E0199886802F07F0220F0FE4095
S315080059A040EA026088600098427A0199086920F402
S315080059B07F4040EA0220086102B0704782B0019039
S315080059C000208DF803000198806AC00720B1FFE720
S315080059D001208DF80300FFE79DF8030002B0704729
S315080059E081B000900099886A40F00100886201B091
S315080059F07047000080B546F20040C4F2000002215C
S31508005A0000F028FDE8B1FFE746F20040C4F20000C6
S31508005A10FFF7D4FF68B1FFE746F20040C4F2000082
S31508005A20FFF7DEFF40F26C01C2F2000101200870A8
S31508005A30FFE746F20040C4F20000022100F002FD32
S31508005A40FFE746F20040C4F200004FF4807100F010
S31508005A5001FD48B1FFE746F20040C4F200004FF4EA
S31508005A60807100F0EFFCFFE746F20040C4F2000048
S31508005A704FF4007100F0EEFC48B1FFE746F2004033
S31508005A80C4F200004FF4007100F0DCFCFFE746F2B8
S31508005A900040C4F200004FF4806100F0DBFC48B11E
S31508005AA0FFE746F20040C4F200004FF4806100F0C0
S31508005AB0C9FCFFE780BD000080B596B01120C0F292
S31508005AC014000121089101F007FB08991920C0F27A
S31508005AD01C0001F001FB089900200A9001F004F966
S31508005AE014A8019001F084FD019908980A9A4FF4C8
S31508005AF000631493022309938DF856308DF85420C9
S31508005B008DF855008DF857004FF09040029001F03F
S31508005B1081FD02980B210422039201F0EFFD019802
S31508005B2001F066FD01990298089ADDF824C00A9BDF
S31508005B304FF4805ECDF850E08DF856C08DF854309D
S31508005B408DF855308DF8572001F064FD0298039AB8
S31508005B500C2101F0D3FD46F20040C4F20000079084
S31508005B6000F0BEFD07980A9900F0A4FC11A804905D
S31508005B70FFF7B4FE039A049907980A238DF8443070
S31508005B808DF845203F22ADF8462009228DF8482099
S31508005B90FFF7BEFE0BA8069000F01CFB069A0798B6
S31508005BA0089B0A9940F6035CC1F6DA0CCDF82CC0BE
S31508005BB08DF830308DF831106FF0604CCDF814C088
S31508005BC0CDF838C08DF83C308DF83D308DF83E1054
S31508005BD08DF8421000F050FB0798089A0A9900F0D1
S31508005BE023FB069800F0F6FADDF814C0069A079823
S31508005BF008990A9B43F2D03EC1F6DB0ECDF82CE09D
S31508005C008DF830108DF83130CDF838C08DF83C104D
S31508005C108DF83D108DF83E308DF8423000F02CFBA3
S31508005C200798089A114600F0FFFA0798089A802103
S31508005C3000F024FC0798089A099900F01FFC0899B7
S31508005C400A9A1F2002F0E0FE09990A9A242002F017
S31508005C50DBFE0A9841F2F511C2F20001087041F222
S31508005C60F611C2F20001087041F2F411C2F2000105
S31508005C70087040F2E001C2F20001086040F26801D3
S31508005C80C2F20001086040F26C01C2F2000108701D
S31508005C9016B080BD80B586B0FFE741F2F410C2F2B7
S31508005CA00000007801285EDBFFE741F2F611C2F238
S31508005CB000010878020141F2F400C2F2000082589D
S31508005CC00292097800EB0110007B8DF81400002081
S31508005CD08DF80700FFE79DF807009DF81410884225
S31508005CE01BDAFFE741F2F610C2F20000017841F232
S31508005CF0F400C2F2000000EB01109DF807100844FA
S31508005D0000799DF8072002A911440871FFE79DF85C
S31508005D10070001308DF80700DDE741F2F611C2F2FF
S31508005D2000010878013000F00F00087072B641F2E1
S31508005D30F411C2F2000108780138087062B640F220
S31508005D40E000C2F20000006860B1FFE740F2E00040
S31508005D50C2F200000368029802A904319DF81420D3
S31508005D609847FFE799E740F26C00C2F20000007816
S31508005D70A8B1FFE740F26C01C2F2000100200870EA
S31508005D8040F26800C2F20000006838B1FFE740F24E
S31508005D906800C2F2000000688047FFE7FFE706B028
S31508005DA080BD000085B0039002910192039830B13E
S31508005DB0FFE7029818B1FFE7019820B9FFE7FF202F
S31508005DC08DF813005DE072B641F2F410C2F20000DD
S31508005DD0007828B9FFE762B6FF208DF8130050E077
S31508005DE041F2F611C2F200010878020141F2F4000C
S31508005DF0C2F200008258039B1A60097800EB011072
S31508005E00007B8DF802009DF80200019908700020B9
S31508005E108DF80300FFE79DF803009DF802108842FD
S31508005E201ADAFFE741F2F610C2F20000017841F2F1
S31508005E30F400C2F2000000EB01109DF803100844BC
S31508005E40007902999DF803208854FFE79DF803001E
S31508005E5001308DF80300DEE741F2F611C2F20001C7
S31508005E600878013000F00F00087041F2F411C2F210
S31508005E70000108780138087062B600208DF8130012
S31508005E80FFE79DF9130005B07047000081B0009048
S31508005E90009840F26801C2F20001086001B070473C
S31508005EA081B00090009840F2E001C2F2000108605B
S31508005EB001B0704780B598B046F20040C4F20000C1
S31508005EC0802100F0C7FA002800F08780FFE746F235
S31508005ED00040C4F2000003A900F01CFC012870D1A0
S31508005EE0FFE703F03DF900286AD1FFE7039A41F27C
S31508005EF0F511C2F200010878030141F2F400C2F27A
S31508005F000000C2509DF8122002F00F020B7800EB39
S31508005F1003131A73097800EB0110007B09280ED3C6
S31508005F20FFE741F2F510C2F20000017841F2F400F1
S31508005F30C2F2000000EB011108200873FFE70020F9
S31508005F408DF80B00FFE79DF80B0041F2F511C2F240
S31508005F5000010A7841F2F401C2F2000101EB0211D4
S31508005F60097B88421BDAFFE79DF80B1003A8084453
S31508005F70807A41F2F511C2F200010A7841F2F40181
S31508005F80C2F2000101EB02119DF80B2011440871C1
S31508005F90FFE79DF80B0001308DF80B00D3E741F2BF
S31508005FA0F511C2F200010878013000F00F00087000
S31508005FB041F2F411C2F20001087801300870FFE7D7
S31508005FC0FFE746F20040C4F20000019000F076FCBC
S31508005FD00198802100F036FAFFE746F20040C4F245
S31508005FE00000402100F036FA40B1FFE746F20040D3
S31508005FF0C4F20000402100F025FAFFE718B080BD82
S3150800600080B59CB01A9019918DF86320199828B11B
S31508006010FFE79DF86300092804D3FFE7FF208DF802
S315080060206F00A6E01A98059001208DF81800002048
S315080060308DF819008DF85E008DF85D009DF86300F7
S3150800604001460191072826D80199DFE801F00408DE
S315080060500C1014181C2000208DF81A001FE00120CF
S315080060608DF81A001BE002208DF81A0017E00320AD
S315080060708DF81A0013E004208DF81A000FE00520A9
S315080060808DF81A000BE006208DF81A0007E00720A5
S315080060908DF81A0003E008208DF81A00FFE70020A3
S315080060A08DF80B00FFE79DF80B009DF863108842FA
S315080060B00EDAFFE719989DF80B20805C05A91144B4
S315080060C04872FFE79DF80B0001308DF80B00EAE7F0
S315080060D046F20040C4F2000003A900F019FC9DF83E
S315080060E00D0028B1FFE79DF80D00032804D1FFE74E
S315080060F000208DF8130014E046F20040C4F20000B8
S3150800610000F0FEFB8DF812009DF81200032804D15A
S31508006110FFE7FF208DF86F002BE001208DF81300B4
S31508006120FFE79DF8131046F20040C4F2000005AAE6
S3150800613000F074FC012804D0FFE7FF208DF86F00FB
S3150800614017E09DF8130040B9FFE746F20040C4F295
S315080061500000102100F0F6FB07E046F20040C4F20A
S315080061600000042100F0EEFBFFE700208DF86F0029
S31508006170FFE79DF96F001CB080BD000080B584B0B4
S31508006180029003F023FA0190FFE746F20040C4F2BA
S315080061900000694600F0BCFB9DF8010028B1FFE746
S315080061A09DF80100032804D1FFE700208DF80F00B1
S315080061B00CE0FFE703F00AFA0199401A02998842AF
S315080061C0E3D3FFE7FF208DF80F00FFE79DF90F00E7
S315080061D004B080BD81B00090009900200860009945
S315080061E00871009948710099887100998872009918
S315080061F0C871009908720099487200994FF0FF30EB
S31508006200C86000990120087400994874009A0F2103
S315080062109174009988750099C87400990875009951
S31508006220487501B07047000082B001908DF80310E0
S315080062308DF802209DF8020068B1FFE79DF803106B
S315080062400120884001994A6C40EA1242486CC0EA2B
S31508006250024048640DE09DF8031001208840C043C1
S3150800626001994A6C00EA1242486CC0EA0240486446
S31508006270FFE702B07047000085B004908DF80F1054
S3150800628002929DF80F200499486C62F30300486453
S31508006290029800790146019120B1FFE7019801288B
S315080062A008D00EE0029800686FF3DF208004049996
S315080062B0886407E00298006820F0604004998864C2
S315080062C000E0FFE7029802790499C86C02F001021F
S315080062D020F4803040EA0240C86402984279049962
S315080062E0C86C02F0010220F4801040EA0250C8642B
S315080062F0029882790499C86C62F30300C86402980C
S31508006300827A0499C86C02F0010220F0805040EAB3
S315080063100270C8640298027A0499C86C02F00102F5
S3150800632020F4802040EA8240C8640298C279049921
S31508006330C86C02F0010220F4003040EA4240C8640A
S315080063400298427A0499C86C02F0010220F00060B3
S3150800635040EAC260C86404994FF0FF308865029825
S3150800636000790146009120B1FFE7009801280CD07A
S3150800637014E00298C16840F2FF7020EA010204990D
S31508006380886D20EA8240886509E00298C06840F076
S3150800639060420499886D1040886500E0FFE704991B
S315080063A04FF0FF30C86502990B7C049AD16D03F053
S315080063B0010321F4803141EA0341D16502994B7CFE
S315080063C0049AD16D03F0010321F4801141EA0351C7
S315080063D0D16502998B7C049AD16D63F30301D1656B
S315080063E002998B7D049AD16D03F0010321F0805147
S315080063F041EA0371D16502990B7D049AD16D03F0C8
S31508006400010321F4802141EA8341D1650299CB7CBD
S31508006410049AD16D03F0010321F4003141EA4341A6
S31508006420D16502994B7D049AD16D03F0010321F0E1
S31508006430006141EAC361D165049908660499486612
S3150800644005B0704782B001900091009801994861A3
S3150800645002B0704783B00290019100208DF80300C6
S31508006460029840690199084204D0FFE701208DF897
S315080064700300FFE79DF8030003B0704783B002905E
S3150800648001918DF803209DF8030040B1FFE7019ABA
S315080064900299D1F840011043C1F8400107E0019A7A
S315080064A00299D1F840019043C1F84001FFE703B0D3
S315080064B07047000083B002908DF807109DF807001A
S315080064C001460091062800F29A800099DFE801F05B
S315080064D004192E43586D82000299886A20F04000FC
S315080064E088620299886A20F0004088620299886A60
S315080064F020F0200088620299886A20F48040886229
S315080065007EE00299886A40F0400088620299886AAB
S3150800651020F0004088620299886A20F0200088628C
S315080065200299886A20F48040886269E00299886A3C
S3150800653040F0400088620299886A40F0004088620C
S315080065400299886A20F0200088620299886A20F4F5
S315080065508040886254E00299886A20F04000886288
S315080065600299886A20F0004088620299886A40F099
S31508006570200088620299886A20F4804088623FE099
S315080065800299886A20F0400088620299886A20F099
S31508006590004088620299886A20F020008862029981
S315080065A0886A40F4804088622AE00299886A40F046
S315080065B0400088620299886A20F000408862029941
S315080065C0886A20F0200088620299886A40F4804030
S315080065D0886215E00299886A40F04000886202994C
S315080065E0886A40F0004088620299886A20F0200094
S315080065F088620299886A40F48040886200E0FFE772
S3150800660003B0704780B540F20001C2F200010120D4
S31508006610087041F2F911C2F200010020087002F078
S31508006620D5FF40F29401C2F20001086047F61D60EA
S31508006630C0F6000001F0CCFB46F28D60C0F6000003
S31508006640FFF72EFC80BD000080B582B001F00EFC7D
S3150800665040F20000C2F200000078012813D0FFE7DC
S3150800666002F0B4FF0190019840F29401C2F20001D1
S315080066700968401A41F28831884203D3FFE702F0DD
S3150800668079FDFFE7FFE702B080BD000080B584B062
S31508006690039002918DF80720039840F60351C1F63E
S315080066A0DA0188420ED0FFE703984FF60071C1F66B
S315080066B0FF71084043F20031C1F6DB01884201D080
S315080066C0FFE70AE09DF8070008B9FFE705E002982A
S315080066D09DF8071001F0EAFBFFE704B080BD000053
S315080066E080B582B00190019846F20041C4F20001DB
S315080066F088420CD1FFE71920C0F210000090012152
S3150800670000F014FD0098002100F010FDFFE702B02C
S3150800671080BD00008AB0089007910898406F00F085
S315080067200F0149F62230C0F60000405C8DF81B00C8
S3150800673008988030059007980A3004900898806A6F
S31508006740000E800720B9FFE700208DF82700B0E08B
S315080067500898406FC0F300400799087107980079B8
S315080067600146009120B1FFE70098012807D00DE007
S315080067700898006FC0F38A40079908600AE00898ED
S31508006780006F20F060400799086003E000208DF84C
S3150800679027008EE00898406FC0F3005007994871AB
S315080067A00898406FC0F340400799C8710898406F31
S315080067B0C0F38040079908720898406FC0F3C0601C
S315080067C0079948720898406FC0F30260079981F8E4
S315080067D04B000898406FC0F30070079981F84A008B
S315080067E00898406F00F00F000799887100208DF80F
S315080067F00F00FFE79DF80F009DF81B10884226DA68
S31508006800FFE70598006804999DF80F2088540598B5
S315080068100068000A049A9DF80F10114448700598FC
S315080068204088049A9DF80F10114488700598C0781E
S31508006830049A9DF80F101144C87005980430059005
S31508006840FFE79DF80F0004308DF80F00D2E708988F
S31508006850406F0899C1F824010898D0F828116FF0FC
S31508006860030000EB9140ADF80C000898BDF80C1039
S3150800687000EB8100D0F880000799C8640898BDF835
S315080068800C1000EB8100D0F888000799A1F8500099
S3150800689008982B300290029800788DF807009DF82A
S315080068A0070040F010000299087001208DF82700B3
S315080068B0FFE79DF827000AB07047000084B00290F1
S315080068C00298806A000E800720B9FFE700208DF83D
S315080068D00F0010E002982B300190019800788DF88F
S315080068E003009DF8030040F010000199087001208C
S315080068F08DF80F00FFE79DF80F0004B07047000001
S3150800690081B000900098806AC0F3014001B07047DA
S3150800691082B0019000910198C069009908700198A9
S31508006920C069C0F30220009948700198C069000C3C
S31508006930009988700198C069C0F302600099C87010
S3150800694002B0704786B004908DF80F10049829306D
S3150800695002900498806A400BC00720B1FFE7002028
S315080069608DF8170055E09DF80F00014600910228A2
S3150800697019D0FFE70098042815D0FFE700981028DB
S3150800698032D1FFE70498806A000BC00730B9FFE7E9
S315080069900498806AC00AC00720B1FFE700208DF876
S315080069A0170036E024E00498806A000C800720B9B6
S315080069B0FFE700208DF817002BE00498806A400A4C
S315080069C0C00760B9FFE70498806A800AC00730B933
S315080069D0FFE70498806A000AC00720B1FFE7002095
S315080069E08DF8170015E003E000208DF8170010E079
S315080069F00298007800F0E0008DF807009DF807007F
S31508006A009DF80F1008430299087001208DF81700A9
S31508006A10FFE79DF8170006B0704700008CB00A9093
S31508006A208DF8271008920898817949F62230C0F621
S31508006A300000405C8DF81F000A98DC300690089824
S31508006A40093005909DF827000146019120B1FFE71E
S31508006A50019801280BD015E00A98806A000BC00738
S31508006A6020B1FFE700208DF82F00CDE00EE00A9850
S31508006A70806A800DC00720B1FFE700208DF82F003F
S31508006A80C2E003E000208DF82F00BDE00A98293007
S31508006A9003900398007800F060008DF80B009DF8CD
S31508006AA00B009DF8271040EAC11003990870089852
S31508006AB000790146009120B1FFE70098012809D026
S31508006AC010E0089800686FF3DF2080040A99C1F87F
S31508006AD0CC000BE00898006820F060400A99C1F8DD
S31508006AE0CC0003E000208DF82F008DE0089890F880
S31508006AF049200A99D1F8CC0040EAC270C1F8CC0006
S31508006B000A990020C1F8D00008990B790A9AD2F898
S31508006B10D01003F0010321F4803141EA0341C2F8A1
S31508006B20D01008994B790A9AD2F8D01003F00103CD
S31508006B3021F4801141EA0351C2F8D01008998B79E3
S31508006B400A9AD2F8D01063F30301C2F8D010089954
S31508006B500B7A0A9AD2F8D01003F0010321F48021A7
S31508006B6041EA8341C2F8D0100899CB790A9AD2F83B
S31508006B70D01003F0010321F4003141EA4341C2F881
S31508006B80D0108DF81300FFE79DF813009DF81F102D
S31508006B9088420FDAFFE705989DF8131040580699C2
S31508006BA00A1D06920860FFE79DF8130004308DF869
S31508006BB01300E9E70A990020C1F8D400089991F86A
S31508006BC04A300A9AD2F8D41021F07F4141EA03618B
S31508006BD0C2F8D4100A99C1F8D8009DF827000128F0
S31508006BE00ED1FFE70A982A300390039800788DF8AB
S31508006BF00B009DF80B0040F0400003990870FFE772
S31508006C0001208DF82F00FFE79DF82F000CB0704784
S31508006C1081B08DF803009DF8032041F20401C4F207
S31508006C200201086802F00F0220F0F00040EA0210A4
S31508006C30086001B07047000081B08DF803009DF828
S31508006C40032041F20401C4F20201086802F00702B7
S31508006C5020F4E06040EA0220086001B070470000B6
S31508006C6081B08DF803009DF8032041F20401C4F2B7
S31508006C700201086802F0070220F4605040EAC220C8
S31508006C80086001B07047000081B08DF803009DF8D8
S31508006C90032041F25401C4F20201086802F0070217
S31508006CA020F4E04040EA0230086001B07047000076
S31508006CB081B08DF803009DF80300012809D1FFE78C
S31508006CC041F25401C4F20201086840F0300008603D
S31508006CD008E041F25401C4F20201086820F03000CD
S31508006CE00860FFE701B0704781B08DF803008DF8A2
S31508006CF002109DF8030078B9FFE79DF8022041F2DB
S31508006D006801C4F20201086802F0030220F040702C
S31508006D1040EA02600860FFE701B0704782B08DF86C
S31508006D2007008DF806109DF8070001460091042813
S31508006D3044D80099DFE801F0030E1D2C37009DF8B2
S31508006D40062041F20001C4F20201086862F300005D
S31508006D50086034E09DF8062041F20001C4F2020101
S31508006D60086802F0010220F4803040EA0240086018
S31508006D7025E09DF8062041F20001C4F202010868E8
S31508006D8002F0010220F0807040EA0260086016E016
S31508006D909DF8062041F22001C4F20201086862F358
S31508006DA0000008600BE09DF8062041F22401C4F2B9
S31508006DB00201086862F30000086000E0FFE702B01D
S31508006DC07047000080B58EB00D90002001900C90A1
S31508006DD00B900A90099008900790069005900490E9
S31508006DE000F038FB8DF80F009DF80F000146029160
S31508006DF040B1FFE70298012825D0FFE7029802284C
S31508006E0028D0C1E041F25400C4F202000068400AEA
S31508006E10C00780B1FFE741F23000C4F20200006803
S31508006E20400EC00738B1FFE70D9946F60040C0F29C
S31508006E30DC20086006E00D9941F20020C0F27A00D5
S31508006E400860FFE7A7E00D9941F20020C0F27A003A
S31508006E500860A0E041F20400C4F202000068C0F332
S31508006E6000400A9041F22C00C4F20200016800209A
S31508006E70B0EBD17F47D1FFE741F20400C4F202002C
S31508006E800168C1F383410C910068C0F341700B900F
S31508006E900B9820B9FFE70C980F2807D1FFE70B9945
S31508006EA00C9800EB011001300C9003E00C980230AE
S31508006EB00C90FFE70A9848B9FFE70C9840F60011CE
S31508006EC0C0F23D0148430D9908601BE041F20400F9
S31508006ED0C4F202000068400CC00748B1FFE70C98EE
S31508006EE040F60011C0F23D0148430D99086008E0DC
S31508006EF00C9841F20021C0F27A0148430D990860C6
S31508006F00FFE7FFE73FE041F22C00C4F20200016808
S31508006F10C1F3031106910168C1F3082105910068C0
S31508006F2000F0070004900A9830B9FFE740F6001011
S31508006F30C0F23D00079015E041F20400C4F20200D9
S31508006F400068400CC00730B1FFE740F60010C0F2F9
S31508006F503D00079005E041F20020C0F27A00079054
S31508006F60FFE7FFE707980599A0FB0101069ADDF8F8
S31508006F7010C0012303FA0CF35A430023FEF79CF9C9
S31508006F800D990860FFE706E00D9941F20020C0F26E
S31508006F907A000860FFE741F20400C4F202000168C3
S31508006FA0C1F303110991099A49F61231C0F6000195
S31508006FB0895C08910D9A1168089BD940516001684F
S31508006FC0C1F302210991099A49F60231C0F6000176
S31508006FD0895C08910D9A5168089BD940D16001686F
S31508006FE0C1F3C2210991099A49F60A31C0F600018E
S31508006FF0895C08910D9A5168089BD940916001688F
S31508007000C1F30071099109990068C0F3813040EA1B
S3150800701081000990099949F6FA20C0F60000405CFB
S3150800702008900D998868089AB0FBF2F008610EB0CE
S3150800703080BD000082B0019000208DF80300BDF8E5
S31508007040060041F20001C4F202014058019901F01C
S315080070501F01C840C00720B9FFE700208DF80300CC
S3150800706003E001208DF80300FFE79DF8030002B056
S315080070707047000080B584B0002003908DF80B009F
S31508007080FFE71120FFF7D6FF0146002001290190EE
S3150800709008D0FFE703990020B1F5405F38BF01200B
S315080070A00190FFE70198C00720B1FFE70398013078
S315080070B00390E6E71120FFF7BDFF012804D0FFE79C
S315080070C000208DF80B0003E001208DF80B00FFE788
S315080070D09DF80B0004B080BD82B001908DF80310B6
S315080070E09DF8030001280FD1FFE7019800F01F0261
S315080070F0012101FA02F3010C41F20002C4F2020274
S315080071008858184388500EE0019800F01F020121A4
S3150800711001FA02F3010C41F20002C4F20202885895
S3150800712098438850FFE702B07047000082B001908C
S315080071308DF803109DF8030001280FD1FFE7019889
S3150800714000F01F02012101FA02F3010C41F20002CC
S31508007150C4F202028858184388500EE0019800F0DD
S315080071601F02012101FA02F3010C41F20002C4F2E6
S315080071700202885898438850FFE702B0704700001B
S3150800718083B08DF80B008DF80A10002001908DF859
S3150800719003009DF80B00B0B9FFE741F20401C4F201
S315080071A00201086820F48030086040F60010C0F23A
S315080071B03D00019041F23001C4F20201086840F036
S315080071C00070086029E041F20401C4F2020108686F
S315080071D040F4803008609DF80B0001280ED1FFE7C7
S315080071E041F20020C0F27A00019041F20401C4F293
S315080071F00201086820F4003008600DE040F600102F
S31508007200C0F23D00019041F20401C4F2020108688F
S3150800721040F400300860FFE7FFE7019848F2612173
S31508007220C0F23B0188420CD3FFE7019844F63F3190
S31508007230C0F24C01884204D8FFE700208DF803000D
S3150800724068E0019845F68101C0F24F0188420CD3E7
S31508007250FFE7019845F60F61C0F25F01884204D83E
S31508007260FFE701208DF8030053E0019843F295519A
S31508007270C0F2770188420CD3FFE7019841F60F3137
S31508007280C0F27F01884204D8FFE702208DF8030088
S315080072903EE0019841F61131C0F27F0188420CD3D5
S315080072A0FFE701984BF61F41C0F2BE01884204D899
S315080072B0FFE703208DF8030029E0019846F62931F7
S315080072C0C0F2EE0188420CD3FFE701984DF22F7108
S315080072D0C0F23D11884204D8FFE704208DF8030068
S315080072E014E001984DF23171C0F23D1188420CD379
S315080072F0FFE701984EF6D711C0F2DC11884204D890
S31508007300FFE705208DF80300FFE7FFE7FFE7FFE744
S31508007310FFE7FFE79DF80A0000F00F0241F20401BB
S31508007320C4F20201086820F4701040EA824008603E
S315080073309DF80A0000F03002086820F0C04040EAD4
S31508007340426008609DF8032041F22C01C4F2020154
S31508007350086802F0070220F0E06040EA0260086070
S3150800736003B0704741F20001C4F20201086840F018
S3150800737001000860FFE741F20000C4F2020000685D
S315080073804008C00708B9FFE7F5E741F20401C4F26F
S315080073900201086820F003000860FFE741F20400D4
S315080073A0C4F2020000688008800708B1FFE7F5E725
S315080073B041F20001C4F2020108684FF6FF72CFF6E7
S315080073C0F2621040086041F20401C4F20201002092
S315080073D0086041F22C02C4F2020241F610711160F3
S315080073E041F23001C4F20201086041F20801C4F218
S315080073F002014FF41F00086041F26801C4F202015D
S31508007400086840F0010008607047000081B08DF8F8
S3150800741003009DF8032041F20401C4F20201086842
S3150800742062F30100086000BF00BF00BF00BF00BFD5
S3150800743000BF00BF00BF00BF00BF00BF00BF00BF46
S3150800744000BF00BF00BF00BF00BF00BF00BF01B044
S315080074507047000041F20400C4F202000068C0F35D
S315080074608100704742F21001C4F20201086840F038
S31508007470800008607047000081B003208DF8030083
S3150800748042F20C00C4F202000068C00720B1FFE710
S3150800749000208DF803001FE042F20C00C4F202003F
S315080074A000688008C00720B1FFE701208DF80300B7
S315080074B011E042F20C00C4F2020000680009C0079D
S315080074C020B1FFE702208DF8030003E003208DF8C2
S315080074D00300FFE7FFE7FFE79DF8030001B07047E9
S315080074E080B584B0039003208DF80B00FFF7C4FF26
S315080074F08DF80B00FFE79DF80B100020019031B9BD
S31508007500FFE70398002818BF01200190FFE70198BC
S31508007510C00740B1FFE7FFF7AFFF8DF80B000398F0
S3150800752001380390E7E7039820B9FFE704208DF8B0
S315080075300B00FFE79DF80B0004B080BD80B584B052
S31508007540039003208DF80B0042F21001C4F20201E9
S315080075500191086840F002000860039842F214029C
S31508007560C4F202021060086840F0400008604FF05C
S315080075708040FFF7B5FF01998DF80B00086820F0E9
S31508007580020008609DF80B0004B080BD42F20401B9
S31508007590C4F2020140F22310C4F26750086048F6AC
S315080075A0AB10CCF6EF5008607047000080B584B089
S315080075B00390029103208DF8070042F21001C4F2ED
S315080075C002010091086840F00100086002980399DA
S315080075D008604FF48010FFF783FF00998DF80700C5
S315080075E0086820F0010008609DF8070004B080BD17
S315080075F081B0009000994FF6FF700860009900204E
S315080076008871009908710099487100990120C8711C
S3150800761001B0704783B0029001910020ADF80000D8
S3150800762001980068ADF80200FFE7BDF802000128DE
S3150800763062DBFFE7BDF80200C007002851D0FFE76C
S31508007640BDF800004100032000FA01F3029A116810
S315080076509943116001998979BDF80020520001FA11
S3150800766002F3029A116819431160BDF8002001213E
S3150800767001FA02F3029A516899435160019909790E
S31508007680BDF8002001FA02F3029A516819435160C5
S31508007690BDF80010490000FA01F3029A916899436F
S315080076A091600199C979BDF80020520001FA02F3E8
S315080076B0029A916819439160BDF80010490000FAD2
S315080076C001F20299C8689043C86001984079BDF8EC
S315080076D00010490000FA01F20299C8681043C86010
S315080076E0FFE7BDF802004008ADF80200BDF800004B
S315080076F00130ADF8000098E703B0704784B00390F6
S315080077008DF80B108DF80A200020019000909DF846
S315080077100A109DF80B2002F0070292009140019191
S315080077209DF80B10B0EBD10F15D0FFE79DF80B00B5
S3150800773000F0070081000F2000FA01F20399486A59
S31508007740904348620398406A01990843009000985C
S315080077500399486214E09DF80B0000F007008100C9
S315080077600F2000FA01F20399086A90430862039809
S31508007770006A019908430090009803990862FFE798
S3150800778004B0704780B586B00590ADF81210BDF804
S315080077901200012805D8FFE71020132101F098FBF5
S315080077A03FE0059840788DF809009DF8090000F03B
S315080077B080008DF808009DF8090000F07F008DF81C
S315080077C007009DF8070001280FD0FFE79DF807007E
S315080077D002280AD0FFE79DF80700032805D0FFE72F
S315080077E01020122101F074FB1BE09DF8070001F040
S315080077F0CFFC01F0EBFE40F29401C2F200010860F2
S315080078009DF8080068B9FFE750208DF80A009DF832
S3150800781007008DF80B000DF10A00022101F070FB3C
S31508007820FFE706B080BD000080B586B00590ADF8CC
S315080078301210BDF81200012805D8FFE71120132100
S3150800784001F046FB47E00598407800F07F008DF888
S3150800785009000598407800F080008DF808009DF82A
S315080078600900012805D0FFE71120122101F030FB9D
S3150800787031E040F20000C2F2000000780238B0FAA7
S3150800788080F040098DF807009DF8070050B1FFE722
S3150800789001F0F6FA28B1FFE71120722101F018FB72
S315080078A019E0FFE79DF8080068B9FFE751208DF851
S315080078B00A009DF809008DF80B000DF10A00022157
S315080078C001F01EFBFFE7062000F092FF1420FEF7EA
S315080078D055FCFDF7DBFF06B080BD000080B5ADF5B1
S315080078E0906DCDF87C04ADF87A1400208DF8650407
S315080078F0BDF87A04022805D8FFE72220132101F0F3
S31508007900E7FA71E1DDF87C044178807840EA0120E5
S31508007910ADF8620462208DF86604DDF87C044078D0
S315080079208DF86704DDF87C0480788DF868040320F8
S315080079308DF86104BDF862040146039142F2100114
S31508007940884200F0B480FFE7039842F21211884299
S3150800795000F0BA80FFE7039842F21311884200F05C
S31508007960D080FFE7039842F21411884200F0D880CD
S31508007970FFE7039842F21511884200F0EE80FFE710
S31508007980039842F21611884200F00481FFE7039833
S315080079904FF28911884212D0FFE703984FF28C11F3
S315080079A088423CD0FFE703984FF28D1188424ED0AB
S315080079B0FFE703984FF29111884260D006E10DF275
S315080079C05140102101F0E6F880B9FFE79DF86114EF
S315080079D00DF2664008440DF2514101F011FC0146D2
S315080079E09DF8610408448DF8610411E09DF861145E
S315080079F00DF26640084449F6F421C0F6000101F08C
S31508007A00FFFB01469DF8610408448DF86104FFE711
S31508007A109DF861140DF2664001F072FADAE09DF8FD
S31508007A2061140DF266400290084449F6F021C0F64A
S31508007A30000101F0E5FB024602989DF86114114425
S31508007A408DF861149DF8611401F05AFAC2E09DF8A8
S31508007A5061140DF266400190084449F6E421C0F627
S31508007A60000101F0CDFB024601989DF8611411440E
S31508007A708DF861149DF8611401F042FAAAE09DF8A8
S31508007A8061140DF266400090084449F6EA21C0F6F2
S31508007A90000101F0B5FB024600989DF861141144F7
S31508007AA08DF861149DF8611401F02AFA92E09DF8A8
S31508007AB061240DF26640012181549DF8611401315B
S31508007AC0C9B201F01DFA85E0D0A801F0C3F840B9A3
S31508007AD0FFE79DF861039DF861240DF2664188541D
S31508007AE006E09DF861240DF26641FF208854FFE701
S31508007AF09DF861040130C1B20DF2664001F000FA4A
S31508007B0068E001F00FF901469DF861240DF2664020
S31508007B1081549DF861140131C9B201F0F1F959E0B7
S31508007B208CA801F097F840B9FFE79DF839029DF84F
S31508007B3061240DF26641885406E09DF861240DF231
S31508007B406641FE208854FFE79DF861040130C1B202
S31508007B500DF2664001F0D4F93CE048A801F07AF845
S31508007B6040B9FFE79DF840019DF861240DF2664192
S31508007B70885406E09DF861240DF26641FF2088547A
S31508007B80FFE79DF861040130C1B20DF2664001F0CD
S31508007B90B7F91FE004A801F05DF838B9FFE70B98BC
S31508007BA09DF861240DF26641885406E09DF861242B
S31508007BB00DF2664100208854FFE79DF86104013004
S31508007BC0C1B20DF2664001F09BF903E031208DF851
S31508007BD06504FFE79DF8650430B1FFE79DF8651475
S31508007BE0222001F075F9FFE70DF5906D80BD0000C4
S31508007BF080B582B00190ADF802103120112101F054
S31508007C0067F902B080BD000080B582B00190ADF87A
S31508007C1002102720112101F05BF902B080BD000097
S31508007C2080B584B00390ADF80A1001F0CFFC40F29D
S31508007C309401C2F200010860BDF80A0002281ED3AA
S31508007C40FFE7039840788DF801009DF8010000F0E1
S31508007C5080008DF800009DF8000078B9FFE77E20C7
S31508007C608DF802009DF8010000F07F008DF80300F2
S31508007C700DF10200022101F043F9FFE708E07E203A
S31508007C808DF802000DF10200012101F039F9FFE734
S31508007C9004B080BD80B584B00390ADF80A10BDF875
S31508007CA00A00032805D8FFE72E20132101F010F952
S31508007CB04EE040F20000C2F200000078022805D02B
S31508007CC0FFE72E20222101F003F941E041F2F910E5
S31508007CD0C2F20000007828B9FFE72E20332101F010
S31508007CE0F7F835E003984178807840EA0120ADF846
S31508007CF00400BDF8040042F21001884223D1FFE7D0
S31508007D000398C0788DF803009DF8030028B1FFE7B3
S31508007D109DF80300042805D3FFE72E20312101F042
S31508007D20D7F815E06E208DF80600039840788DF890
S31508007D300700039880788DF808000DF106000321E6
S31508007D4001F0DEF804E02E20312101F0C1F8FFE74A
S31508007D5004B080BD80B586B0049003918DF80B20E1
S31508007D6001F034FC0190FFE701F030FC0199401A5C
S31508007D70C0087C280DD8FFE7049803999DF80B20C6
S31508007D80FEF73EF920B9FFE700208DF8170004E05A
S31508007D90EAE7FF208DF81700FFE79DF9170006B000
S31508007DA080BD000080B582B0019001F00FFC009004
S31508007DB0019808B9FFE709E0FFE701F007FC009919
S31508007DC0401A0199884201D2FFE7F6E702B080BD62
S31508007DD081B0009040F2E801C2F20001002008706C
S31508007DE04FF48052885241F20202885241F204024C
S31508007DF0885441F208028850009940F27002C2F293
S31508007E000002116040F27501C2F20001087040F2EA
S31508007E108501C2F20001087001B0704780B584B0D0
S31508007E200390ADF80A1040F20000C2F20000007894
S31508007E30012813D0FFE701F0C9FB0190019840F231
S31508007E409401C2F200010968401A41F28831884259
S31508007E5003D3FFE701F08EF9FFE7FFE70398BDF8C4
S31508007E600A1001F05DFC04B080BD000080B540F248
S31508007E70E800C2F200000078012801D0FFE714E00C
S31508007E8001F0A4FB40F2E801C2F2000141F2080247
S31508007E908958401AB0F57A7F07D3FFE740F2E80120
S31508007EA0C2F2000100200870FFE780BD80B588B0E7
S31508007EB007908DF81B10079820B1FFE79DF81B0067
S31508007EC008B9FFE7A2E10798007800F0F0008DF8FE
S31508007ED01A009DF81A000146039170B1FFE703984E
S31508007EE0102837D0FFE70398202800F0B880FFE76E
S31508007EF00398302800F0558187E10798007800F04C
S31508007F000F008DF813009DF8130048B1FFE79DF8A0
S31508007F1013009DF81B100139C9B2884201DDFFE73D
S31508007F2074E140F2E801C2F200010020087040F254
S31508007F307000C2F20000006858B1FFE740F2700016
S31508007F40C2F200000268079801309DF813109047A6
S31508007F50FFE75BE19DF81B00012801D8FFE755E123
S31508007F6007980178407801F00F0140EA0120ADF842
S31508007F701800BDF81800072801D8FFE746E1BDF844
S31508007F801800B0F5805F0AD3FFE740F20D30C1F65E
S31508007F90DA00022100231A4600F03AF936E1BDF864
S31508007FA0180040F2E801C2F2000102914FF4805233
S31508007FB0885241F202020020885241F2040201204E
S31508007FC08854087001F002FB029941F208028850B1
S31508007FD09DF81B00032838D3FFE79DF81B000238DD
S31508007FE0ADF81600BDF81600BDF81810884205DD74
S31508007FF0FFE7BDF81800ADF81600FFE70020ADF85A
S315080080001400FFE7BDF81400BDF81610884212DA0E
S31508008010FFE70798BDF814201044807840F2E8017D
S31508008020C2F2000111444870FFE7BDF814000130A0
S31508008030ADF81400E6E7BDF8160040F2E801C2F212
S31508008040000141F202028852FFE740F20D30C1F604
S31508008050DA0000220123114600F0DAF8D6E040F2F1
S31508008060E800C2F200000078012801D0FFE7CDE061
S315080080700798007800F00F008DF812009DF812009E
S3150800808040F2E801C2F2000141F20402895C88422A
S3150800809007D0FFE740F2E801C2F2000100200870AD
S315080080A0B4E001F093FA40F2E802C2F2000241F2AB
S315080080B0080150509DF81B000138ADF81600BDF8B0
S315080080C016004FF48051515A41F20203D25A891AC6
S315080080D088420EDDFFE740F2E801C2F200014FF4E4
S315080080E08050085A41F20202895A401AADF8160021
S315080080F0FFE70020ADF81400FFE7BDF81400BDF84F
S315080081001610884216DAFFE70798BDF814301844A7
S31508008110407840F2E801C2F2000141F202028A5AAE
S315080081201A4411444870FFE7BDF814000130ADF851
S315080081301400E2E7BDF8163040F2E801C2F2000189
S3150800814041F202000A5A1A440A5241F20403CA5C6E
S31508008150013202F00F02CA54085A4FF48052895A63
S3150800816088421DDBFFE740F2E801C2F20001002069
S31508008170087040F27000C2F20000006878B1FFE7AC
S3150800818040F27000C2F20000026840F2E800C2F253
S3150800819000004FF48051415A01309047FFE7FFE74E
S315080081A034E00798007800F00F0040F27601C2F23A
S315080081B0000108709DF81B00022804D3FFE7079802
S315080081C04078019002E000200190FFE7019840F214
S315080081D07401C2F2000108709DF81B00032804D33D
S315080081E0FFE707988078009002E000200090FFE7FC
S315080081F0009840F27701C2F20001087040F275015A
S31508008200C2F200010120087000E0FFE708B080BD57
S3150800821080B584B003908DF80B108DF80A208DF880
S3150800822009309DF80B10032060F31F118DF801101B
S315080082309DF80A108DF802109DF809108DF80310A4
S315080082408DF80000FFE79DF8000007280DD8FFE726
S315080082509DF800200DF10101CC208854FFE79DF818
S31508008260000001308DF80000EDE703980DF10101DB
S315080082700822FFF76FFD04B080BD000082B00190B0
S315080082808DF8031040F28500C2F20000007808B1AC
S31508008290FFE736E09DF8031040F28400C2F20000C2
S315080082A001700078092807D3FFE740F28401C2F27B
S315080082B0000108200870FFE700208DF80200FFE79C
S315080082C09DF8020040F28401C2F200010978884252
S315080082D010DAFFE701989DF80220805C40F27C01E5
S315080082E0C2F200018854FFE79DF8020001308DF8BC
S315080082F00200E5E740F28501C2F20001012008709C
S31508008300FFE702B07047000082B08DF806009DF9BD
S31508008310060000280FD4FFE79DF8060018B9FFE706
S315080083200020009003E09DF806000090FFE7009803
S315080083308DF8070003E001208DF80700FFE79DF898
S31508008340070002B07047000080B58AB00890079110
S31508008350ADF81A20079850B1FFE7BDF81A0030B1FA
S31508008360FFE7BDF81A00B0F5805F04D3FFE7FF20EA
S315080083708DF827003EE1BDF81A0007283FD8FFE729
S315080083809DF81A008DF812000020ADF80800FFE7E6
S31508008390BDF80800BDF81A1088420FDAFFE70798FB
S315080083A0BDF80810405C0DF1120211444870FFE751
S315080083B0BDF808000130ADF80800E9E7BDF81A0075
S315080083C00130ADF80800FFE7BDF8080007280DD80A
S315080083D0FFE7BDF808200DF11201CC208854FFE70D
S315080083E0BDF808000130ADF80800EDE708980DF172
S315080083F012010822FFF7AEFC8DF82700FAE09DF877
S315080084001B00012161F31F108DF81200BDF81A0038
S315080084108DF8130000208DF80700FFE79DF8070088
S3150800842005280FD8FFE707989DF80710405C0DF15F
S31508008430120211448870FFE79DF8070001308DF895
S315080084400700EBE708980DF112010822FFF782FCF6
S3150800845020B1FFE7FF208DF82700CBE000208DF83C
S315080084600D0001208DF80C000DF10D0003A900F098
S31508008470C5F820B1FFE7FF208DF82700BAE00620EF
S31508008480ADF8100001208DF80F0000208DF80B00C4
S31508008490FFE7BDF81000BDF81A10884280F28D80FB
S315080084A0FFE79DF80D00B0B1FFE79DF80B009DF8BA
S315080084B00D1088420FDBFFE70DF10D0003A900F050
S315080084C09DF820B1FFE7FF208DF8270092E00020F5
S315080084D08DF80B00FFE79DF80C00FFF715FFFFF777
S315080084E061FC9DF80F00022161F31F108DF8120040
S315080084F0BDF81A00BDF81010401A8DF80E009DF848
S315080085000E00082804D3FFE707208DF80E00FFE7C2
S3150800851000208DF80600FFE79DF806009DF80E106E
S31508008520884212DAFFE70798BDF810209DF8061072
S315080085300A44805C0DF1120211444870FFE79DF869
S31508008540060001308DF80600E6E79DF80E000130BA
S315080085508DF80600FFE79DF8060007280DD8FFE707
S315080085609DF806200DF11201CC208854FFE79DF8EE
S31508008570060001308DF80600EDE708980DF11201A6
S315080085800822FFF7E7FB20B1FFE7FF208DF8270059
S3150800859030E09DF80E10BDF810000844ADF8100044
S315080085A09DF80F00013000F00F008DF80F009DF8C0
S315080085B00B0001308DF80B006BE740F28500C2F224
S315080085C00000007890B1FFE740F28501C2F2000191
S315080085D00020087040F28400C2F20000017840F2E0
S315080085E07C00C2F20000FFF761FCFFE700208DF86F
S315080085F02700FFE79DF927000AB080BD80B588B03F
S315080086000690059100F0E2FF049040F27501C2F26F
S31508008610000100200870FFE700F0D8FF0499401A0F
S31508008620C0087C2856D8FFE740F27500C2F2000061
S31508008630007878B3FFE740F27501C2F20001002026
S31508008640087040F27600C2F20000007890B9FFE7A1
S3150800865040F27400C2F2000000780699087040F2F1
S315080086607700C2F2000000780599087000208DF89E
S315080086701F0033E040F27600C2F2000000780228BC
S3150800868004D1FFE7FF208DF81F0027E000F09EFFCA
S315080086900490C1E703A801A90DF10302FDF782FBC7
S315080086A008B1FFE7B8E79DF8030038B1FFE79DF882
S315080086B0040000F0F000302806D0FFE79DF803100C
S315080086C001A8FFF7DBFDA7E79DF8031001A8FFF750
S315080086D0EDFBA1E7FF208DF81F00FFE79DF91F00BE
S315080086E008B080BD80B582B040F20101C2F2000137
S315080086F001200190087000F069FF40F27801C2F28B
S315080087000001086048F24D70C0F60000FDF7BEFB98
S31508008710019800F057F802B080BD000082B08DF8CD
S3150800872007009DF8071001200329009008D0FFE7ED
S315080087309DF807000438B0FA80F040090090FFE77A
S31508008740009800F0010002B07047000080B540F2C2
S315080087500101C2F200010120087000F033F800F0B0
S3150800876035FF40F27801C2F20001086080BD0000C2
S3150800877080B582B040F20100C2F200000078FFF72F
S31508008780CDFF08B9FFE71BE000F020FF0190019834
S3150800879040F27801C2F200010968401AB0F57A7F02
S315080087A00ED3FFE7019840F27801C2F20001086093
S315080087B040F20100C2F20000007800F003F8FFE77B
S315080087C002B080BD80B584B08DF80F0000200290FD
S315080087D001909DF80F008DF8040042F20D60C1F675
S315080087E0FF0001A90822FDF70BFC04B080BD0000BC
S315080087F080B582B08DF807009DF8070028B1FFE71D
S315080088009DF80700072801D3FFE712E09DF8070047
S3150800881040F20101C2F2000108709DF80700FFF757
S31508008820D1FF00F0D3FE40F27801C2F200010860E1
S31508008830FFE702B080BD000080B582B0002001903D
S3150800884045F20010C0F600004EF60851CEF20001BF
S31508008850086062B600F006FD0320009000F0EEF80E
S3150800886000F070FE00F0F4F8FDF726F900F058FB6A
S31508008870FDF7C8FEFFF736FF0098FFF7B9FF00F0CF
S3150800888087FAFFE700F0A8FEFDF704FAFDF7DCFE1D
S3150800889000F0CAFBFFF76CFF00F0C0FAF2E7000031
S315080088A080B582B0019001984FF48871FCF7C1FD3C
S315080088B0019944F24D10C4F65470086001990120DC
S315080088C04860019900200872019AFE2151720199A7
S315080088D088720199C8720199C8600199086101995D
S315080088E008750199487501998875019A0321D1750A
S315080088F0019A0A211183019948830199C86101994E
S3150800890081F82000019981F8210002B080BD00009D
S3150800891080B584B002900298006844F24D11C4F6FE
S315080089205471884204D0FFE7FF208DF80F001FE03E
S3150800893002984068012804D0FFE7FF208DF80F0051
S3150800894016E00298D0F80C01009002984FF4867150
S3150800895000F0E2F8019001980099884204D0FFE7F8
S31508008960FF208DF80F0003E000208DF80F00FFE7C9
S315080089709DF90F0004B080BD80B588B006900591BA
S31508008980FEF704FE0698FEF7D9FD8DF807009DF858
S315080089900700032806D0FFE7FEF764FDFF208DF8E1
S315080089A01F002CE0059804904420039000200290B4
S315080089B0FFE70298039988421BD2FFE70698029AB6
S315080089C000EB8200049951F82210FEF7EFFD8DF8AE
S315080089D007009DF80700032806D0FFE7FEF742FDCB
S315080089E0FF208DF81F000AE0FFE702980130029089
S315080089F0DFE7FEF737FD00208DF81F00FFE79DF93A
S31508008A001F0008B080BD000080B584B08DF80F0047
S31508008A100291019200200090FCF7CEFE0299019A7D
S31508008A20FCF7DEFD00909DF90F000099FCF7CCFEDF
S31508008A309DF90F00FCF7A8FE04B080BD80B582B092
S31508008A408DF807009DF80700FCF702FF02B080BD0D
S31508008A5082B04EF20000C0F601000068009000984F
S31508008A6044F63151C4F6566188420AD1FFE740F20E
S31508008A709801C2F200010120087000208DF8070055
S31508008A8009E040F29801C2F20001002008700320B4
S31508008A908DF80700FFE79DF8070002B07047000051
S31508008AA080B5C6B001A800F0D5F820B1FFE7FF20D1
S31508008AB08DF817012BE09DF81800022804D0FFE76F
S31508008AC000208DF8170122E09DF81900009000F0AB
S31508008AD029F901460098884204D0FFE7FF208DF85F
S31508008AE0170114E09DF819008DF80C00FE208DF88A
S31508008AF00D0003208DF8180000208DF81A008DF857
S31508008B00250001A800F0DCF88DF81701FFE79DF9AC
S31508008B10170146B080BD000087B0069005910698FB
S31508008B2004904FF0FF30039000200290FFE7029870
S31508008B300599884229D2FFE704980299415C03986F
S31508008B404840039000200190FFE70198072817D8AE
S31508008B50FFE7039800F0010000900398400803908F
S31508008B60009840B1FFE7039848F22031CEF6B85195
S31508008B7048400390FFE7FFE7019801300190E4E7DA
S31508008B80FFE7029801300290D1E70398C04307B087
S31508008B907047000080B586B004908DF80F100498D1
S31508008BA020B1FFE79DF80F0020B9FFE7FF208DF8F9
S31508008BB017004BE000F0CEF802900298006844F2E5
S31508008BC05811C4F65471884204D0FFE7FF208DF887
S31508008BD017003BE000208DF80700FFE79DF8071017
S31508008BE000200E2900900BD8FFE79DF807109DF886
S31508008BF00F00421E0020914238BF01200090FFE777
S31508008C000098C007D0B1FFE702989DF807100844FE
S31508008C1090F84C008DF806009DF8060008B9FFE7A5
S31508008C200CE09DF8060004999DF807208854FFE794
S31508008C309DF8070001308DF80700CFE704999DF8E5
S31508008C400720002088548DF81700FFE79DF91700C4
S31508008C5006B080BD80B584B002904CF20000C0F624
S31508008C60010001900198FFF753FE50B9FFE70298FB
S31508008C7001994FF48872FCF797FB00208DF80F00D6
S31508008C801AE04CF60000C0F6010000900098FFF7C5
S31508008C903FFE50B9FFE7029800994FF48872FCF737
S31508008CA083FB00208DF80F0006E00298FFF7F8FD19
S31508008CB0FF208DF80F00FFE79DF90F0004B080BD77
S31508008CC080B5C8B04690469902A801904FF48872BC
S31508008CD0FCF76AFB01984FF48671FFF71DFF0199AF
S31508008CE045904CF60000C0F60100FFF745FE20B19E
S31508008CF0FFE7FF208DF81F0110E04CF20000C0F6D8
S31508008D00010002A9FFF738FE20B1FFE7FF208DF822
S31508008D101F0103E000208DF81F01FFE79DF91F01E1
S31508008D2048B080BD80B582B000F014F840F6000166
S31508008D30C0F60101884204D1FFE701208DF807003B
S31508008D4003E000208DF80700FFE79DF8070002B052
S31508008D5080BD000082B04EF60850CEF200000068D2
S31508008D600090009840F60001C0F60101884206D33B
S31508008D70FFE740F60000C0F60100019005E045F265
S31508008D800000C0F600000190FFE7019802B07047A6
S31508008D9080B5C6B040F28C01C2F20001002008700E
S31508008DA002A8FFF757FF08B1FFE734E09DF81C005B
S31508008DB0022801D0FFE72EE09DF81D000090FFF77E
S31508008DC0B1FF01460098884201D0FFE723E0BDF8CD
S31508008DD020004FF47A7148430190019820B9FFE7C3
S31508008DE042F210700190FFE740F28C01C2F20001D6
S31508008DF00120087000F0EAFB014640F29000C2F23A
S31508008E000000016000680199084440F28801C2F236
S31508008E1000010860FFE746B080BD000080B582B05B
S31508008E2040F28C00C2F20000007808B9FFE724E09F
S31508008E3000F0CCFB0190019840F28801C2F20001D3
S31508008E400968401A002802D4FFE7FCF733FD0198A9
S31508008E5040F29001C2F200010968401A64280CD356
S31508008E60FFE7FFF71DFE38B9FFE740F28C01C2F2B3
S31508008E70000100200870FFE7FFE702B080BD000090
S31508008E8080B5C6B002A8FFF7E5FEC8B1FFE7FFF751
S31508008E9049FF8DF8070002A8FFF702FD9DF80700B5
S31508008EA08DF810009DF80700012804D1FFE701207E
S31508008EB08DF8130003E001208DF81200FFE7FFE7A5
S31508008EC001208DF8290002A8FFF7FAFE46B080BDFA
S31508008ED080B582B08DF807008DF806107F208DF8D2
S31508008EE003009DF807008DF804009DF806008DF82C
S31508008EF005000DF10300032100F002F802B080BD61
S31508008F0080B582B001908DF8031001999DF8032071
S31508008F1040F20D30C1F6DA00FFF716FA02B080BD4E
S31508008F2080B58AB01120C0F2140001210691FEF71F
S31508008F30D3F806991120C0F21C00FEF7CDF808A850
S31508008F400190FEF755FB0199069804220892022221
S31508008F5000928DF82620002207928DF824208DF89D
S31508008F6025208DF827004FF090400290FEF752FB1F
S31508008F700099029807220392FEF7C0FB0198FEF7B4
S31508008F8037FBDDF800C001990298069A079B4FF057
S31508008F90080ECDF820E08DF826C08DF824308DF81F
S31508008FA025208DF82720FEF735FB0298039A032122
S31508008FB00491FEF7A3FB069A079B44F20040C4F20D
S31508008FC0000005904FF4165100F078FC05980799B3
S31508008FD000F020FD0598069900F066FD05980699AB
S31508008FE000F050FD0598069A0521C0F20C0100F024
S31508008FF0EDFC0499079A1C20FFF706FD05980699CB
S3150800900000F00AFC079841F2F711C2F20001087055
S3150800901041F2F811C2F20001087040F2E401C2F20E
S31508009020000108700AB080BD80B582B040F2E40045
S31508009030C2F200000078012818DBFFE740F2DC00E6
S31508009040C2F20000006888B1FFE70DF1070000F0E2
S3150800905057F850B9FFE740F2DC00C2F20000026898
S315080090600DF1070001219047FFE7FFE702B080BD39
S3150800907080B582B044F20040C4F20000202100F01E
S3150800908007FCD8B3FFE744F20040C4F2000000F042
S31508009090BBFB8DF8070040F2E400C2F2000000783E
S315080090A03F2819D8FFE79DF8070041F2F711C2F2E9
S315080090B000010B7840F29902C2F20002D0540878F7
S315080090C0013000F03F00087040F2E401C2F20001EE
S315080090D0087801300870FFE744F20040C4F2000047
S315080090E0082100F0D5FB40B1FFE744F20040C4F286
S315080090F00000082100F0A2FBFFE7FFE702B080BDF1
S3150800910082B0009072B640F2E400C2F20000007825
S3150800911028B9FFE762B6FF208DF807001CE041F288
S31508009120F811C2F200010A7840F29900C2F2000072
S31508009130805C009A10700878013000F03F000870D3
S3150800914040F2E401C2F2000108780138087062B6FC
S3150800915000208DF80700FFE79DF9070002B0704769
S3150800916041F2F410C2F20000017800200F2988BFEE
S315080091700120704740F20001C2F200010120087088
S3150800918041F2F911C2F20001002008707047000090
S3150800919080B582B08DF807009DF80700012803D135
S315080091A0FFE7FFF7E7FF28E040F20000C2F2000001
S315080091B00078012818D0FFE79DF8070040F2000163
S315080091C0C2F20001097888420ED0FFE741F2F91190
S315080091D0C2F20001002008709DF8070040F2000165
S315080091E0C2F20001087007E09DF8070040F200018E
S315080091F0C2F200010870FFE7FFE702B080BD000079
S3150800920084B00390029100208DF80700FFE79DF8CF
S31508009210071000200F29009009D8FFE702989DF84B
S315080092200710405C002818BF01200090FFE700984F
S31508009230C00760B1FFE702989DF80720805C039994
S3150800924088549DF8070001308DF80700DFE7039979
S315080092509DF80720002088549DF807000130C0B209
S3150800926004B0704780B584B0FEF77CF842F200017E
S31508009270C4F2020140F2551008604FF01C1001219B
S315080092800391FDF729FF039947F21002C4F2000281
S31508009290106840F0030010600846FDF73FFDFFE741
S315080092A0FDF7E8FE08B9FFE7FAE7022002902C214D
S315080092B0FDF766FF02980121FDF730FDFFE719204B
S315080092C0FDF7B8FE012801D0FFE7F8E70020019076
S315080092D0FDF79EFC0520FDF7D7FC0198FDF7C0FCBD
S315080092E00198FDF7A9FC0120FDF7E2FC0220FEF734
S315080092F08DF8FFE7FEF7AEF8022801D0FFE7F9E799
S315080093000020FDF7D5FC00F003F804B080BD00008E
S3150800931080B58CB0002000900B900A9009900890B8
S3150800932007900690059004900390FEF793F88DF841
S315080093300B009DF80B000146019140B1FFE701982B
S3150800934001282BD0FFE70198022831D0D6E041F258
S315080093505400C4F202000068400AC00798B1FFE74B
S3150800936041F23000C4F202000068400EC00750B156
S31508009370FFE740F20401C2F2000146F60040C0F2DF
S31508009380DC20086009E040F20401C2F2000141F263
S315080093900020C0F27A000860FFE7B9E040F2040155
S315080093A0C2F2000141F20020C0F27A000860AFE084
S315080093B041F20400C4F202000068C0F300400990BC
S315080093C041F22C00C4F2020001680020B0EBD17F04
S315080093D050D1FFE741F20400C4F202000168C1F36C
S315080093E083410B910068C0F341700A900A9820B92E
S315080093F0FFE70B980F2807D1FFE70A990B9800EBB0
S31508009400011001300B9003E00B9802300B90FFE738
S31508009410099860B9FFE70B9840F60011C0F23D01C4
S31508009420484340F20401C2F20001086021E041F21B
S315080094300400C4F202000068400CC00760B1FFE7F0
S315080094400B9840F60011C0F23D01484340F2040172
S31508009450C2F2000108600BE00B9841F20021C0F24D
S315080094607A01484340F20401C2F200010860FFE7AE
S31508009470FFE742E041F22C00C4F202000168C1F3A2
S31508009480031105910168C1F308210491006800F0F1
S3150800949007000390099830B9FFE740F60010C0F2BC
S315080094A03D00069015E041F20400C4F2020000688F
S315080094B0400CC00730B1FFE740F60010C0F23D008F
S315080094C0069005E041F20020C0F27A000690FFE718
S315080094D0FFE706980499A0FB0101059ADDF80CC080
S315080094E0012303FA0CF35A430023FBF7E5FE40F287
S315080094F00401C2F200010860FFE709E040F2040136
S31508009500C2F2000141F20020C0F27A000860FFE7CB
S3150800951041F20400C4F202000068C0F30310089088
S31508009520089949F63230C0F60000405C079040F2D0
S315080095300401C2F200010868079AD04008600CB01E
S3150800954080BD000080B582B041F2FC11C2F2000174
S31508009550002008608DF80700FFE79DF807000F2830
S3150800956024DCFFE79DF80700020141F20021C2F260
S315080095700001002088549DF8072001EB0212507064
S315080095809DF8072001EB021250609DF8072001EBB9
S31508009590021290609DF8072001EB0211C860FFE7F0
S315080095A09DF8070001308DF80700D6E740F2040061
S315080095B0C2F20000006844F6D351C1F26201A0FB72
S315080095C001108009FCF746F802B080BD41F2FC1094
S315080095D0C2F200000068704780B582B000208DF89E
S315080095E00700FFE79DF807000F284EDCFFE79DF808
S315080095F00700010141F20020C2F20000405C022887
S315080096003CD1FFE79DF8071041F20020C2F20000A6
S3150800961000EB0110C06858B1FFE79DF8071041F24A
S315080096200020C2F2000000EB0110C0688047FFE787
S315080096309DF8071041F20020C2F2000000EB01106D
S31508009640407880B1FFE79DF8070041F20021C2F299
S31508009650000101EB0012002050609DF8070002018E
S315080096600120885409E09DF80700020141F2002113
S31508009670C2F2000100208854FFE7FFE7FFE79DF8E4
S31508009680070001308DF80700ACE702B080BD000086
S3150800969081B041F2FC11C2F200010868013008608D
S315080096A000208DF80300FFE79DF803000F2835DC3E
S315080096B0FFE79DF80300010141F20020C2F2000015
S315080096C0405C012823D1FFE79DF8030041F2002101
S315080096D0C2F2000101EB00125068013050609DF89B
S315080096E0030001EB001040689DF8032001EB02110E
S315080096F0896888420AD3FFE79DF80300020141F210
S315080097000021C2F2000102208854FFE7FFE7FFE7C5
S315080097109DF8030001308DF80300C5E701B07047D6
S3150800972080B584B00390ADF80A10039820B1FFE71E
S31508009730BDF80A0008B9FFE763E0FFF747FF40F204
S315080097409401C2F200010860039800788DF80900B8
S315080097509DF809001038014601912E2800F24B8029
S315080097600199DFE801F0181E484848484848484823
S315080097704848484848484848244848484830484897
S31508009780484848482A48483648483C483C3C3C48AB
S315080097904848484842000398BDF80A10FDF7F2FF0A
S315080097A02FE00398BDF80A10FEF73EF829E0039863
S315080097B0BDF80A10FEF792F823E00398BDF80A10E0
S315080097C0FEF768FA1DE00398BDF80A10FEF71CFAC2
S315080097D017E00398BDF80A10FEF70AFA11E09DF89B
S315080097E009001121FFF774FB0BE00398BDF80A1076
S315080097F0FEF716FA05E09DF809001121FFF768FB48
S31508009800FFE704B080BD000081B000900098406872
S3150800981080B201B07047000082B001908DF8031045
S315080098209DF803200199C86802F0010220F400504F
S3150800983040EA4230C86002B07047000082B001902A
S3150800984000910098B0F5006F05D1FFE701994FF434
S31508009850006008621AE00098B0F5003F05D1FFE7FE
S3150800986001994FF4003008620FE09DF80000C00629
S3150800987028B1FFE7019800680198406804E000985D
S31508009880C04301990860FFE7FFE7FFE702B07047AA
S3150800989083B001900091019800680099084204D0AD
S315080098A0FFE701208DF80B0003E000208DF80B0080
S315080098B0FFE79DF80B0003B07047000080B58AB03B
S315080098C0099008918DF81F208DF81E3002A8FDF723
S315080098D079FA099843F60001C4F20101884203D1D6
S315080098E0FFE70498019002E005980190FFE70198C8
S315080098F000EB800040000899B0FBF1F0009000985A
S315080099004CF6CD41CCF6CC41A0FB0121C90801EBB0
S315080099108101A0EB410004280AD8FFE700984CF61D
S31508009920CD41CCF6CC41A0FB0110C00800900BE05D
S3150800993000984CF6CD41CCF6CC41A0FB01010120A4
S3150800994000EBD1000090FFE7BDF800200999886870
S315080099504FF6FF739843104488609DF81F0058B966
S31508009960FFE70999C86840F08050C8600999C86837
S3150800997020F48050C8601BE09DF81F0001280BD119
S31508009980FFE70999C86820F08050C8600999C86837
S3150800999020F48050C8600AE00999C86820F0805011
S315080099A0C8600999C86840F48050C860FFE7FFE7B7
S315080099B09DF81E200999086902F0030220F4405018
S315080099C040EA023008610AB080BD000083B0029008
S315080099D001918DF803209DF8030001280CD1FFE7BB
S315080099E0019800F01F02012101FA02F30299020C04
S315080099F08858184388500BE0019800F01F0201218F
S31508009A0001FA02F30299020C885898438850FFE736
S31508009A1003B0704782B001908DF803109DF80300DB
S31508009A2058B9FFE70199C86820F40070C860019921
S31508009A30C86820F48060C86021E09DF8030001280A
S31508009A400BD1FFE70199C86820F40070C860019936
S31508009A50C86840F48060C86010E09DF803000228DA
S31508009A600BD1FFE70199C86840F40070C8600199F6
S31508009A70C86840F48060C860FFE7FFE7FFE702B008
S31508009A807047000082B001908DF803109DF80320FE
S31508009A900199C86802F0010220F0040040EA820039
S31508009AA0C86002B07047000082B001908DF80310BC
S31508009AB09DF803200199C86802F0010220F0080009
S31508009AC040EAC200C86002B07047F1EE100A4FF6CD
S31508009AD0FF71C0F2C03120EA010040F04070E1EEAB
S31508009AE0100A7047312E302E3000312E302E3000BD
S31508009AF04E2F4100312E302E300002040608020C8B
S31508009B000810000000000102030400000000010222
S31508009B100304000000000000000001020304060719
S31508009B2008090001020304050607080C101418208A
S31508009B303040000000000000000001020304060790
S31508009B4008090000689B00080000002008000000C3
S31508009B5014520008709B000808000020F834000022
S31508009B6030520008000000000101000000127A00CF
S705080051D9C8
